:020000040000FA
:100000000C9462000C948A000C948A000C94190CD5
:100010000C94B90B0C944B0B0C948A000C948A0032
:100020000C948A000C948A000C948A000C948A0028
:100030000C948A000C948A000C948A000C948A0018
:100040000C94010B0C948A000C94CF0A0C94A90A0E
:100050000C948A000C948A000C948A000C948A00F8
:100060000C94790C0C948A000000000023002600F8
:10007000290000000008000201000003040700003E
:1000800000000000000000000000250028002B00F8
:1000900000000000240027002A00040404040404D3
:1000A0000404020202020202030303030303010227
:1000B00004081020408001020408102001020408F6
:1000C0001020A90E11241FBECFEFD8E0DEBFCDBF98
:1000D00011E0A0E0B1E0E2E7FAE202C005900D9283
:1000E000A43FB107D9F724E0A4EFB1E001C01D920D
:1000F000A436B207E1F710E0C2E6D0E004C02197D1
:10010000FE010E943115C136D107C9F70E941E10A9
:100110000C9437150C94000080916D0290916E0242
:10012000891B990B089508950895AF92BF92CF92BD
:10013000DF92EF92FF920F931F93CF93DF936C01A7
:100140007B018B01040F151FEB015E01AE18BF0888
:10015000C017D10759F06991D601ED91FC9101903A
:10016000F081E02DC6010995892B79F7C501DF9152
:10017000CF911F910F91FF90EF90DF90CF90BF90A4
:10018000AF900895FC01538D448D252F30E0842FCE
:1001900090E0821B930B541710F0CF9608950197AF
:1001A0000895FC01918D828D981761F0A28DAE0F9C
:1001B000BF2FB11D5D968C91928D9F5F9F73928F23
:1001C00090E008958FEF9FEF0895FC01918D828D4F
:1001D000981731F0828DE80FF11D858D90E008951C
:1001E0008FEF9FEF0895FC01918D228D892F90E074
:1001F000805C9F4F821B91098F73992708958FED23
:1002000092E00E94F30021E0892B09F420E0822F84
:10021000089580E090E0892B29F00E94FF00811171
:100220000C9400000895FC01A48DA80FB92FB11DF6
:10023000A35ABF4F2C91848D90E001968F7399271C
:10024000848FA689B7892C93A089B1898C918370FA
:1002500080648C93938D848D981306C00288F389F3
:10026000E02D80818F7D80830895EF92FF920F9320
:100270001F93CF93DF93EC0181E0888F9B8D8C8D52
:1002800098131AC0E889F989808185FF15C09FB746
:10029000F894EE89FF896083E889F9898081837009
:1002A000806480839FBF81E090E0DF91CF911F91B8
:1002B0000F91FF90EF900895F62E0B8D10E00F5FD9
:1002C0001F4F0F731127E02E8C8D8E110CC00FB6AF
:1002D00007FCFACFE889F989808185FFF5CFCE0147
:1002E0000E941301F1CFEB8DEC0FFD2FF11DE35AAE
:1002F000FF4FF0829FB7F8940B8FEA89FB898081CA
:100300008062CFCFCF93DF93EC01888D8823B9F043
:10031000AA89BB89E889F9898C9185FD03C0808110
:1003200086FD0DC00FB607FCF7CF8C9185FFF2CF8D
:10033000808185FFEDCFCE010E941301E9CFDF91CF
:10034000CF910895833081F028F4813099F0823084
:10035000A9F008958730A9F08830C9F08430B1F44D
:10036000809180008F7D03C0809180008F77809383
:100370008000089584B58F7784BD089584B58F7DFE
:10038000FBCF8091B0008F778093B000089580916B
:10039000B0008F7DF9CFCF93DF93282F30E0F901A4
:1003A000EE58FF4F8491F901E255FF4FD491F901C6
:1003B000E656FF4FC491CC23A1F081110E94A20107
:1003C000EC2FF0E0EE0FFF1FE859FF4FA591B4911D
:1003D000EC91ED2381E090E009F480E0DF91CF9192
:1003E000089580E090E0FACF1F93CF93DF93282FFA
:1003F00030E0F901EE58FF4F8491F901E255FF4FCB
:10040000D491F901E656FF4FC491CC23A9F0162FE1
:1004100081110E94A201EC2FF0E0EE0FFF1FEA57BE
:10042000FF4FA591B4918FB7F894EC91111108C0CA
:10043000D095DE23DC938FBFDF91CF911F9108957C
:10044000DE2BF8CF3FB7F89480914E0290914F0287
:10045000A0915002B091510226B5A89B05C02F3F34
:1004600019F00196A11DB11D3FBFBA2FA92F982FDA
:100470008827BC01CD01620F711D811D911D42E0D5
:10048000660F771F881F991F4A95D1F708958F929D
:100490009F92AF92BF92CF92DF92EF92FF926B0149
:1004A0007C010E9422024B015C01C114D104E104D1
:1004B000F104B9F00E942202681979098A099B099E
:1004C000683E73408105910580F321E0C21AD1088E
:1004D000E108F10888EE880E83E0981EA11CB11C8B
:1004E000E4CFFF90EF90DF90CF90BF90AF909F90C0
:1004F0008F900895089520911D02260F3327331FF2
:1005000021323105ECF42091B502FC0190E080E04D
:10051000243069F082E00895A0911D022191AC0180
:1005200043505E4FA40FB52FB11D2C930196861733
:1005300098F380911D02680F60931D0280E008957A
:1005400081E008951092B50281E08093B402109288
:100550008F0261E082E10E94F40161E083E10E9488
:10056000F401E9EBF0E080818E7F808380818D7FD4
:10057000808388E48093B80085E48093BC0008956C
:1005800010926E0210926D021092BC021092DE0266
:100590000E94A20283E990E090936C0280936B0228
:1005A00084E990E090936A02809369020895CF9362
:1005B000DF9391E09093FC018823B9F0C091B800DB
:1005C000D091BA008091BC008A7B8093BC0060E02F
:1005D00082E10E94F40160E083E10E94F4010E9444
:1005E000A202D093BA00C093B800DF91CF910895D2
:1005F000CF92DF92EF92FF920F931F93CF93DF93EF
:10060000D091DE0281E0D13208F09CC0C091DD02C1
:100610000E9422026B017C018091B50281116CC0A5
:1006200082E08093B50281E08093B4028FEF8093E3
:10063000B3021092B202D093B102ADEBB2E0E1E9A5
:10064000F2E080E0D8138DC0109290028091900269
:10065000CC0FC82BC093900280918F02813009F09B
:1006600084C010928F020E9422026B017C01809153
:1006700090028093BB008091B7029091B802A09144
:10068000B902B091BA02892B8A2B8B2BA1F00E9460
:1006900022020091B7021091B8022091B902309164
:1006A000BA026C197D098E099F09061717072807DA
:1006B000390708F442C08091BC0083FDD8CF85EC97
:1006C0008093BC000E9422026B017C018091B502E4
:1006D000823009F44CC08091B3028F3F09F469C0A5
:1006E0008091B302803209F466C08091B3028033F6
:1006F00009F463C084E026C08091B7029091B802EB
:10070000A091B902B091BA02892B8A2B8B2B09F4E4
:1007100083CF0E9422020091B7021091B80220916B
:10072000B9023091BA026C197D098E099F0906172A
:1007300017072807390708F06FCF8091B6020E948B
:10074000D70285E01092BC021092DE021092BB022A
:10075000DF91CF911F910F91FF90EF90DF90CF909D
:1007600008959D9191938F5F6DCF85EEA9CF809174
:10077000B7029091B802A091B902B091BA02892B48
:100780008A2B8B2B09F4A2CF0E9422020091B70280
:100790001091B8022091B9023091BA026C197D090A
:1007A0008E099F09061717072807390708F08ECF0B
:1007B000C4CF80E0C7CF82E0C5CF83E0C3CFCF9264
:1007C000DF92EF92FF920F931F93CF93DF93D82F77
:1007D000C62F613208F098C00E9422026B017C0192
:1007E0008091B50281116BC081E08093B502809346
:1007F000B4029FEF9093B3021092B2029C0F9093B9
:10080000B1028093900280919002DD0FD82BD0939B
:10081000900280918F02813009F078C010928F028F
:100820000E9422026B017C01809190028093BB00A8
:100830008091B7029091B802A091B902B091BA022A
:10084000892B8A2B8B2BA1F00E9422020091B702E8
:100850001091B8022091B9023091BA026C197D0949
:100860008E099F09061717072807390708F448C09B
:100870008091BC0083FDD8CF85EC8093BC000E94A2
:1008800022026B017C018091B502813009F440C0E5
:100890008091B2028C1710F4C091B202E1E9F2E04B
:1008A000AFE6B2E080E08C1355C08C2FDF91CF9182
:1008B0001F910F91FF90EF90DF90CF90089580915E
:1008C000B7029091B802A091B902B091BA02892BF7
:1008D0008A2B8B2B09F484CF0E9422020091B7024D
:1008E0001091B8022091B9023091BA026C197D09B9
:1008F0008E099F09061717072807390708F070CFD8
:100900008091B6020E94D702C0E0CFCF85EEB5CF6E
:100910008091B7029091B802A091B902B091BA0249
:10092000892B8A2B8B2B09F4AECF0E9422020091D7
:10093000B7021091B8022091B9023091BA026C1935
:100940007D098E099F09061717072807390708F040
:100950009ACFD6CF91919D938F5FA5CF0895E091C7
:100960006E0280916D02E81730F4F0E0E159FD4F1E
:10097000808190E008958FEF9FEF089590916E022F
:1009800080916D022FEF3FEF981748F4E92FF0E0C8
:10099000E159FD4F208130E09F5F90936E02C901C5
:1009A0000895CF92DF92EF92FF920F931F93CF9310
:1009B000DF937C01CB018A012091BB02222389F0C5
:1009C000EB016B01C40ED51ECC15DD0569F06991F4
:1009D000D701ED91FC910190F081E02DC7010995BF
:1009E000F3CF642F0E947B02C801DF91CF911F914A
:1009F0000F91FF90EF90DF90CF900895CF93DF930A
:100A00001F92CDB7DEB769832091BB022223F9F094
:100A10002091DE02203258F021E030E0FC013383E7
:100A2000228390E080E00F90DF91CF910895809134
:100A3000BC02E82FF0E0E354FD4F998190838F5F73
:100A40008093BC028093DE0281E090E0ECCF61E015
:100A5000CE0101960E947B02F7CF682F8CE793E0CE
:100A60000C94FE04CF93DF93EB019091DC0321E023
:100A70002093BB029093DD021092BC021092DE0222
:100A8000682F8CE793E00E94FE046D2F8CE793E0C3
:100A90000E94FE046C2F8CE793E00E94FE04DF911D
:100AA000CF910C94F802CF93C62F9091DC0321E0F4
:100AB0002093BB029093DD021092BC021092DE02E2
:100AC000682F8CE793E00E94FE046C2F8CE793E084
:100AD0000E94FE04CF910C94F802CF93C62F909100
:100AE0002B0421E02093BB029093DD021092BC0204
:100AF0001092DE02682F8CE793E00E94FE046C2FB8
:100B00008CE793E00E94FE04CF910C94F8020F93BF
:100B10001F93CF93DF93042FD52F122FC32FFC01E8
:100B2000808191E09093BB028093DD021092BC0221
:100B30001092DE02F4E06F9FB00111246A5F7F4FD4
:100B40008CE793E00E94FE04802F9D2F0E942D05CC
:100B50008D2F90E00E942D05812F9C2F0E942D0546
:100B60008C2F90E00E942D05DF91CF911F910F9166
:100B70000C94F8029A01895B9F4F211540E13407DC
:100B800030F030E020E040E050E10C94870550E088
:100B900040E0FBCFCF93DF93EC01CB01BA0120E023
:100BA00030E04AE754E40E94C41420E030E44CE909
:100BB00050E40E9495130E940714AB0168818B8159
:100BC0009C81DF91CF910C94BA0590E080E008956C
:100BD0001F93CF93DF93EC0188810E94CB01182FE4
:100BE00089810E94CB01EA81E3701111E4608111D7
:100BF000E8608E2F90E095958795959587958A83E7
:100C0000E150EE30F0F4F0E0E85FF94F0C9431156C
:100C1000160625062D062506210635061606160695
:100C20003506210625062D06250616068B819C8194
:100C3000AD81BE810196A11DB11D8B839C83AD83C7
:100C4000BE83DF91CF911F9108958B819C81AD81EF
:100C5000BE810197A109B109F0CF8B819C81AD8143
:100C6000BE810296A11DB11DE8CF8B819C81AD8113
:100C7000BE810297A109B109E0CF8091FA0190915C
:100C8000FB010C94E8058091F8019091F9010C9416
:100C9000E8058091F6019091F7010C94E8058091A8
:100CA000F4019091F5010C94E805FC0101900020FD
:100CB000E9F73197AF01481B590BBC018FED92E06A
:100CC0000C949500CF93DF93D0E0C0E0009719F02B
:100CD0000E945506EC018AE591E00E9455068C0FB2
:100CE0009D1FDF91CF9108958F929F92AF92BF92F7
:100CF000CF92DF92EF92FF920F931F93CF93DF93E8
:100D0000CDB7DEB7A1970FB6F894DEBF0FBECDBF4B
:100D10006B017C01F7FE41C06DE28FED92E00E9415
:100D200035018C0122273327A9012C193D094E09D1
:100D30005F0919A2CE0181967C019AE0892E912C3F
:100D4000A12CB12CCA01B901A50194010E94731311
:100D5000605DF70162937F01211531054105510561
:100D600089F790E080E0309719F0CF010E94550696
:100D7000800F911FA1960FB6F894DEBF0FBECDBFB6
:100D8000DF91CF911F910F91FF90EF90DF90CF9067
:100D9000BF90AF909F908F900895AC019B0119A2D6
:100DA0008E010F5D1F4F8AE0C82ED12CE12CF12C53
:100DB000CA01B901A70196010E947313605DF80191
:100DC00062938F01211531054105510589F790E0A6
:100DD00080E0309779F2CF010E945506CBCFCF93B8
:100DE000DF93BC01990F880B990B0E947406EC01EC
:100DF0008AE591E00E9455068C0F9D1FDF91CF91EF
:100E000008959091DC0321E02093BB029093DD02D2
:100E10001092BC021092DE02682F8CE793E00E94D1
:100E2000FE040E94F80261E08091DC030E94DF036F
:100E300010926E0280936D0228EE33E0811106C09D
:100E40002115310541F021503109FACF8CE793E0AB
:100E50000E94BE04089580E00895CF939091DC0332
:100E600021E02093BB029093DD021092BC0210920D
:100E7000DE02682F8CE793E00E94FE040E94F802D5
:100E800062E08091DC030E94DF03282F10926E0243
:100E900080936D0280ED97E0223020F4009791F06E
:100EA0000197FACF009771F08CE793E00E94BE049F
:100EB000C82F8CE793E00E94BE0420E03C2FA901DC
:100EC000482BCA01CF9108951F93CF93DF93182F1A
:100ED0008EE00E942D07C1E0D0E002C0CC0FDD1FE4
:100EE0001A95E2F78C239D23892B41F080E10E9423
:100EF0002D07C823D92381E0CD2B09F480E0DF91B1
:100F0000CF911F9108950F931F93CF93DF9380E0AC
:100F10000E946407082F81E0011101C080E08093E6
:100F2000660281E00E946407182F81E0111101C060
:100F300080E08093650282E00E946407D82F81E000
:100F4000D11101C080E08093640283E00E946407B5
:100F5000C82F81E0C11101C080E08093630284E06A
:100F60000E946407482F81E0411101C080E0809316
:100F7000620221E030E0002311F030E020E081E067
:100F800090E0112311F090E080E0280F391F81E0FC
:100F900090E0DD2311F090E080E0280F391F81E020
:100FA00090E0CC2311F090E080E0280F391F81E021
:100FB00090E0442311F090E080E0820F931F909323
:100FC0006802809367020023C1F1112301F1D1115E
:100FD00029C0CC2321F1442311F110926102109217
:100FE00060020E94EF06E0916002F0916102EE0F54
:100FF000FF1FE85DFE4F808191810E9462068DE5B2
:1010000091E0DF91CF911F910F910C946206DD2347
:1010100031F0CC2321F022E030E0411109C026E07C
:1010200030E006C0C11114C021E030E04423B9F320
:101030003093610220936002D4CF112371F0DD233D
:1010400071F3CC2361F324E030E0442341F3F0CF8B
:1010500023E030E04111E3CFEBCFD111E0CFC1115C
:10106000DECF25E030E04111DACFE2CFEF92FF9200
:101070000F931F93CF93DF93D82FF62E8EE00E940D
:101080002D0761E070E09B0102C0220F331FDA954B
:10109000E2F7E9018095909582239D23892BB1F099
:1010A00080E10E942D07BE01682B792BF11005C04D
:1010B000C095D095BE016823792380E1DF91CF915F
:1010C0001F910F91FF90EF900C94320586E00E94E3
:1010D0002D078C0188E00E942D07BE016095709558
:1010E000FF2061F07C01E622F722BE01602B712B0C
:1010F00086E00E943205B70188E0E0CFC82BD92BEB
:101100006023712386E00E943205BE01F5CFCF93A4
:10111000DF93EC016B836230D1F128F4613001F18F
:10112000DF91CF910895633009F443C06430C1F773
:101130008C819D8130E020E050E040E06981895B56
:101140009F4F0E9487058C819D8130E020E050E018
:1011500040E06A81895B9F4FDF91CF910C948705B6
:101160008C819D8130E020E050E040E06A81895B25
:101170009F4F0E948705488180E1489FA00111246C
:1011800069818C819D81DF91CF910C94BA058C810E
:101190009D8130E020E050E040E06981895B9F4F15
:1011A0000E948705488180E1489FA00111246A813F
:1011B000E8CF8C819D8130E020E040E050E1698102
:1011C000895B9F4F0E9487058C819D8130E020E0E4
:1011D00040E050E1BECFFC01608363810C9487083E
:1011E000CF93DF93C091D603D091D70368ECCE01A3
:1011F0000E94EB0862E0CE010E948708C091DA03EA
:10120000D091DB0368ECCE010E94EB0862E0CE01D6
:101210000E948708C091D403D091D50368ECCE0119
:101220000E94EB0862E0CE010E948708C091D803BB
:10123000D091D90368ECCE010E94EB0862E0CE01A8
:10124000DF91CF910C948708CF93DF93C091D603A1
:10125000D091D70368ECCE010E94EB0861E0CE018B
:101260000E948708C091DA03D091DB0368ECCE01BD
:101270000E94EB0862E0CE010E948708C091D4036F
:10128000D091D50368ECCE010E94EB0861E0CE015D
:101290000E948708C091D803D091D90368ECCE0191
:1012A0000E94EB0862E0CE01DF91CF910C94870899
:1012B000CF93DF93C091D603D091D70360E0CE01E6
:1012C0000E94EB0863E0CE010E948708C091DA0318
:1012D000D091DB0360E0CE010E94EB0863E0CE0119
:1012E0000E948708C091D403D091D50360E0CE015D
:1012F0000E94EB0863E0CE010E948708C091D803EA
:10130000D091D90360E0CE010E94EB0863E0CE01EA
:10131000DF91CF910C948708CF93DF93FC01EB0111
:1013200088E290E0099581E691E00E946206BE01A4
:10133000DD0F880B990B0E944702DF91CF910C942F
:1013400058090F931F93CF93C82F0091D603109184
:10135000D703682FC8010E94EB0861E0C8010E9412
:1013600087080091DA031091DB036C2FC8010E94FB
:10137000EB0861E0C8010E9487080091D403109136
:10138000D5036C2FC8010E94EB0863E0C8010E94DE
:1013900087080091D8031091D9036C2FC8010E94CF
:1013A000EB0863E0C801CF911F910F910C9487085F
:1013B000CF92DF92EF92FF920F931F93CF93DF9321
:1013C0008C01C091D603D091D703BC01990F880B33
:1013D000990B0E9438146B017C012DEC3CEC4CE81D
:1013E0005FE30E94C4140E940714CE010E94EB0820
:1013F00063E0CE010E948708C091DA03D091DB033D
:10140000602FCE010E94EB0863E0CE010E948708A6
:10141000C091D403D091D50323E333E343E35FE3E7
:10142000C701B6010E94C4140E940714CE010E9495
:10143000EB0861E0CE010E948708C091D803D091EB
:10144000D90326E636E646EA5FE3C701B6010E9405
:10145000C4140E940714CE010E94EB0861E0CE0183
:10146000DF91CF911F910F91FF90EF90DF90CF9080
:101470000C9487080F931F93CF93C82F0091D60326
:101480001091D703682FC8010E94EB0861E0C801E2
:101490000E9487080091DA031091DB036C2FC801CA
:1014A0000E94EB0861E0C8010E9487080091D40304
:1014B0001091D5036C2FC8010E94EB0861E0C801B0
:1014C0000E9487080091D8031091D9036C2FC8019E
:1014D0000E94EB0861E0C801CF911F910F910C941D
:1014E000870885ED8093BC008091B7029091B80287
:1014F000A091B902B091BA020796A11DB11D23E0D7
:10150000B695A795979587952A95D1F72091BC0018
:1015100024FD03C01092B50208954091B702509186
:10152000B8026091B9027091BA02452B462B472B45
:1015300069F30097A105B10541F025E32A95F1F77C
:1015400000000197A109B109E1CF8091B6020C9486
:10155000D7021F920F920FB60F9211242F933F9331
:101560004F935F936F937F938F939F93AF93BF93AB
:10157000EF93FF938FED92E00E941301FF91EF91A3
:10158000BF91AF919F918F917F916F915F914F919B
:101590003F912F910F900FBE0F901F9018951F92A3
:1015A0000F920FB60F9211242F938F939F93EF9367
:1015B000FF93E091EF02F091F0028081E091F5025B
:1015C000F091F60282FD1BC090818091F8028F5F3E
:1015D0008F732091F902821741F0E091F802F0E058
:1015E000E152FD4F958F8093F802FF91EF919F910B
:1015F0008F912F910F900FBE0F901F9018958081A3
:10160000F4CF1F920F920FB60F9211242F933F9396
:101610008F939F93AF93BF9380914A0290914B0217
:10162000A0914C02B0914D023091490223E0230F6A
:101630002D3758F50196A11DB11D209349028093C5
:101640004A0290934B02A0934C02B0934D028091BA
:101650004E0290914F02A0915002B091510201961A
:10166000A11DB11D80934E0290934F02A093500292
:10167000B0935102BF91AF919F918F913F912F9164
:101680000F900FBE0F901F90189526E8230F02961B
:10169000A11DB11DD2CF1F920F920FB60F92112430
:1016A0002F933F934F935F936F937F938F939F936A
:1016B000AF93BF93CF93EF93FF9399B1809148027B
:1016C000C0914502C923282F2095C22320914202B0
:1016D0008223292F20958223C82B90934802C4FF90
:1016E00005C0E0911801F09119010995C5FF05C0E9
:1016F000E0911A01F0911B010995C6FF05C0E09128
:101700001C01F0911D010995C7FF05C0E0911E0164
:10171000F0911F010995C0FF05C0E0912001F091F3
:1017200021010995C1FF05C0E0912201F09123013B
:101730000995C2FF05C0E0912401F09125010995AA
:10174000C3FF05C0E0912601F09127010995FF91A3
:10175000EF91CF91BF91AF919F918F917F916F91B9
:101760005F914F913F912F910F900FBE0F901F905F
:1017700018951F920F920FB60F9211242F933F933B
:101780004F935F936F937F938F939F93AF93BF9389
:10179000CF93EF93FF9396B180914702C09144029B
:1017A000C923282F2095C223209141028223292F6B
:1017B00020958223C82B90934702C0FF05C0E0917B
:1017C0000C01F0910D010995C1FF05C0E0910E01DA
:1017D000F0910F010995C2FF05C0E0911001F09151
:1017E00011010995C3FF05C0E0911201F0911301A9
:1017F0000995C4FF05C0E0911401F0911501099508
:10180000C5FF05C0E0911601F09117010995FF9100
:10181000EF91CF91BF91AF919F918F917F916F91F8
:101820005F914F913F912F910F900FBE0F901F909E
:1018300018951F920F920FB60F9211242F933F937A
:101840004F935F936F937F938F939F93AF93BF93C8
:10185000CF93EF93FF9393B180914602C0914302DF
:10186000C923282F2095C223209140028223292FAB
:1018700020958223C82B90934602C0FF05C0E091BB
:101880000001F09101010995C1FF05C0E09102013D
:10189000F09103010995C2FF05C0E0910401F091A8
:1018A00005010995C3FF05C0E0910601F09107010C
:1018B0000995C4FF05C0E0910801F091090109955F
:1018C000C5FF05C0E0910A01F0910B010995FF9158
:1018D000EF91CF91BF91AF919F918F917F916F9138
:1018E0005F914F913F912F910F900FBE0F901F90DE
:1018F00018951F920F920FB60F9211242F933F93BA
:101900004F935F936F937F938F939F93AF93BF9307
:10191000EF93FF938091B900887F803609F44AC025
:10192000F0F5883209F4A7C018F5803109F49BC09E
:10193000B8F4882309F4F9C0883009F494C0FF9101
:10194000EF91BF91AF919F918F917F916F915F9137
:101950004F913F912F910F900FBE0F901F901895B0
:10196000883109F488C0803251F78093B30214C0E3
:10197000803409F49DC040F48033B9F38833F9F61C
:101980008093B30285ECB0C0803509F485C08835FA
:1019900009F496C0883499F60E94710AD0CF88392C
:1019A00009F48CC038F5883729F050F4883611F0E6
:1019B000803729F683E08093B50210923F0257C02A
:1019C000883809F47BC0803919F0803809F0B7CF26
:1019D00080913F02803208F071C0E0913F0281E0C7
:1019E0008E0F80933F028091BB00F0E0E15EFD4FDF
:1019F00080833DC0803B39F0E0F4803A09F479C03F
:101A0000883A09F09CCF84E08093B50210921E02C0
:101A100010921D02E0916B02F0916C020995809189
:101A20001D0281110FC081E080931D021092FD0103
:101A300009C0803C09F4A6CF883C09F4A3CF883BB9
:101A400009F07DCFE0911E0281E08E0F80931E028F
:101A5000F0E0E350FE4F80818093BB0090911E0226
:101A600080911D0229C0809190028093BB0085EC7B
:101A70008093BC0064CF9091B2028091B10298171C
:101A800058F5E091B20281E08E0F8093B202F0E04F
:101A9000EF56FD4F8081E9CFE091B20281E08E0FD9
:101AA0008093B2028091BB00F0E0EF56FD4F80833F
:101AB0009091B2028091B1029817C8F285E8D8CF10
:101AC000E091B20281E08E0F8093B2028091BB0060
:101AD000F0E0EF56FD4F80838091B40281115CCF1E
:101AE00081E080938F0284EA8093BC001092B5025B
:101AF00026CF85EC8093BC001092B50280913F0206
:101B0000803230F4E0913F02F0E0E15EFD4F108260
:101B100060913F0270E0E0916902F0916A028FE10A
:101B200092E0099510923F020ACF1092B30234CF8F
:101B3000CF93DF9390E0FC01E255FF4F249186564E
:101B40009F4FFC0184918823C1F090E0880F991F7A
:101B5000FC01E057FF4FC591D491FC01EA57FF4FBC
:101B6000A591B4919FB7F8943881822F80958323F3
:101B70008883EC91E22BEC939FBFDF91CF91089586
:101B80008130F1F0B0F08230E9F0E82FF0E0E55973
:101B9000FF4F9081692B60839091680021E030E0D5
:101BA00001C0220F8A95EAF7892F822B8093680063
:101BB000089593B1E42FF0E0EA5BFD4F9083E5CF09
:101BC00096B1F8CF99B1F6CF883088F590E1980FAB
:101BD0002091450230914202863008F064C0843082
:101BE00008F047C07093F5016093F401805F2FE423
:101BF00036E0823109F064C030932501209324013E
:101C0000877061E070E001C0660F8A95EAF7809105
:101C10004502862B8093450280914202862B809359
:101C2000420242E082E00E94C00D81E008958A30C5
:101C3000C8F67093FB016093FA0188502DE336E0FB
:101C400009F04DC0309301012093000161E070E084
:101C500001C0660F8A95EAF780914302862B809334
:101C6000430280914002862B8093400240E080E056
:101C7000DACF7093F7016093F60149E456E09431AE
:101C800021F55093190140931801977061E070E0BD
:101C900001C0660F9A95EAF7262B20934502362B52
:101CA00030934202BECF7093F9016093F80143E490
:101CB00056E0963179F450931D0140931C01E5CF15
:101CC00030932701209326019BCF50931B01409313
:101CD0001A01DBCF50931F0140931E01D6CF3093E2
:101CE000030120930201B2CF0F931F93CF93DF9391
:101CF000EC01615019E008E051F017E006E06130B6
:101D000031F014E005E0623011F412E003E0802FBE
:101D10000E94980D812F0E94980D80EE90E199838A
:101D200088830A871B871D861E861F86188A8BE379
:101D30009FE10197F1F71C862A96BE01802F0E9431
:101D4000E40DBE01812FDF91CF911F910F910C9473
:101D5000E40D1092E2021092E10288EE93E0A0E01E
:101D6000B0E08093E3029093E402A093E502B09385
:101D7000E6022AE331E03093E0022093DF0225EC13
:101D800030E03093EC022093EB0224EC30E030930F
:101D9000EE022093ED0220EC30E03093F00220932D
:101DA000EF0221EC30E03093F2022093F10222ECBA
:101DB00030E03093F4022093F30226EC30E03093CD
:101DC000F6022093F5021092F8021092F902109296
:101DD000FA021092FB0210927F0310927E0380930E
:101DE000800390938103A0938203B09383038CE4D8
:101DF00091E090937D0380937C03E7EEF3E083E032
:101E000094E0158214821682128211821082379613
:101E10008E179F07B1F710920F04109212041092C0
:101E20000E0410920D0410922304109226041092B6
:101E3000220410922104ECE2F4E084E694E014829F
:101E4000138215821082168237968E179F07B9F774
:101E500080E68093E40380932B041092E0031092B9
:101E6000E1031092E2031092E3038091F4038111E5
:101E70000FC081E08093F40384EE93E09093F3032A
:101E80008093F2038AE08093EF038BE08093F0036A
:101E90008EEE93E09093DB038093DA03809102044B
:101EA00081110FC083E08093020484EE93E090934D
:101EB0000104809300048DE08093FD038CE0809307
:101EC000FE038CEF93E09093D9038093D803809125
:101ED000ED0381110CC084EE93E09093EC038093AA
:101EE000EB0388E08093E80389E08093E90387EEC1
:101EF00093E09093D7038093D6038091FB038111E5
:101F00000FC082E08093FB0384EE93E09093FA038A
:101F10008093F9038FE08093F6038EE08093F703BC
:101F200085EF93E09093D5038093D4038091380498
:101F3000811113C081E08093380424EE33E03093A4
:101F4000370420933604809333048091E503909105
:101F5000E603909335048093340483E394E09093F4
:101F6000D3038093D20380913F04811113C082E098
:101F700080933F0424EE33E030933E0420933D04ED
:101F800080933A048091E5039091E60390933C049A
:101F900080933B048AE394E09093D1038093D00331
:101FA00080914604811113C083E08093460424EE9F
:101FB00033E030934504209344048093410480919E
:101FC000E5039091E603909343048093420481E4F7
:101FD00094E09093CF038093CE0380914D048111C0
:101FE00013C084E080934D0424EE33E030934C041E
:101FF00020934B04809348048091E5039091E6037D
:1020000090934A048093490488E494E09093CD032C
:102010008093CC0361E08BEB93E00E94740E62E04E
:102020008AEA93E00E94740E63E089E993E00E94DB
:10203000740E64E088E893E00C94740E789484B590
:10204000826084BD84B5816084BD85B5826085BDB4
:1020500085B5816085BD80916E00816080936E0042
:102060001092810080918100826080938100809134
:1020700081008160809381008091800081608093E5
:1020800080008091B10084608093B1008091B000A5
:1020900081608093B00080917A00846080937A00A0
:1020A00080917A00826080937A0080917A008160CA
:1020B00080937A0080917A00806880937A001092F1
:1020C000C1000E94C0020E94C00260E080E00E9445
:1020D0006D0582E390E09093E6038093E5038091A1
:1020E0002B0491E09093BB028093DD021092BC021E
:1020F0001092DE0260E08CE793E00E94FE040E94F2
:10210000F80261E080912B040E94DF0310926E02BE
:1021100080936D028CE793E00E94BE04C82F682F65
:102120006F76606180E00E946D0567E88EEF0E9427
:102130006D056C2F80E00E946D0565E070E080E029
:1021400090E00E9447026C2F616A80E00E946D055A
:10215000C0E030E020E050E040E06C2F8BE294E003
:102160000E948705CF5FC031A1F7E091EF02F091A7
:10217000F00282E08083E091EB02F091EC021082A9
:10218000E091ED02F091EE028FEC80831092F70265
:10219000E091F302F091F40286E08083E091F10295
:1021A000F091F202808180618083E091F102F091F0
:1021B000F202808188608083E091F102F091F20266
:1021C000808180688083E091F102F091F202808149
:1021D0008F7D80838FE38093DC038FEF8093DF0319
:1021E0000E94C0028091DF038F3FC1F18FE10E9406
:1021F000010782FF05C0682F6B7F8FE10E945305A6
:10220000C091DF038EE00E942D0761E070E002C004
:10221000660F771FCA95E2F760957095682379235A
:102220008EE00E94320560E08091DF030E94360854
:1022300061E070E080E090E00E94470261E0809100
:10224000DF030E94360883E10E942D0781159F4F0E
:1022500071F08FE691E00E946206FFCF62E18DE7A8
:102260000E94530564E38DE70E945305ECCF60E4C0
:102270008EE10E94530580E894E8AEE1B0E08093DF
:10228000E0039093E103A093E203B093E3038FE1B3
:102290000E9401078F78682F60618FE10E945305CB
:1022A0008EE00E942D07BC0161608EE00E94320525
:1022B0008EE00E942D07BC0162608EE00E94320514
:1022C0008EE00E942D07BC0164608EE00E94320502
:1022D0008EE00E942D07BC0168608EE00E943205EE
:1022E0008EE00E942D07BC0160618EE00E943205E5
:1022F000C091D203D091D30340E050E060E87FE387
:10230000CE010E94CA051DE21E83C091D003D09168
:10231000D10340E050E060E87FE3CE010E94CA05AF
:102320001E83C091CE03D091CF0340E050E060EC1B
:102330007FE3CE010E94CA058AE58E83C091CC035B
:10234000D091CD0340E050E060E07FE3CE010E94F9
:10235000CA051E8268EE73E080E090E00E944702AA
:1023600010925C0210925D0210925E0210925F0267
:10237000109258021092590210925A0210925B0267
:102380008CE090E090935702809356028AE590E0AB
:102390009093550280935402809156029091570277
:1023A0004091540250915502880F991F880F991F30
:1023B000849F9001859F300D949F300D11243093A0
:1023C00053022093520200E010E068EE73E080E0D8
:1023D00090E00E94470260E971E080EF98E00E947F
:1023E0008C0960ED77E080E090E00E94470288E28F
:1023F00090E00E94D80968E978E080E090E00E94CF
:1024000047020E94580960ED77E080E090E00E946A
:10241000470260E971E080EF98E00E948C0960ED6E
:1024200077E080E090E00E94470286E891E00E9419
:10243000620688E290E00E943A0AD0E0C0E0C43030
:10244000D105A9F10E9483078091670290916802EB
:102450000397ACF380916602882301F188EC90E049
:102460000E94D80962E370E080E090E00E94470299
:1024700088E290E00E943A0A21968CE891E00E945E
:102480005506CE010E94EF06C430D105C1F264EFBB
:1024900071E080E090E00E944702D1CF809162021B
:1024A000882351F388EC90E00E94A109DBCF0E94C1
:1024B000580968EE73E080E090E00E94470260ED0A
:1024C00077E080E090E00E94470268EC70E080EFE7
:1024D00098E00E948C0960ED77E080E090E00E9437
:1024E00047020E948307C091D603D091D70368E2C8
:1024F000CE010E94EB0862E0CE010E948708C091E5
:10250000DA03D091DB0368E2CE010E94EB0861E0C0
:10251000CE010E948708C091D403D091D50368E210
:10252000CE010E94EB0862E0CE010E948708C091B4
:10253000D803D091D90368E2CE010E94EB0861E094
:10254000CE010E9487088091600290916102892BE0
:1025500041F60E94580960ED77E080E090E00E942B
:10256000470260ED77E080E090E00E94470260E97A
:1025700071E084E299E00E948C0960ED77E080E0F0
:1025800090E00E9447020E94830780916702909129
:1025900068020597A1F40E94580960E177E280E0A3
:1025A00090E00E9447020115110509F40ECF0E9428
:1025B000FF00882309F409CF0E94000006CF80E0C5
:1025C0000E94640791E0811101C090E0909366023F
:1025D00081E00E94640791E0811101C090E0909336
:1025E000650282E00E94640791E0811101C090E0E1
:1025F0009093640283E00E94640791E0811101C01E
:1026000090E09093630284E00E94640791E081115E
:1026100001C090E09093620281E991E00E9455062A
:102620006091620270E090E080E00E947406609128
:10263000630270E090E080E00E94740660916402A2
:1026400070E090E080E00E9474066091650270E0A6
:1026500090E080E00E9474068091660290E00E9403
:10266000EF068091640281110DC088E290E00E9423
:102670003A0A89EA91E00E94620664E170E080E033
:1026800090E07FCF80916302811107C08EE190E0DE
:102690000E94D80981EB91E0EECF80916502811113
:1026A00007C08EE190E00E94A10987EB91E0E3CFA3
:1026B00080916202811107C08CE390E00E94D809EA
:1026C0008EEB91E0D8CF80916602811107C08CE338
:1026D00090E00E94A10984EC91E0CDCF88E290E0E7
:1026E0000E943A0ACACFA1E21A2EAA1BBB1BFD0107
:1026F0000DC0AA1FBB1FEE1FFF1FA217B307E407E1
:10270000F50720F0A21BB30BE40BF50B661F771F38
:10271000881F991F1A9469F7609570958095909518
:102720009B01AC01BD01CF0108950E94A9130C9437
:102730008A140E94831458F00E947C1440F029F4FB
:102740005F3F29F00C94731451110C94BE140C9437
:1027500079140E949B1468F39923B1F3552391F3E4
:10276000951B550BBB27AA2762177307840738F000
:102770009F5F5F4F220F331F441FAA1FA9F335D05D
:102780000E2E3AF0E0E832D091505040E695001C11
:10279000CAF72BD0FE2F29D0660F771F881FBB1FCB
:1027A000261737074807AB07B0E809F0BB0B802DA9
:1027B000BF01FF2793585F4F3AF09E3F510578F0D5
:1027C0000C9473140C94BE145F3FE4F3983ED4F35E
:1027D000869577956795B795F7959F5FC9F7880FA9
:1027E000911D9695879597F90895E1E0660F771FFB
:1027F000881FBB1F621773078407BA0720F0621B8C
:10280000730B840BBA0BEE1F88F7E09508950E94B6
:10281000A31488F09F5798F0B92F9927B751B0F0BB
:10282000E1F0660F771F881F991F1AF0BA95C9F754
:1028300014C0B13091F00E94BD14B1E008950C9421
:10284000BD14672F782F8827B85F39F0B93FCCF3D4
:10285000869577956795B395D9F73EF490958095D1
:10286000709561957F4F8F4F9F4F0895E89409C0F1
:1028700097FB3EF490958095709561957F4F8F4FB3
:102880009F4F9923A9F0F92F96E9BB279395F695C9
:10289000879577956795B795F111F8CFFAF4BB0F47
:1028A00011F460FF1BC06F5F7F4F8F4F9F4F16C0AB
:1028B000882311F096E911C0772321F09EE8872F35
:1028C000762F05C0662371F096E8862F70E060E0F1
:1028D0002AF09A95660F771F881FDAF7880F96956A
:1028E000879597F9089597F99F6780E870E060E011
:1028F00008959FEF80EC089500240A941616170699
:1029000018060906089500240A94121613061406E0
:1029100005060895092E0394000C11F4882352F043
:10292000BB0F40F4BF2B11F460FF04C06F5F7F4FFB
:102930008F4F9F4F089557FD9058440F551F59F0E2
:102940005F3F71F04795880F97FB991F61F09F3F9C
:1029500079F087950895121613061406551FF2CFC5
:102960004695F1DF08C0161617061806991FF1CF15
:1029700086957105610508940895E894BB2766273C
:102980007727CB0197F908950E94D7140C948A14E5
:102990000E947C1438F00E94831420F0952311F0DB
:1029A0000C9473140C94791411240C94BE140E948A
:1029B0009B1470F3959FC1F3950F50E0551F629FD4
:1029C000F001729FBB27F00DB11D639FAA27F00D88
:1029D000B11DAA1F649F6627B00DA11D661F829FAF
:1029E0002227B00DA11D621F739FB00DA11D621F94
:1029F000839FA00D611D221F749F3327A00D611DB1
:102A0000231F849F600D211D822F762F6A2F112492
:102A10009F5750409AF0F1F088234AF0EE0FFF1FC5
:102A2000BB1F661F771F881F91505040A9F79E3F1C
:102A3000510580F00C9473140C94BE145F3FE4F3C2
:102A4000983ED4F3869577956795B795F795E79572
:102A50009F5FC1F7FE2B880F911D9695879597F97B
:102A60000895EE0FFF1F0590F491E02D0994F8945E
:102A7000FFCF7A027A027A027A027A027A027A0224
:102A80007A027A027A027A027A027A027A027A0266
:102A90007A027A027A027A027A025D01CB01D101CE
:102AA000D801DE01E501E9010000000035019500D3
:102AB000C2008201F300D100E50000000000FE0426
:102AC000D104E505AE048C00BE04AF040D0A004D30
:102AD000494400494D2052554E4E494E472121212F
:102AE000004661696C656420746F20636F6D6D755D
:102AF0006E69636174652E00546573742100636EA2
:102B0000743D00534F2C53312C53322C53332C53E0
:102B100034207374617475733A2000666F72776144
:102B20007264006C656674310072696768743100A4
:102B30006C6566743200726967687432004C454691
:102B4000543100524947485431004C4546543200F4
:102B500052494748543200414C4C00554E4445546C
:062B60004543544544000A
:107E0000112484B714BE81FFF0D085E080938100F7
:107E100082E08093C00088E18093C10086E0809377
:107E2000C20080E18093C4008EE0C9D0259A86E02C
:107E300020E33CEF91E0309385002093840096BBD3
:107E4000B09BFECF1D9AA8958150A9F7CC24DD24C4
:107E500088248394B5E0AB2EA1E19A2EF3E0BF2EE7
:107E6000A2D0813461F49FD0082FAFD0023811F036
:107E7000013811F484E001C083E08DD089C08234E0
:107E800011F484E103C0853419F485E0A6D080C0E4
:107E9000853579F488D0E82EFF2485D0082F10E0AE
:107EA000102F00270E291F29000F111F8ED06801E7
:107EB0006FC0863521F484E090D080E0DECF843638
:107EC00009F040C070D06FD0082F6DD080E0C81688
:107ED00080E7D80618F4F601B7BEE895C0E0D1E017
:107EE00062D089930C17E1F7F0E0CF16F0E7DF06D8
:107EF00018F0F601B7BEE89568D007B600FCFDCFD4
:107F0000A601A0E0B1E02C9130E011968C91119780
:107F100090E0982F8827822B932B1296FA010C0160
:107F200087BEE89511244E5F5F4FF1E0A038BF0790
:107F300051F7F601A7BEE89507B600FCFDCF97BE46
:107F4000E89526C08437B1F42ED02DD0F82E2BD052
:107F50003CD0F601EF2C8F010F5F1F4F84911BD097
:107F6000EA94F801C1F70894C11CD11CFA94CF0C13
:107F7000D11C0EC0853739F428D08EE10CD085E9AC
:107F80000AD08FE07ACF813511F488E018D01DD067
:107F900080E101D065CF982F8091C00085FFFCCF94
:107FA0009093C60008958091C00087FFFCCF809118
:107FB000C00084FD01C0A8958091C6000895E0E648
:107FC000F0E098E1908380830895EDDF803219F02E
:107FD00088E0F5DFFFCF84E1DECF1F93182FE3DFCA
:107FE0001150E9F7F2DF1F91089580E0E8DFEE27F6
:047FF000FF270994CA
:027FFE00040479
:00000001FF
