:020000040000FA
:100000000C9462000C948A000C948A000C94610C8D
:100010000C94010C0C94930B0C948A000C948A00A1
:100020000C948A000C948A000C948A000C948A0028
:100030000C948A000C948A000C948A000C948A0018
:100040000C94490B0C948A000C94170B0C94F10A35
:100050000C948A000C948A000C948A000C948A00F8
:100060000C94C10C0C948A000000000023002600B0
:10007000290000000008000201000003040700003E
:1000800000000000000000000000250028002B00F8
:1000900000000000240027002A00040404040404D3
:1000A0000404020202020202030303030303010227
:1000B00004081020408001020408102001020408F6
:1000C0001020F10E11241FBECFEFD8E0DEBFCDBF50
:1000D00011E0A0E0B1E0E4EAFBE202C005900D927D
:1000E000A43FB107D9F724E0A4EFB1E001C01D920D
:1000F000A436B207E1F710E0C2E6D0E004C02197D1
:10010000FE010E94CA15C136D107C9F70E946610C8
:100110000C94D0150C94000080916D0290916E02A9
:10012000891B990B089508950895AF92BF92CF92BD
:10013000DF92EF92FF920F931F93CF93DF936C01A7
:100140007B018B01040F151FEB015E01AE18BF0888
:10015000C017D10759F06991D601ED91FC9101903A
:10016000F081E02DC6010995892B79F7C501DF9152
:10017000CF911F910F91FF90EF90DF90CF90BF90A4
:10018000AF900895FC01538D448D252F30E0842FCE
:1001900090E0821B930B541710F0CF9608950197AF
:1001A0000895FC01918D828D981761F0A28DAE0F9C
:1001B000BF2FB11D5D968C91928D9F5F9F73928F23
:1001C00090E008958FEF9FEF0895FC01918D828D4F
:1001D000981731F0828DE80FF11D858D90E008951C
:1001E0008FEF9FEF0895FC01918D228D892F90E074
:1001F000805C9F4F821B91098F73992708958FED23
:1002000092E00E94F30021E0892B09F420E0822F84
:10021000089580E090E0892B29F00E94FF00811171
:100220000C9400000895FC01A48DA80FB92FB11DF6
:10023000A35ABF4F2C91848D90E001968F7399271C
:10024000848FA689B7892C93A089B1898C918370FA
:1002500080648C93938D848D981306C00288F389F3
:10026000E02D80818F7D80830895EF92FF920F9320
:100270001F93CF93DF93EC0181E0888F9B8D8C8D52
:1002800098131AC0E889F989808185FF15C09FB746
:10029000F894EE89FF896083E889F9898081837009
:1002A000806480839FBF81E090E0DF91CF911F91B8
:1002B0000F91FF90EF900895F62E0B8D10E00F5FD9
:1002C0001F4F0F731127E02E8C8D8E110CC00FB6AF
:1002D00007FCFACFE889F989808185FFF5CFCE0147
:1002E0000E941301F1CFEB8DEC0FFD2FF11DE35AAE
:1002F000FF4FF0829FB7F8940B8FEA89FB898081CA
:100300008062CFCFCF93DF93EC01888D8823B9F043
:10031000AA89BB89E889F9898C9185FD03C0808110
:1003200086FD0DC00FB607FCF7CF8C9185FFF2CF8D
:10033000808185FFEDCFCE010E941301E9CFDF91CF
:10034000CF910895833081F028F4813099F0823084
:10035000A9F008958730A9F08830C9F08430B1F44D
:10036000809180008F7D03C0809180008F77809383
:100370008000089584B58F7784BD089584B58F7DFE
:10038000FBCF8091B0008F778093B000089580916B
:10039000B0008F7DF9CFCF93DF93282F30E0F901A4
:1003A000EE58FF4F8491F901E255FF4FD491F901C6
:1003B000E656FF4FC491CC23A1F081110E94A20107
:1003C000EC2FF0E0EE0FFF1FE859FF4FA591B4911D
:1003D000EC91ED2381E090E009F480E0DF91CF9192
:1003E000089580E090E0FACF1F93CF93DF93282FFA
:1003F00030E0F901EE58FF4F8491F901E255FF4FCB
:10040000D491F901E656FF4FC491CC23A9F0162FE1
:1004100081110E94A201EC2FF0E0EE0FFF1FEA57BE
:10042000FF4FA591B4918FB7F894EC91111108C0CA
:10043000D095DE23DC938FBFDF91CF911F9108957C
:10044000DE2BF8CF3FB7F89480915C0290915D026B
:10045000A0915E02B0915F0226B5A89B05C02F3F18
:1004600019F00196A11DB11D3FBFBA2FA92F982FDA
:100470008827BC01CD01620F711D811D911D42E0D5
:10048000660F771F881F991F4A95D1F708958F929D
:100490009F92AF92BF92CF92DF92EF92FF926B0149
:1004A0007C010E9422024B015C01C114D104E104D1
:1004B000F104B9F00E942202681979098A099B099E
:1004C000683E73408105910580F321E0C21AD1088E
:1004D000E108F10888EE880E83E0981EA11CB11C8B
:1004E000E4CFFF90EF90DF90CF90BF90AF909F90C0
:1004F0008F900895089520912B02260F3327331FE4
:1005000021323105ECF42091B502FC0190E080E04D
:10051000243069F082E00895A0912B022191AC0172
:10052000455F5D4FA40FB52FB11D2C930196861723
:1005300098F380912B02680F60932B0280E008955E
:1005400081E008951092B50281E08093B402109288
:100550008F0261E082E10E94F40161E083E10E9488
:10056000F401E9EBF0E080818E7F808380818D7FD4
:10057000808388E48093B80085E48093BC0008956C
:1005800010926E0210926D021092BC021092DE0266
:100590000E94A20283E990E090936C0280936B0228
:1005A00084E990E090936A02809369020895CF9362
:1005B000DF9391E090930A028823B9F0C091B800CC
:1005C000D091BA008091BC008A7B8093BC0060E02F
:1005D00082E10E94F40160E083E10E94F4010E9444
:1005E000A202D093BA00C093B800DF91CF910895D2
:1005F000CF92DF92EF92FF920F931F93CF93DF93EF
:10060000D091DE0281E0D13208F09CC0C091DD02C1
:100610000E9422026B017C018091B50281116CC0A5
:1006200082E08093B50281E08093B4028FEF8093E3
:10063000B3021092B202D093B102ADEBB2E0E1E9A5
:10064000F2E080E0D8138DC0109290028091900269
:10065000CC0FC82BC093900280918F02813009F09B
:1006600084C010928F020E9422026B017C01809153
:1006700090028093BB008091B7029091B802A09144
:10068000B902B091BA02892B8A2B8B2BA1F00E9460
:1006900022020091B7021091B8022091B902309164
:1006A000BA026C197D098E099F09061717072807DA
:1006B000390708F442C08091BC0083FDD8CF85EC97
:1006C0008093BC000E9422026B017C018091B502E4
:1006D000823009F44CC08091B3028F3F09F469C0A5
:1006E0008091B302803209F466C08091B3028033F6
:1006F00009F463C084E026C08091B7029091B802EB
:10070000A091B902B091BA02892B8A2B8B2B09F4E4
:1007100083CF0E9422020091B7021091B80220916B
:10072000B9023091BA026C197D098E099F0906172A
:1007300017072807390708F06FCF8091B6020E948B
:10074000D70285E01092BC021092DE021092BB022A
:10075000DF91CF911F910F91FF90EF90DF90CF909D
:1007600008959D9191938F5F6DCF85EEA9CF809174
:10077000B7029091B802A091B902B091BA02892B48
:100780008A2B8B2B09F4A2CF0E9422020091B70280
:100790001091B8022091B9023091BA026C197D090A
:1007A0008E099F09061717072807390708F08ECF0B
:1007B000C4CF80E0C7CF82E0C5CF83E0C3CFCF9264
:1007C000DF92EF92FF920F931F93CF93DF93D82F77
:1007D000C62F613208F098C00E9422026B017C0192
:1007E0008091B50281116BC081E08093B502809346
:1007F000B4029FEF9093B3021092B2029C0F9093B9
:10080000B1028093900280919002DD0FD82BD0939B
:10081000900280918F02813009F078C010928F028F
:100820000E9422026B017C01809190028093BB00A8
:100830008091B7029091B802A091B902B091BA022A
:10084000892B8A2B8B2BA1F00E9422020091B702E8
:100850001091B8022091B9023091BA026C197D0949
:100860008E099F09061717072807390708F448C09B
:100870008091BC0083FDD8CF85EC8093BC000E94A2
:1008800022026B017C018091B502813009F440C0E5
:100890008091B2028C1710F4C091B202E1E9F2E04B
:1008A000AFE6B2E080E08C1355C08C2FDF91CF9182
:1008B0001F910F91FF90EF90DF90CF90089580915E
:1008C000B7029091B802A091B902B091BA02892BF7
:1008D0008A2B8B2B09F484CF0E9422020091B7024D
:1008E0001091B8022091B9023091BA026C197D09B9
:1008F0008E099F09061717072807390708F070CFD8
:100900008091B6020E94D702C0E0CFCF85EEB5CF6E
:100910008091B7029091B802A091B902B091BA0249
:10092000892B8A2B8B2B09F4AECF0E9422020091D7
:10093000B7021091B8022091B9023091BA026C1935
:100940007D098E099F09061717072807390708F040
:100950009ACFD6CF91919D938F5FA5CF0895E091C7
:100960006E0280916D02E81730F4F0E0E159FD4F1E
:10097000808190E008958FEF9FEF089590916E022F
:1009800080916D022FEF3FEF981748F4E92FF0E0C8
:10099000E159FD4F208130E09F5F90936E02C901C5
:1009A0000895CF92DF92EF92FF920F931F93CF9310
:1009B000DF937C01CB018A012091BB02222389F0C5
:1009C000EB016B01C40ED51ECC15DD0569F06991F4
:1009D000D701ED91FC910190F081E02DC7010995BF
:1009E000F3CF642F0E947B02C801DF91CF911F914A
:1009F0000F91FF90EF90DF90CF900895CF93DF930A
:100A00001F92CDB7DEB769832091BB022223F9F094
:100A10002091DE02203258F021E030E0FC013383E7
:100A2000228390E080E00F90DF91CF910895809134
:100A3000BC02E82FF0E0E354FD4F998190838F5F73
:100A40008093BC028093DE0281E090E0ECCF61E015
:100A5000CE0101960E947B02F7CF682F8CE793E0CE
:100A60000C94FE04CF93DF93EB019091DC0321E023
:100A70002093BB029093DD021092BC021092DE0222
:100A8000682F8CE793E00E94FE046D2F8CE793E0C3
:100A90000E94FE046C2F8CE793E00E94FE04DF911D
:100AA000CF910C94F802CF93C62F9091DC0321E0F4
:100AB0002093BB029093DD021092BC021092DE02E2
:100AC000682F8CE793E00E94FE046C2F8CE793E084
:100AD0000E94FE04CF910C94F802CF93C62F909100
:100AE0002B0421E02093BB029093DD021092BC0204
:100AF0001092DE02682F8CE793E00E94FE046C2FB8
:100B00008CE793E00E94FE04CF910C94F8020F93BF
:100B10001F93CF93DF93042FD52F122FC32FFC01E8
:100B2000808191E09093BB028093DD021092BC0221
:100B30001092DE02F4E06F9FB00111246A5F7F4FD4
:100B40008CE793E00E94FE04802F9D2F0E942D05CC
:100B50008D2F90E00E942D05812F9C2F0E942D0546
:100B60008C2F90E00E942D05DF91CF911F910F9166
:100B70000C94F8029A01895B9F4F211540E13407DC
:100B800030F030E020E040E050E10C94870550E088
:100B900040E0FBCF1F93CF93DF93EC01162F70E063
:100BA00090E080E00E94D11420E030E044EB52E479
:100BB0000E942E1420E030E040E05FE30E94C21368
:100BC00020E030E04AE754E40E945D1520E030E484
:100BD0004CE950E40E942E140E94A014AB016881DD
:100BE0008B819C810E94BA051E83DF91CF911F915A
:100BF000089590E080E008956DE28091D203909195
:100C0000D3030E94CA056AE58091CE039091CF0379
:100C10000E94CA056AE58091CC039091CD030E94A1
:100C2000CA0564EF71E080E090E00E9447026DE247
:100C30008091D0039091D1030C94CA051F93CF9358
:100C4000DF93EC0188810E94CB01182F89810E94DB
:100C5000CB01EA81E3701111E4608111E8608E2F0D
:100C600090E095958795959587958A83E150EE302C
:100C7000F0F4F0E0E25CF94F0C94CA154C065B0608
:100C800063065B0657066B064C064C066B0657065A
:100C90005B0663065B064C068B819C81AD81BE8141
:100CA0000196A11DB11D8B839C83AD83BE83DF9113
:100CB000CF911F9108958B819C81AD81BE81019759
:100CC000A109B109F0CF8B819C81AD81BE810296D3
:100CD000A11DB11DE8CF8B819C81AD81BE810297A2
:100CE000A109B109E0CF80910802909109020C940A
:100CF0001E0680910602909107020C941E068091B8
:100D00000402909105020C941E06809102029091BB
:100D100003020C941E06FC0101900020E9F73197B4
:100D2000AF01481B590BBC018FED92E00C9495006C
:100D3000CF93DF93D0E0C0E0009719F00E948B06BC
:100D4000EC018AE591E00E948B068C0F9D1FDF91DC
:100D5000CF9108958F929F92AF92BF92CF92DF92E0
:100D6000EF92FF920F931F93CF93DF93CDB7DEB730
:100D7000A1970FB6F894DEBF0FBECDBF6B017C010B
:100D8000F7FE41C06DE28FED92E00E9435018C01CB
:100D900022273327A9012C193D094E095F0919A201
:100DA000CE0181967C019AE0892E912CA12CB12C48
:100DB000CA01B901A50194010E949F13605DF7016A
:100DC00062937F01211531054105510589F790E0B6
:100DD00080E0309719F0CF010E948B06800F911FA1
:100DE000A1960FB6F894DEBF0FBECDBFDF91CF91B5
:100DF0001F910F91FF90EF90DF90CF90BF90AF9039
:100E00009F908F900895AC019B0119A28E010F5DF8
:100E10001F4F8AE0C82ED12CE12CF12CCA01B90158
:100E2000A70196010E949F13605DF80162938F01F4
:100E3000211531054105510589F790E080E0309793
:100E400079F2CF010E948B06CBCFCF93DF93BC0109
:100E5000990F880B990B0E94AA06EC018AE591E094
:100E60000E948B068C0F9D1FDF91CF910895CF9329
:100E70009091DC0321E02093BB029093DD0210925D
:100E8000BC021092DE02682F8CE793E00E94FE0401
:100E90000E94F80262E08091DC030E94DF03282FA9
:100EA00010926E0280936D0280ED97E0223020F464
:100EB000009791F00197FACF009771F08CE793E0DB
:100EC0000E94BE04C82F8CE793E00E94BE0420E07D
:100ED0003C2FA901482BCA01CF9108951F93CF93AE
:100EE000DF93182F8EE00E943707C1E0D0E002C0E8
:100EF000CC0FDD1F1A95E2F78C239D23892B41F03F
:100F000080E10E943707C823D92381E0CD2B09F463
:100F100080E0DF91CF911F9108950F931F93CF939E
:100F2000DF9380E00E946E07082F81E0011101C06D
:100F300080E08093660281E00E946E07182F81E0B6
:100F4000111101C080E08093640282E00E946E076C
:100F5000D82F81E0D11101C080E08093630283E04B
:100F60000E946E07C82F81E0C11101C080E080930C
:100F7000620284E00E946E07482F81E0411101C0A7
:100F800080E08093650221E030E0002311F030E042
:100F900020E081E090E0112311F090E080E0280F44
:100FA000391F81E090E0DD2311F090E080E0280F10
:100FB000391F81E090E0CC2311F090E080E0280F11
:100FC000391F81E090E0442311F090E080E0820F2F
:100FD000931F90936802809367020023C1F111234D
:100FE00001F1D11129C0CC2321F1442311F1109238
:100FF0006102109260020E942507E0916002F09168
:101000006102EE0FFF1FE85DFE4F808191810E941B
:1010100098068DE591E0DF91CF911F910F910C948F
:101020009806DD2331F0CC2321F022E030E041119D
:1010300009C026E030E006C0C11114C021E030E054
:101040004423B9F33093610220936002D4CF11237B
:1010500071F0DD2371F3CC2361F324E030E044230D
:1010600041F3F0CF23E030E04111E3CFEBCFD111DA
:10107000E0CFC111DECF25E030E04111DACFE2CF81
:10108000EF92FF920F931F93CF93DF93D82FF62EFB
:101090008EE00E94370761E070E09B0102C0220FE2
:1010A000331FDA95E2F7E9018095909582239D231D
:1010B000892BB1F080E10E943707BE01682B792BA4
:1010C000F11005C0C095D095BE016823792380E159
:1010D000DF91CF911F910F91FF90EF900C9432050B
:1010E00086E00E9437078C0188E00E943707BE0126
:1010F00060957095FF2061F07C01E622F722BE0129
:10110000602B712B86E00E943205B70188E0E0CFAA
:10111000C82BD92B6023712386E00E943205BE01C3
:10112000F5CF9091DC0321E02093BB029093DD0288
:101130001092BC021092DE02682F8CE793E00E94AE
:10114000FE040E94F80261E08091DC030E94DF034C
:1011500010926E0280936D0228EE33E0811106C07A
:101160002115310541F021503109FACF8CE793E088
:101170000E94BE04089580E00895CF93DF93EC01B0
:101180006B836230D1F128F4613001F1DF91CF91AE
:101190000895633009F443C06430C1F78C819D81A8
:1011A00030E020E050E040E06981895B9F4F0E9481
:1011B00087058C819D8130E020E050E040E06A812D
:1011C000895B9F4FDF91CF910C9487058C819D8126
:1011D00030E020E050E040E06A81895B9F4F0E9450
:1011E0008705488180E1489FA001112469818C8195
:1011F0009D81DF91CF910C94BA058C819D8130E067
:1012000020E050E040E06981895B9F4F0E948705A4
:10121000488180E1489FA00111246A81E8CF8C8138
:101220009D8130E020E040E050E16981895B9F4F83
:101230000E9487058C819D8130E020E040E050E1F4
:10124000BECFFC01608363810C94BD08CF93DF9314
:10125000C091D603D091D70368ECCE010E9421093A
:1012600062E0CE010E94BD08C091DA03D091DB0399
:1012700068ECCE010E94210962E0CE010E94BD0807
:10128000C091D403D091D50368ECCE010E9421090E
:1012900062E0CE010E94BD08C091D803D091D9036D
:1012A00068ECCE010E94210962E0CE01DF91CF916E
:1012B0000C94BD08CF93DF93C091D603D091D70390
:1012C00060E0CE010E94210963E0CE010E94BD08CA
:1012D000C091DA03D091DB0360E0CE010E942109C6
:1012E00063E0CE010E94BD08C091D403D091D50324
:1012F00060E0CE010E94210963E0CE010E94BD089A
:10130000C091D803D091D90360E0CE010E94210999
:1013100063E0CE01DF91CF910C94BD08CF93DF93B2
:10132000EC0188E290E00E94260981E691E00E94AB
:101330009806BE01DD0F880B990B0E944702DF91D2
:10134000CF910C945A090F931F93CF93DF93EC0125
:101350000091D6031091D703682FC8010E9421097C
:1013600062E0C8010E94BD080091DA031091DB031E
:101370006C2FC8010E94210961E0C8010E94BD08CC
:101380000091D4031091D503BE01DD0F880B990B9A
:101390000E94D1142AE939E949E55FE30E945D150D
:1013A0000E94A014C8010E94210962E0C8010E94A5
:1013B000BD080091D8031091D9036C2FC8010E9479
:1013C000210961E0C801DF91CF911F910F910C9429
:1013D000BD080F931F93CF93C82F0091D603109190
:1013E000D703682FC8010E94210961E0C8010E944B
:1013F000BD080091DA031091DB036C2FC8010E9435
:10140000210961E0C8010E94BD080091D403109138
:10141000D5036C2FC8010E94210963E0C8010E9416
:10142000BD080091D8031091D9036C2FC8010E9408
:10143000210963E0C801CF911F910F910C94BD0861
:10144000CF92DF92EF92FF920F931F93CF93DF9390
:101450008C01C091D603D091D703BC01990F880BA2
:10146000990B0E94D1146B017C012DEC3CEC4CE8F3
:101470005FE30E945D150E94A014CE010E94210925
:1014800063E0CE010E94BD08C091DA03D091DB0376
:10149000602FCE010E94210963E0CE010E94BD08A9
:1014A000C091D403D091D50323E333E343E35FE357
:1014B000C701B6010E945D150E94A014CE010E94D2
:1014C000210961E0CE010E94BD08C091D803D091EE
:1014D000D90326E636E646EA5FE3C701B6010E9475
:1014E0005D150E94A014CE010E94210961E0CE0189
:1014F000DF91CF911F910F91FF90EF90DF90CF90F0
:101500000C94BD080F931F93CF93C82F0091D6035F
:101510001091D703682FC8010E94210961E0C8011A
:101520000E94BD080091DA031091DB036C2FC80103
:101530000E94210961E0C8010E94BD080091D40306
:101540001091D5036C2FC8010E94210961E0C801E8
:101550000E94BD080091D8031091D9036C2FC801D7
:101560000E94210961E0C801CF911F910F910C9455
:10157000BD0885ED8093BC008091B7029091B802C0
:10158000A091B902B091BA020796A11DB11D23E046
:10159000B695A795979587952A95D1F72091BC0088
:1015A00024FD03C01092B50208954091B7025091F6
:1015B000B8026091B9027091BA02452B462B472BB5
:1015C00069F30097A105B10541F025E32A95F1F7EC
:1015D00000000197A109B109E1CF8091B6020C94F6
:1015E000D7021F920F920FB60F9211242F933F93A1
:1015F0004F935F936F937F938F939F93AF93BF931B
:10160000EF93FF938FED92E00E941301FF91EF9112
:10161000BF91AF919F918F917F916F915F914F910A
:101620003F912F910F900FBE0F901F9018951F9212
:101630000F920FB60F9211242F938F939F93EF93D6
:10164000FF93E091EF02F091F0028081E091F502CA
:10165000F091F60282FD1BC090818091F8028F5FAD
:101660008F732091F902821741F0E091F802F0E0C7
:10167000E152FD4F958F8093F802FF91EF919F917A
:101680008F912F910F900FBE0F901F901895808112
:10169000F4CF1F920F920FB60F9211242F933F9306
:1016A0008F939F93AF93BF9380915802909159026B
:1016B000A0915A02B0915B023091570223E0230FB0
:1016C0002D3758F50196A11DB11D20935702809327
:1016D000580290935902A0935A02B0935B028091F2
:1016E0005C0290915D02A0915E02B0915F02019652
:1016F000A11DB11D80935C0290935D02A0935E02D8
:10170000B0935F02BF91AF919F918F913F912F91C5
:101710000F900FBE0F901F90189526E8230F02968A
:10172000A11DB11DD2CF1F920F920FB60F9211249F
:101730002F933F934F935F936F937F938F939F93D9
:10174000AF93BF93CF93EF93FF9399B180915602DC
:10175000C0915302C923282F2095C2232091500203
:101760008223292F20958223C82B90935602C4FFF1
:1017700005C0E0911801F09119010995C5FF05C058
:10178000E0911A01F0911B010995C6FF05C0E09197
:101790001C01F0911D010995C7FF05C0E0911E01D4
:1017A000F0911F010995C0FF05C0E0912001F09163
:1017B00021010995C1FF05C0E0912201F0912301AB
:1017C0000995C2FF05C0E0912401F091250109951A
:1017D000C3FF05C0E0912601F09127010995FF9113
:1017E000EF91CF91BF91AF919F918F917F916F9129
:1017F0005F914F913F912F910F900FBE0F901F90CF
:1018000018951F920F920FB60F9211242F933F93AA
:101810004F935F936F937F938F939F93AF93BF93F8
:10182000CF93EF93FF9396B180915502C0915202EE
:10183000C923282F2095C22320914F028223292FCC
:1018400020958223C82B90935502C0FF05C0E091DC
:101850000C01F0910D010995C1FF05C0E0910E0149
:10186000F0910F010995C2FF05C0E0911001F091C0
:1018700011010995C3FF05C0E0911201F091130118
:101880000995C4FF05C0E0911401F0911501099577
:10189000C5FF05C0E0911601F09117010995FF9170
:1018A000EF91CF91BF91AF919F918F917F916F9168
:1018B0005F914F913F912F910F900FBE0F901F900E
:1018C00018951F920F920FB60F9211242F933F93EA
:1018D0004F935F936F937F938F939F93AF93BF9338
:1018E000CF93EF93FF9393B180915402C091510233
:1018F000C923282F2095C22320914E028223292F0D
:1019000020958223C82B90935402C0FF05C0E0911C
:101910000001F09101010995C1FF05C0E0910201AC
:10192000F09103010995C2FF05C0E0910401F09117
:1019300005010995C3FF05C0E0910601F09107017B
:101940000995C4FF05C0E0910801F09109010995CE
:10195000C5FF05C0E0910A01F0910B010995FF91C7
:10196000EF91CF91BF91AF919F918F917F916F91A7
:101970005F914F913F912F910F900FBE0F901F904D
:1019800018951F920F920FB60F9211242F933F9329
:101990004F935F936F937F938F939F93AF93BF9377
:1019A000EF93FF938091B900887F803609F44AC095
:1019B000F0F5883209F4A7C018F5803109F49BC00E
:1019C000B8F4882309F4F9C0883009F494C0FF9171
:1019D000EF91BF91AF919F918F917F916F915F91A7
:1019E0004F913F912F910F900FBE0F901F90189520
:1019F000883109F488C0803251F78093B30214C053
:101A0000803409F49DC040F48033B9F38833F9F68B
:101A10008093B30285ECB0C0803509F485C0883569
:101A200009F496C0883499F60E94B90AD0CF883953
:101A300009F48CC038F5883729F050F4883611F055
:101A4000803729F683E08093B50210924D0257C08B
:101A5000883809F47BC0803919F0803809F0B7CF95
:101A600080914D02803208F071C0E0914D0281E01A
:101A70008E0F80934D028091BB00F0E0E35DFD4F3F
:101A800080833DC0803B39F0E0F4803A09F479C0AE
:101A9000883A09F09CCF84E08093B50210922C0222
:101AA00010922B02E0916B02F0916C0209958091EB
:101AB0002B0281110FC081E080932B0210920B0248
:101AC00009C0803C09F4A6CF883C09F4A3CF883B29
:101AD00009F07DCFE0912C0281E08E0F80932C02E3
:101AE000F0E0E55FFD4F80818093BB0090912C0278
:101AF00080912B0229C0809190028093BB0085ECDD
:101B00008093BC0064CF9091B2028091B10298178B
:101B100058F5E091B20281E08E0F8093B202F0E0BE
:101B2000EF56FD4F8081E9CFE091B20281E08E0F48
:101B30008093B2028091BB00F0E0EF56FD4F8083AE
:101B40009091B2028091B1029817C8F285E8D8CF7F
:101B5000E091B20281E08E0F8093B2028091BB00CF
:101B6000F0E0EF56FD4F80838091B40281115CCF8D
:101B700081E080938F0284EA8093BC001092B502CA
:101B800026CF85EC8093BC001092B50280914D0267
:101B9000803230F4E0914D02F0E0E35DFD4F1082C1
:101BA00060914D0270E0E0916902F0916A028DE26D
:101BB00092E0099510924D020ACF1092B30234CFF1
:101BC000CF93DF9390E0FC01E255FF4F24918656BE
:101BD0009F4FFC0184918823C1F090E0880F991FEA
:101BE000FC01E057FF4FC591D491FC01EA57FF4F2C
:101BF000A591B4919FB7F8943881822F8095832363
:101C00008883EC91E22BEC939FBFDF91CF910895F5
:101C10008130F1F0B0F08230E9F0E82FF0E0E559E2
:101C2000FF4F9081692B60839091680021E030E044
:101C300001C0220F8A95EAF7892F822B80936800D2
:101C4000089593B1E42FF0E0EC5AFD4F9083E5CF77
:101C500096B1F8CF99B1F6CF883088F590E1980F1A
:101C60002091530230915002863008F064C08430D5
:101C700008F047C07093030260930202805F25E87A
:101C800036E0823109F064C03093250120932401AD
:101C9000877061E070E001C0660F8A95EAF7809175
:101CA0005302862B8093530280915002862B80939F
:101CB000500242E082E00E94080E81E008958A30DE
:101CC000C8F67093090260930802885023E736E053
:101CD00009F04DC0309301012093000161E070E0F4
:101CE00001C0660F8A95EAF780915102862B809396
:101CF000510280914E02862B80934E0240E080E09C
:101D0000DACF70930502609304024FE756E09431F6
:101D100021F55093190140931801977061E070E02C
:101D200001C0660F9A95EAF7262B20935302362BB3
:101D300030935002BECF709307026093060249E7CA
:101D400056E0963179F450931D0140931C01E5CF84
:101D500030932701209326019BCF50931B01409382
:101D60001A01DBCF50931F0140931E01D6CF309351
:101D7000030120930201B2CF0F931F93CF93DF9300
:101D8000EC01615019E008E051F017E006E0613025
:101D900031F014E005E0623011F412E003E0802F2E
:101DA0000E94E00D812F0E94E00D80EE90E199836A
:101DB00088830A871B871D861E861F86188A8BE3E9
:101DC0009FE10197F1F71C862A96BE01802F0E94A1
:101DD0002C0EBE01812FDF91CF911F910F910C949A
:101DE0002C0E1092E2021092E10288EE93E0A0E045
:101DF000B0E08093E3029093E402A093E502B093F5
:101E0000E6022AE331E03093E0022093DF0225EC82
:101E100030E03093EC022093EB0224EC30E030937E
:101E2000EE022093ED0220EC30E03093F00220939C
:101E3000EF0221EC30E03093F2022093F10222EC29
:101E400030E03093F4022093F30226EC30E030933C
:101E5000F6022093F5021092F8021092F902109205
:101E6000FA021092FB0210927F0310927E0380937D
:101E7000800390938103A0938203B09383038CE447
:101E800091E090937D0380937C03E7EEF3E083E0A1
:101E900094E0158214821682128211821082379683
:101EA0008E179F07B1F710920F0410921204109230
:101EB0000E0410920D041092230410922604109226
:101EC000220410922104ECE2F4E084E694E014820F
:101ED000138215821082168237968E179F07B9F7E4
:101EE00080E68093E40380932B041092E003109229
:101EF000E1031092E2031092E3038091F403811155
:101F00000FC081E08093F40384EE93E09093F30399
:101F10008093F2038AE08093EF038BE08093F003D9
:101F20008EEE93E09093DB038093DA0380910204BA
:101F300081110FC083E08093020484EE93E09093BC
:101F40000104809300048DE08093FD038CE0809376
:101F5000FE038CEF93E09093D9038093D803809194
:101F6000ED0381110CC084EE93E09093EC03809319
:101F7000EB0388E08093E80389E08093E90387EE30
:101F800093E09093D7038093D6038091FB03811154
:101F90000FC082E08093FB0384EE93E09093FA03FA
:101FA0008093F9038FE08093F6038EE08093F7032C
:101FB00085EF93E09093D5038093D4038091380408
:101FC000811113C081E08093380424EE33E0309314
:101FD000370420933604809333048091E503909175
:101FE000E603909335048093340483E394E0909364
:101FF000D3038093D20380913F04811113C082E008
:1020000080933F0424EE33E030933E0420933D045C
:1020100080933A048091E5039091E60390933C0409
:1020200080933B048AE394E09093D1038093D003A0
:1020300080914604811113C083E08093460424EE0E
:1020400033E030934504209344048093410480910D
:10205000E5039091E603909343048093420481E466
:1020600094E09093CF038093CE0380914D0481112F
:1020700013C084E080934D0424EE33E030934C048D
:1020800020934B04809348048091E5039091E603EC
:1020900090934A048093490488E494E09093CD039C
:1020A0008093CC0361E08BEB93E00E94BC0E62E076
:1020B0008AEA93E00E94BC0E63E089E993E00E9403
:1020C000BC0E64E088E893E00C94BC0E789484B570
:1020D000826084BD84B5816084BD85B5826085BD24
:1020E00085B5816085BD80916E00816080936E00B2
:1020F00010928100809181008260809381008091A4
:102100008100816080938100809180008160809354
:1021100080008091B10084608093B1008091B00014
:1021200081608093B00080917A00846080937A000F
:1021300080917A00826080937A0080917A00816039
:1021400080937A0080917A00806880937A00109260
:10215000C1000E94C0020E94C00260E080E00E94B4
:102160006D0582E390E09093E6038093E503809110
:102170002B0491E09093BB028093DD021092BC028D
:102180001092DE0260E08CE793E00E94FE040E9461
:10219000F80261E080912B040E94DF0310926E022E
:1021A00080936D028CE793E00E94BE04C82F682FD5
:1021B0006F76606180E00E946D0567E88EEF0E9497
:1021C0006D056C2F80E00E946D0565E070E080E099
:1021D00090E00E9447026C2F616A80E00E946D05CA
:1021E000C0E030E020E050E040E06C2F8BE294E073
:1021F0000E948705CF5FC031A1F7E091EF02F09117
:10220000F00282E08083E091EB02F091EC02108218
:10221000E091ED02F091EE028FEC80831092F702D4
:10222000E091F302F091F40286E08083E091F10204
:10223000F091F202808180618083E091F102F0915F
:10224000F202808188608083E091F102F091F202D5
:10225000808180688083E091F102F091F2028081B8
:102260008F7D80838FE38093DC038FEF8093DF0388
:102270000E94C0028091DF038F3FC1F18FE10E9475
:10228000910882FF05C0682F6B7F8FE10E94530584
:10229000C091DF038EE00E94370761E070E002C06A
:1022A000660F771FCA95E2F76095709568237923CA
:1022B0008EE00E94320560E08091DF030E944008BA
:1022C00061E070E080E090E00E94470261E0809170
:1022D000DF030E94400883E10E94370781159F4F6A
:1022E00071F08FE691E00E949806FFCF62E18DE7E2
:1022F0000E94530564E38DE70E945305ECCF60E430
:102300008EE10E94530580E894E8AEE1B0E080934E
:10231000E0039093E103A093E203B093E3038FE122
:102320000E9491088F78682F60618FE10E945305A9
:102330008EE00E943707BC0161608EE00E9432058A
:102340008EE00E943707BC0162608EE00E94320579
:102350008EE00E943707BC0164608EE00E94320567
:102360008EE00E943707BC0168608EE00E94320553
:102370008EE00E943707BC0160618EE00E9432054A
:102380000E94FC0568EE73E080E090E00E94470246
:1023900000E010E068EE73E080E090E00E94470209
:1023A00080E991E00E948E0968EE73E080E090E0A1
:1023B0000E9447020E94FC0568EE73E080E090E016
:1023C0000E94470286E891E00E9498068AE090E029
:1023D0000E942609D0E0C0E0C330D105A9F10E94D7
:1023E0008D0780916702909168020397ACF380910A
:1023F0006602882301F188EC90E00E94200A62E3E3
:1024000070E080E090E00E9447028AE090E00E9445
:10241000260921968CE891E00E948B06CE010E944D
:102420002507C330D105C1F264EF71E080E090E090
:102430000E944702D1CF80916502882351F388EC36
:1024400090E00E94E909DBCF0E945A0968EE73E030
:1024500080E090E00E94470268EE73E080E090E048
:102460000E9447028CE291E00E948E0968EE73E0C0
:1024700080E090E00E9447020E948D0788E290E091
:102480000E94A3098091600290916102892BA1F7BB
:102490000E945A0960ED77E080E090E00E944702D8
:1024A00068EE73E080E090E00E94470288E290E0EE
:1024B0000E94E90960E679E080E090E00E9447022E
:1024C0000E945A0968EE73E080E090E00E944702A3
:1024D0008CE291E00E948E0968EE73E080E090E06B
:1024E0000E9447020E948D0788E290E00E94A309A3
:1024F0008091600290916102892BA1F70E945A0994
:1025000060ED77E080E090E00E94470268EE73E0C3
:1025100080E090E00E94470266E98091D2039091AA
:10252000D3030E94CA0560E58091D0039091D10346
:102530000E94CA0560EA8091CE039091CF030E9469
:10254000CA0568E28091CC039091CD030E94CA0530
:1025500068EE73E080E090E00E94470286E891E038
:102560000E94980684E190E00E94820A0E948D07F2
:10257000809167029091680203970CF44AC08091A1
:1025800066028823E9F188EC90E00E94200A62E369
:1025900070E080E090E00E94470284E190E00E94B9
:1025A000820A8CE891E00E948B0681E090E00E9414
:1025B00025070E945A0968EE73E080E090E00E94CF
:1025C000470268EE73E080E090E00E9447026AE50F
:1025D0008091CC039091CD030E94CA0568EE73E010
:1025E00080E090E00E9447020115110509F4D2CE67
:1025F0000E94FF00882309F4CDCE0E940000CACEBD
:1026000080916502882369F288EC90E00E94E909D4
:10261000BECF80E00E946E0791E0811101C090E082
:102620009093660281E00E946E0791E0811101C0E3
:1026300090E09093640282E00E946E0791E0811125
:1026400001C090E09093630283E00E946E0791E0E6
:10265000811101C090E09093620284E00E946E07B5
:1026600091E0811101C090E09093650281E991E0D1
:102670000E948B066091650270E090E080E00E940D
:10268000AA066091620270E090E080E00E94AA06D3
:102690006091630270E090E080E00E94AA06609181
:1026A000640270E090E080E00E94AA0680916602D9
:1026B00090E00E9425078091630281110FC084E1A0
:1026C00090E00E94820A89EA91E00E94980664E103
:1026D00070E080E090E00E94470248CF8091620263
:1026E000811107C084E190E00E94200A81EB91E013
:1026F000ECCF80916402811107C084E190E00E94D8
:10270000E90987EB91E0E1CF80916502811107C073
:1027100084E190E00E94200A8EEB91E0D6CF809178
:102720006602811107C084E190E00E94E90984EC0F
:1027300091E0CBCF84E190E00E94820AC8CFA1E271
:102740001A2EAA1BBB1BFD010DC0AA1FBB1FEE1F2B
:10275000FF1FA217B307E407F50720F0A21BB30B76
:10276000E40BF50B661F771F881F991F1A9469F7F2
:1027700060957095809590959B01AC01BD01CF014E
:1027800008955058BB27AA270E94D9130C942315EB
:102790000E94151538F00E941C1520F039F49F3F57
:1027A00019F426F40C9412150EF4E095E7FB0C9442
:1027B0000C15E92F0E94341558F3BA1762077307F6
:1027C0008407950720F079F4A6F50C9456150EF4BD
:1027D000E0950B2EBA2FA02D0B01B90190010C0131
:1027E000CA01A0011124FF27591B99F0593F50F449
:1027F000503E68F11A16F040A22F232F342F4427A1
:10280000585FF3CF469537952795A795F040539598
:10281000C9F77EF41F16BA0B620B730B840BBAF068
:102820009150A1F0FF0FBB1F661F771F881FC2F7D3
:102830000EC0BA0F621F731F841F48F487957795E7
:102840006795B795F7959E3F08F0B0CF9395880FA1
:1028500008F09927EE0F9795879508950E944214E6
:102860000C9423150E941C1558F00E94151540F079
:1028700029F45F3F29F00C940C1551110C94571555
:102880000C9412150E94341568F39923B1F3552363
:1028900091F3951B550BBB27AA2762177307840773
:1028A00038F09F5F5F4F220F331F441FAA1FA9F309
:1028B00035D00E2E3AF0E0E832D091505040E695F7
:1028C000001CCAF72BD0FE2F29D0660F771F881F58
:1028D000BB1F261737074807AB07B0E809F0BB0B4B
:1028E000802DBF01FF2793585F4F3AF09E3F51055F
:1028F00078F00C940C150C9457155F3FE4F3983E58
:10290000D4F3869577956795B795F7959F5FC9F747
:10291000880F911D9695879597F90895E1E0660FC8
:10292000771F881FBB1F621773078407BA0720F041
:10293000621B730B840BBA0BEE1F88F7E0950895AA
:102940000E943C1588F09F5798F0B92F9927B751EE
:10295000B0F0E1F0660F771F881F991F1AF0BA9543
:10296000C9F714C0B13091F00E945615B1E0089536
:102970000C945615672F782F8827B85F39F0B93F28
:10298000CCF3869577956795B395D9F73EF49095F6
:102990008095709561957F4F8F4F9F4F0895E89474
:1029A00009C097FB3EF490958095709561957F4F97
:1029B0008F4F9F4F9923A9F0F92F96E9BB27939545
:1029C000F695879577956795B795F111F8CFFAF455
:1029D000BB0F11F460FF1BC06F5F7F4F8F4F9F4F86
:1029E00016C0882311F096E911C0772321F09EE8E4
:1029F000872F762F05C0662371F096E8862F70E04A
:102A000060E02AF09A95660F771F881FDAF7880F23
:102A10009695879597F9089597F99F6780E870E0F4
:102A200060E008959FEF80EC089500240A94161644
:102A3000170618060906089500240A9412161306AC
:102A4000140605060895092E0394000C11F488233A
:102A500052F0BB0F40F4BF2B11F460FF04C06F5F56
:102A60007F4F8F4F9F4F089557FD9058440F551F2C
:102A700059F05F3F71F04795880F97FB991F61F000
:102A80009F3F79F087950895121613061406551F77
:102A9000F2CF4695F1DF08C0161617061806991FE3
:102AA000F1CF86957105610508940895E894BB27D8
:102AB00066277727CB0197F908950E9470150C942B
:102AC00023150E94151538F00E941C1520F095233F
:102AD00011F00C940C150C94121511240C9457152C
:102AE0000E94341570F3959FC1F3950F50E0551F68
:102AF000629FF001729FBB27F00DB11D639FAA2753
:102B0000F00DB11DAA1F649F6627B00DA11D661FA1
:102B1000829F2227B00DA11D621F739FB00DA11DC2
:102B2000621F839FA00D611D221F749F3327A00D7C
:102B3000611D231F849F600D211D822F762F6A2F18
:102B400011249F5750409AF0F1F088234AF0EE0F7D
:102B5000FF1FBB1F661F771F881F91505040A9F7AA
:102B60009E3F510580F00C940C150C9457155F3F57
:102B7000E4F3983ED4F3869577956795B795F795E6
:102B8000E7959F5FC1F7FE2B880F911D969587955E
:102B900097F90895EE0FFF1F0590F491E02D099429
:102BA000F894FFCF7A027A027A027A027A027A02E3
:102BB0007A027A027A027A027A027A027A027A0235
:102BC0007A027A027A027A027A027A025D01CB01F3
:102BD000D101D801DE01E501E90100000000350165
:102BE0009500C2008201F300D100E5000000000062
:102BF000FE04D104F905AE048C00BE04AF040D0A36
:102C0000004D494400494D2052554E4E494E4721F2
:102C10002121004661696C656420746F20636F6DCB
:102C20006D756E69636174652E005465737421005F
:102C3000636E743D00534F2C53312C53322C53335D
:102C40002C5334207374617475733A2000666F726C
:102C500077617264006C65667431007269676874CC
:102C600031006C6566743200726967687432004CBA
:102C70004546543100524947485431004C4546546A
:102C8000320052494748543200414C4C00554E44A2
:082C900045544543544544003E
:107E0000112484B714BE81FFF0D085E080938100F7
:107E100082E08093C00088E18093C10086E0809377
:107E2000C20080E18093C4008EE0C9D0259A86E02C
:107E300020E33CEF91E0309385002093840096BBD3
:107E4000B09BFECF1D9AA8958150A9F7CC24DD24C4
:107E500088248394B5E0AB2EA1E19A2EF3E0BF2EE7
:107E6000A2D0813461F49FD0082FAFD0023811F036
:107E7000013811F484E001C083E08DD089C08234E0
:107E800011F484E103C0853419F485E0A6D080C0E4
:107E9000853579F488D0E82EFF2485D0082F10E0AE
:107EA000102F00270E291F29000F111F8ED06801E7
:107EB0006FC0863521F484E090D080E0DECF843638
:107EC00009F040C070D06FD0082F6DD080E0C81688
:107ED00080E7D80618F4F601B7BEE895C0E0D1E017
:107EE00062D089930C17E1F7F0E0CF16F0E7DF06D8
:107EF00018F0F601B7BEE89568D007B600FCFDCFD4
:107F0000A601A0E0B1E02C9130E011968C91119780
:107F100090E0982F8827822B932B1296FA010C0160
:107F200087BEE89511244E5F5F4FF1E0A038BF0790
:107F300051F7F601A7BEE89507B600FCFDCF97BE46
:107F4000E89526C08437B1F42ED02DD0F82E2BD052
:107F50003CD0F601EF2C8F010F5F1F4F84911BD097
:107F6000EA94F801C1F70894C11CD11CFA94CF0C13
:107F7000D11C0EC0853739F428D08EE10CD085E9AC
:107F80000AD08FE07ACF813511F488E018D01DD067
:107F900080E101D065CF982F8091C00085FFFCCF94
:107FA0009093C60008958091C00087FFFCCF809118
:107FB000C00084FD01C0A8958091C6000895E0E648
:107FC000F0E098E1908380830895EDDF803219F02E
:107FD00088E0F5DFFFCF84E1DECF1F93182FE3DFCA
:107FE0001150E9F7F2DF1F91089580E0E8DFEE27F6
:047FF000FF270994CA
:027FFE00040479
:00000001FF
