:020000040000FA
:100000000C9462000C948A000C948A000C945E0A92
:100010000C94FE090C9490090C948A000C948A00AC
:100020000C948A000C948A000C948A000C948A0028
:100030000C948A000C948A000C948A000C948A0018
:100040000C9446090C948A000C9414090C94EE0844
:100050000C948A000C948A000C948A000C948A00F8
:100060000C94BE0A0C948A000000000023002600B5
:10007000290000000008000201000003040700003E
:1000800000000000000000000000250028002B00F8
:1000900000000000240027002A00040404040404D3
:1000A0000404020202020202030303030303010227
:1000B00004081020408001020408102001020408F6
:1000C0001020EE0C11241FBECFEFD8E0DEBFCDBF55
:1000D00011E0A0E0B1E0E4E9F4E202C005900D9285
:1000E000A03AB107D9F724E0A0EAB1E001C01D921F
:1000F000AC30B207E1F710E0C2E6D0E004C02197CF
:10010000FE010E944212C136D107C9F70E94630E58
:100110000C9448120C9400008091150290911602E4
:10012000891B990B089508950895AF92BF92CF92BD
:10013000DF92EF92FF920F931F93CF93DF936C01A7
:100140007B018B01040F151FEB015E01AE18BF0888
:10015000C017D10759F06991D601ED91FC9101903A
:10016000F081E02DC6010995892B79F7C501DF9152
:10017000CF911F910F91FF90EF90DF90CF90BF90A4
:10018000AF900895FC01538D448D252F30E0842FCE
:1001900090E0821B930B541710F0CF9608950197AF
:1001A0000895FC01918D828D981761F0A28DAE0F9C
:1001B000BF2FB11D5D968C91928D9F5F9F73928F23
:1001C00090E008958FEF9FEF0895FC01918D828D4F
:1001D000981731F0828DE80FF11D858D90E008951C
:1001E0008FEF9FEF0895FC01918D228D892F90E074
:1001F000805C9F4F821B91098F739927089587E830
:1002000092E00E94F30021E0892B09F420E0822F84
:10021000089580E090E0892B29F00E94FF00811171
:100220000C9400000895FC01A48DA80FB92FB11DF6
:10023000A35ABF4F2C91848D90E001968F7399271C
:10024000848FA689B7892C93A089B1898C918370FA
:1002500080648C93938D848D981306C00288F389F3
:10026000E02D80818F7D80830895EF92FF920F9320
:100270001F93CF93DF93EC0181E0888F9B8D8C8D52
:1002800098131AC0E889F989808185FF15C09FB746
:10029000F894EE89FF896083E889F9898081837009
:1002A000806480839FBF81E090E0DF91CF911F91B8
:1002B0000F91FF90EF900895F62E0B8D10E00F5FD9
:1002C0001F4F0F731127E02E8C8D8E110CC00FB6AF
:1002D00007FCFACFE889F989808185FFF5CFCE0147
:1002E0000E941301F1CFEB8DEC0FFD2FF11DE35AAE
:1002F000FF4FF0829FB7F8940B8FEA89FB898081CA
:100300008062CFCFCF93DF93EC01888D8823B9F043
:10031000AA89BB89E889F9898C9185FD03C0808110
:1003200086FD0DC00FB607FCF7CF8C9185FFF2CF8D
:10033000808185FFEDCFCE010E941301E9CFDF91CF
:10034000CF910895833081F028F4813099F0823084
:10035000A9F008958730A9F08830C9F08430B1F44D
:10036000809180008F7D03C0809180008F77809383
:100370008000089584B58F7784BD089584B58F7DFE
:10038000FBCF8091B0008F778093B000089580916B
:10039000B0008F7DF9CFCF93DF93282F30E0F901A4
:1003A000EE58FF4F8491F901E255FF4FD491F901C6
:1003B000E656FF4FC491CC23A1F081110E94A20107
:1003C000EC2FF0E0EE0FFF1FE859FF4FA591B4911D
:1003D000EC91ED2381E090E009F480E0DF91CF9192
:1003E000089580E090E0FACF1F93CF93DF93282FFA
:1003F00030E0F901EE58FF4F8491F901E255FF4FCB
:10040000D491F901E656FF4FC491CC23A9F0162FE1
:1004100081110E94A201EC2FF0E0EE0FFF1FEA57BE
:10042000FF4FA591B4918FB7F894EC91111108C0CA
:10043000D095DE23DC938FBFDF91CF911F9108957C
:10044000DE2BF8CF3FB7F8948091FA019091FB0131
:10045000A091FC01B091FD0126B5A89B05C02F3FDE
:1004600019F00196A11DB11D3FBFBA2FA92F982FDA
:100470008827BC01CD01620F711D811D911D42E0D5
:10048000660F771F881F991F4A95D1F708958F929D
:100490009F92AF92BF92CF92DF92EF92FF924B0169
:1004A0005C010E9422026B017C010E9422026C19F5
:1004B0007D098E099F09683E734081059105A8F367
:1004C00021E0821A9108A108B10888EEC80E83E0E5
:1004D000D81EE11CF11C81149104A104B10429F778
:1004E000FF90EF90DF90CF90BF90AF909F908F9054
:1004F000089508952091C901260F3327331F213213
:100500003105ECF420915D02FC0190E080E02430A4
:1005100069F082E00895A091C9012191AC0147558D
:100520005E4FA40FB52FB11D2C930196861798F33B
:100530008091C901680F6093C90180E0089581E04E
:10054000089510925D0281E080935C021092370260
:1005500061E082E10E94F40161E083E10E94F40124
:10056000E9EBF0E080818E7F808380818D7F8083C6
:1005700088E48093B80085E48093BC0008951092CD
:1005800016021092150210926402109286020E94C6
:10059000A10283E990E0909314028093130284E90E
:1005A00090E090931202809311020895CF93DF930D
:1005B00091E09093A8018823B9F0C091B800D09140
:1005C000BA008091BC008A7B8093BC0060E082E12D
:1005D0000E94F40160E083E10E94F4010E94A10204
:1005E000D093BA00C093B800DF91CF910895CF9215
:1005F000DF92EF92FF920F931F93CF93DF93D091EF
:10060000860281E0D13208F09CC0C09185020E9430
:1006100022026B017C0180915D0281116CC082E03D
:1006200080935D0281E080935C028FEF80935B0298
:1006300010925A02D0935902A5E6B2E0E9E3F2E043
:1006400080E0D8138DC01092380280913802CC0F10
:10065000C82BC093380280913702813009F084C0E2
:10066000109237020E9422026B017C0180913802B5
:100670008093BB0080915F0290916002A091610223
:10068000B0916202892B8A2B8B2BA1F00E9422024F
:1006900000915F021091600220916102309162022C
:1006A0006C197D098E099F09061717072807390756
:1006B00008F442C08091BC0083FDD8CF85EC8093C4
:1006C000BC000E9422026B017C0180915D0282309D
:1006D00009F44CC080915B028F3F09F469C080919E
:1006E0005B02803209F466C080915B02803309F4BA
:1006F00063C084E026C080915F0290916002A09167
:100700006102B0916202892B8A2B8B2B09F483CF73
:100710000E94220200915F0210916002209161020A
:10072000309162026C197D098E099F09061717071F
:100730002807390708F06FCF80915E020E94D60229
:1007400085E0109264021092860210926302DF919B
:10075000CF911F910F91FF90EF90DF90CF90089570
:100760009D9191938F5F6DCF85EEA9CF80915F02B0
:1007700090916002A0916102B0916202892B8A2B54
:100780008B2B09F4A2CF0E94220200915F021091EC
:10079000600220916102309162026C197D098E091C
:1007A0009F09061717072807390708F08ECFC4CF0F
:1007B00080E0C7CF82E0C5CF83E0C3CFCF92DF9286
:1007C000EF92FF920F931F93CF93DF93D82FC62FF3
:1007D000613208F098C00E9422026B017C01809176
:1007E0005D0281116BC081E080935D0280935C02A9
:1007F0009FEF90935B0210925A029C0F90935902C4
:100800008093380280913802DD0FD82BD0933802C4
:1008100080913702813009F078C0109237020E942F
:1008200022026B017C01809138028093BB00809191
:100830005F0290916002A0916102B0916202892BE7
:100840008A2B8B2BA1F00E94220200915F02109153
:10085000600220916102309162026C197D098E095B
:100860009F09061717072807390708F448C0809121
:10087000BC0083FDD8CF85EC8093BC000E9422028F
:100880006B017C0180915D02813009F440C0809150
:100890005A028C1710F4C0915A02E9E3F2E0A7E182
:1008A000B2E080E08C1355C08C2FDF91CF911F9167
:1008B0000F91FF90EF90DF90CF90089580915F02AD
:1008C00090916002A0916102B0916202892B8A2B03
:1008D0008B2B09F484CF0E94220200915F021091B9
:1008E000600220916102309162026C197D098E09CB
:1008F0009F09061717072807390708F070CF80915E
:100900005E020E94D602C0E0CFCF85EEB5CF8091C7
:100910005F0290916002A0916102B0916202892B06
:100920008A2B8B2B09F4AECF0E94220200915F022A
:100930001091600220916102309162026C197D0970
:100940008E099F09061717072807390708F09ACF5D
:10095000D6CF91919D938F5FA5CF0895E091160218
:1009600080911502E81730F4F0E0E95EFD4F8081D8
:1009700090E008958FEF9FEF089590911602809177
:1009800015022FEF3FEF981748F4E92FF0E0E95EEA
:10099000FD4F208130E09F5F90931602C9010895BA
:1009A000CF92DF92EF92FF920F931F93CF93DF933B
:1009B0007C01CB018A0120916302222389F0EB01A3
:1009C0006B01C40ED51ECC15DD0569F06991D70108
:1009D000ED91FC910190F081E02DC7010995F3CFD5
:1009E000642F0E947A02C801DF91CF911F910F916D
:1009F000FF90EF90DF90CF900895CF93DF931F92F9
:100A0000CDB7DEB76983209163022223F9F02091EC
:100A10008602203258F021E030E0FC01338322834B
:100A200090E080E00F90DF91CF9108958091640273
:100A3000E82FF0E0EB59FD4F998190838F5F809311
:100A400064028093860281E090E0ECCF61E0CE0109
:100A500001960E947A02F7CF682F84E293E00C940B
:100A6000FD04CF93DF93EB019091840321E0209369
:100A70006302909385021092640210928602682F9E
:100A800084E293E00E94FD046D2F84E293E00E94D3
:100A9000FD046C2F84E293E00E94FD04DF91CF916E
:100AA0000C94F702CF93C62F9091840321E02093FA
:100AB0006302909385021092640210928602682F5E
:100AC00084E293E00E94FD046C2F84E293E00E9494
:100AD000FD04CF910C94F702CF93C62F9091D303CE
:100AE00021E0209363029093850210926402109299
:100AF0008602682F84E293E00E94FD046C2F84E25A
:100B000093E00E94FD04CF910C94F7020F931F9382
:100B1000CF93DF93042FD52F122FC32FFC01808199
:100B200091E0909363028093850210926402109288
:100B30008602F4E06F9FB00111246A5F7F4F84E268
:100B400093E00E94FD04802F9D2F0E942C058D2F85
:100B500090E00E942C05812F9C2F0E942C058C2F49
:100B600090E00E942C05DF91CF911F910F910C9482
:100B7000F7029A01895B9F4F211540E1340730F05D
:100B800030E020E040E050E10C94860550E040E089
:100B9000FBCFCF93DF93EC01CB01BA0120E030E033
:100BA0004AE754E40E94D51120E030E44CE950E4D7
:100BB0000E94E3100E945511AB0168818B819C81DA
:100BC000DF91CF910C94B90590E080E008951F93D8
:100BD000CF93DF93EC0188810E94CB01182F89818C
:100BE0000E94CB01EA81E3701111E4608111E86099
:100BF0008E2F90E095958795959587958A83E150FE
:100C0000EE30F0F4F0E0E95FF94F0C944212150673
:100C100024062C062406200634061506150634067E
:100C2000200624062C06240615068B819C81AD81A6
:100C3000BE810196A11DB11D8B839C83AD83BE83B4
:100C4000DF91CF911F9108958B819C81AD81BE81F1
:100C50000197A109B109F0CF8B819C81AD81BE8143
:100C60000296A11DB11DE8CF8B819C81AD81BE8113
:100C70000297A109B109E0CF8091A6019091A70147
:100C80000C94E7058091A4019091A5010C94E705CF
:100C90008091A2019091A3010C94E7058091A0019D
:100CA0009091A1010C94E705FC0101900020E9F767
:100CB0003197AF01481B590BBC0187E892E00C94B7
:100CC00095008F929F92AF92BF920F931F93CF93F5
:100CD000DF93CDB7DEB7A1970FB6F894DEBF0FBE96
:100CE000CDBF19A2423008F44AE08E010F5D1F4FBC
:100CF000842E912CB12CA12CA50194010E94C1102D
:100D0000E62FB901CA01EA30F4F4E05DD801EE93B0
:100D10008D01232B242B252B79F790E080E0109771
:100D200019F0CD010E945406A1960FB6F894DEBFCB
:100D30000FBECDBFDF91CF911F910F91BF90AF90AC
:100D40009F908F900895E95CE1CFCF92DF92EF9270
:100D5000FF92CF93DF936B017C016DE287E892E015
:100D60000E943501EC0166277727CB016C197D09BC
:100D70008E099F094AE00E9461068C0F9D1FDF913A
:100D8000CF91FF90EF90DF90CF900895CF93DF93B6
:100D90000E945406EC018CE491E00E9454068C0FF2
:100DA0009D1FDF91CF910895BC01990F880B990B7E
:100DB0004AE00C9461069091840321E02093630241
:100DC000909385021092640210928602682F84E24A
:100DD00093E00E94FD040E94F70261E08091840389
:100DE0000E94DE03109216028093150228EE33E073
:100DF000811106C02115310541F021503109FACF8A
:100E000084E293E00E94BD04089580E00895CF93AA
:100E10009091840321E020936302909385021092C5
:100E2000640210928602682F84E293E00E94FD041F
:100E30000E94F70262E0809184030E94DE03282F63
:100E4000109216028093150280ED97E0223020F474
:100E5000009791F00197FACF009771F084E293E048
:100E60000E94BD04C82F84E293E00E94BD0420E0EC
:100E70003C2FA901482BCA01CF9108951F93CF930E
:100E8000DF93182F8EE00E940707C1E0D0E002C078
:100E9000CC0FDD1F1A95E2F78C239D23892B41F09F
:100EA00080E10E940707C823D92381E0CD2B09F4F4
:100EB00080E0DF91CF911F910895EF92FF920F9301
:100EC0001F93CF93DF93D82FF62E8EE00E94070753
:100ED00061E070E09B0102C0220F331FDA95E2F758
:100EE000E9018095909582239D23892BB1F080E1C3
:100EF0000E940707BE01682B792BF11005C0C09531
:100F0000D095BE016823792380E1DF91CF911F91B5
:100F10000F91FF90EF900C94310586E00E94070737
:100F20008C0188E00E940707BE0160957095FF2044
:100F300061F07C01E622F722BE01602B712B86E076
:100F40000E943105B70188E0E0CFC82BD92B602380
:100F5000712386E00E943105BE01F5CFCF93DF9368
:100F6000EC016B836230D1F128F4613001F1DF9143
:100F7000CF910895633009F443C06430C1F78C8188
:100F80009D8130E020E050E040E06981895B9F4F27
:100F90000E9486058C819D8130E020E050E040E099
:100FA0006A81895B9F4FDF91CF910C9486058C817C
:100FB0009D8130E020E050E040E06A81895B9F4FF6
:100FC0000E948605488180E1489FA0011124698123
:100FD0008C819D81DF91CF910C94B9058C819D818D
:100FE00030E020E050E040E06981895B9F4F0E9443
:100FF0008605488180E1489FA00111246A81E8CFDD
:101000008C819D8130E020E040E050E16981895B86
:101010009F4F0E9486058C819D8130E020E040E05A
:1010200050E1BECFFC01608363810C94AE07CF9387
:10103000DF93C0917E03D0917F036EE1CE010E94C9
:10104000120862E0CE010E94AE07C0918203D091E7
:1010500083036EE1CE010E94120862E0CE010E947D
:10106000AE07C0917C03D0917D036EE1CE010E945A
:10107000120861E0CE010E94AE07C0918003D091BA
:1010800081036EE1CE010E94120861E0CE01DF9182
:10109000CF910C94AE07CF93DF93C0917E03D09194
:1010A0007F036CE3CE010E94120861E0CE010E9432
:1010B000AE07C0918203D09183036CE3CE010E94FE
:1010C000120861E0CE010E94AE07C0917C03D0916E
:1010D0007D036CE3CE010E94120862E0CE010E9403
:1010E000AE07C0918003D09181036CE3CE010E94D2
:1010F000120862E0CE01DF91CF910C94AE070F93FE
:101100001F93CF93C82F00917E0310917F03682F08
:10111000C8010E94120861E0C8010E94AE07009158
:101120008203109183036C2FC8010E94120861E0B2
:10113000C8010E94AE0700917C0310917D036C2FC3
:10114000C8010E94120861E0C8010E94AE07009128
:101150008003109181036C2FC8010E94120861E086
:10116000C801CF911F910F910C94AE0785ED80932C
:10117000BC0080915F0290916002A0916102B091E9
:1011800062020796A11DB11D23E0B695A79597951C
:1011900087952A95D1F72091BC0024FD03C01092B9
:1011A0005D02089540915F0250916002609161027A
:1011B00070916202452B462B472B69F30097A105DE
:1011C000B10541F025E32A95F1F700000197A10947
:1011D000B109E1CF80915E020C94D6021F920F926A
:1011E0000FB60F9211242F933F934F935F936F93FA
:1011F0007F938F939F93AF93BF93EF93FF9387E872
:1012000092E00E941301FF91EF91BF91AF919F91E6
:101210008F917F916F915F914F913F912F910F909F
:101220000FBE0F901F9018951F920F920FB60F923E
:1012300011242F938F939F93EF93FF93E091970245
:10124000F09198028081E0919D02F0919E0282FDD2
:101250001BC090818091A0028F5F8F732091A102AB
:10126000821741F0E091A002F0E0E957FD4F958F21
:101270008093A002FF91EF919F918F912F910F90FA
:101280000FBE0F901F9018958081F4CF1F920F9280
:101290000FB60F9211242F933F938F939F93AF9389
:1012A000BF938091F6019091F701A091F801B09160
:1012B000F9013091F50123E0230F2D3758F5019600
:1012C000A11DB11D2093F5018093F6019093F701C4
:1012D000A093F801B093F9018091FA019091FB017C
:1012E000A091FC01B091FD010196A11DB11D80935B
:1012F000FA019093FB01A093FC01B093FD01BF9113
:10130000AF919F918F913F912F910F900FBE0F90B2
:101310001F90189526E8230F0296A11DB11DD2CF6C
:101320001F920F920FB60F9211242F933F934F935A
:101330005F936F937F938F939F93AF93BF93CF935D
:10134000EF93FF9399B18091F401C091F101C9230A
:10135000282F2095C2232091EE018223292F20954A
:101360008223C82B9093F401C4FF05C0E0911801BB
:10137000F09119010995C5FF05C0E0911A01F0919E
:101380001B010995C6FF05C0E0911C01F0911D01EC
:101390000995C7FF05C0E0911E01F0911F01099555
:1013A000C0FF05C0E0912001F09121010995C1FF26
:1013B00005C0E0912201F09123010995C2FF05C00B
:1013C000E0912401F09125010995C3FF05C0E0914A
:1013D0002601F09127010995FF91EF91CF91BF91DF
:1013E000AF919F918F917F916F915F914F913F91BD
:1013F0002F910F900FBE0F901F9018951F920F9274
:101400000FB60F9211242F933F934F935F936F93D7
:101410007F938F939F93AF93BF93CF93EF93FF935C
:1014200096B18091F301C091F001C923282F209536
:10143000C2232091ED018223292F20958223C82BDE
:101440009093F301C0FF05C0E0910C01F0910D01F4
:101450000995C1FF05C0E0910E01F0910F010995BA
:10146000C2FF05C0E0911001F09111010995C3FF81
:1014700005C0E0911201F09113010995C4FF05C068
:10148000E0911401F09115010995C5FF05C0E091A7
:101490001601F09117010995FF91EF91CF91BF913E
:1014A000AF919F918F917F916F915F914F913F91FC
:1014B0002F910F900FBE0F901F9018951F920F92B3
:1014C0000FB60F9211242F933F934F935F936F9317
:1014D0007F938F939F93AF93BF93CF93EF93FF939C
:1014E00093B18091F201C091EF01C923282F20957B
:1014F000C2232091EC018223292F20958223C82B1F
:101500009093F201C0FF05C0E0910001F09101014C
:101510000995C1FF05C0E0910201F0910301099511
:10152000C2FF05C0E0910401F09105010995C3FFD8
:1015300005C0E0910601F09107010995C4FF05C0BF
:10154000E0910801F09109010995C5FF05C0E091FE
:101550000A01F0910B010995FF91EF91CF91BF9195
:10156000AF919F918F917F916F915F914F913F913B
:101570002F910F900FBE0F901F9018951F920F92F2
:101580000FB60F9211242F933F934F935F936F9356
:101590007F938F939F93AF93BF93EF93FF9380912C
:1015A000B900887F803609F44AC0F0F5883209F422
:1015B000A7C018F5803109F49BC0B8F4882309F45A
:1015C000F9C0883009F494C0FF91EF91BF91AF91B9
:1015D0009F918F917F916F915F914F913F912F914B
:1015E0000F900FBE0F901F901895883109F488C096
:1015F000803251F780935B0214C0803409F49DC09F
:1016000040F48033B9F38833F9F680935B0285ECBC
:10161000B0C0803509F485C0883509F496C0883497
:1016200099F60E94B608D0CF883909F48CC038F5F5
:10163000883729F050F4883611F0803729F683E096
:1016400080935D021092EB0157C0883809F47BC08B
:10165000803919F0803809F0B7CF8091EB018032E2
:1016600008F071C0E091EB0181E08E0F8093EB01F7
:101670008091BB00F0E0E553FE4F80833DC0803B8E
:1016800039F0E0F4803A09F479C0883A09F09CCF47
:1016900084E080935D021092CA011092C901E0912A
:1016A0001302F091140209958091C90181110FC0B4
:1016B00081E08093C9011092A90109C0803C09F41E
:1016C000A6CF883C09F4A3CF883B09F07DCFE091F9
:1016D000CA0181E08E0F8093CA01F0E0E755FE4F0A
:1016E00080818093BB009091CA018091C90129C07B
:1016F000809138028093BB0085EC8093BC0064CF5E
:1017000090915A0280915902981758F5E0915A0227
:1017100081E08E0F80935A02F0E0E75CFD4F8081FC
:10172000E9CFE0915A0281E08E0F80935A028091B6
:10173000BB00F0E0E75CFD4F808390915A028091FE
:1017400059029817C8F285E8D8CFE0915A0281E093
:101750008E0F80935A028091BB00F0E0E75CFD4F52
:10176000808380915C0281115CCF81E0809337029D
:1017700084EA8093BC0010925D0226CF85EC8093B2
:10178000BC0010925D028091EB01803230F4E09158
:10179000EB01F0E0E553FE4F10826091EB0170E049
:1017A000E0911102F09112028BEC91E009951092F8
:1017B000EB010ACF10925B0234CFCF93DF9390E01E
:1017C000FC01E255FF4F249186569F4FFC01849106
:1017D0008823C1F090E0880F991FFC01E057FF4F6C
:1017E000C591D491FC01EA57FF4FA591B4919FB7E1
:1017F000F8943881822F809583238883EC91E22BA3
:10180000EC939FBFDF91CF9108958130F1F0B0F05C
:101810008230E9F0E82FF0E0E559FF4F9081692B25
:1018200060839091680021E030E001C0220F8A952A
:10183000EAF7892F822B80936800089593B1E42FF3
:10184000F0E0EE50FE4F9083E5CF96B1F8CF99B11E
:10185000F6CF883088F590E1980F2091F101309112
:10186000EE01863008F064C0843008F047C0709301
:10187000A1016093A001805F2EE436E0823109F07F
:1018800064C03093250120932401877061E070E0EB
:1018900001C0660F8A95EAF78091F101862B80934B
:1018A000F1018091EE01862B8093EE0142E082E00F
:1018B0000E94050C81E008958A30C8F67093A70154
:1018C0006093A60188502CE336E009F04DC03093B8
:1018D00001012093000161E070E001C0660F8A956C
:1018E000EAF78091EF01862B8093EF018091EC0164
:1018F000862B8093EC0140E080E0DACF7093A30167
:101900006093A20148E456E0943121F55093190107
:1019100040931801977061E070E001C0660F9A95DE
:10192000EAF7262B2093F101362B3093EE01BECF40
:101930007093A5016093A40142E456E0963179F4D6
:1019400050931D0140931C01E5CF30932701209354
:1019500026019BCF50931B0140931A01DBCF50937C
:101960001F0140931E01D6CF309303012093020143
:10197000B2CF0F931F93CF93DF93EC01615019E027
:1019800008E051F017E006E0613031F014E005E0C6
:10199000623011F412E003E0802F0E94DD0B812FF2
:1019A0000E94DD0B80EE90E1998388830A871B8774
:1019B0001D861E861F86188A8BE39FE10197F1F72B
:1019C0001C862A96BE01802F0E94290CBE01812F01
:1019D000DF91CF911F910F910C94290C10928A02E4
:1019E0001092890288EE93E0A0E0B0E080938B0231
:1019F00090938C02A0938D02B0938E022CE231E082
:101A0000309388022093870225EC30E030939402D3
:101A10002093930224EC30E03093960220939502B9
:101A200020EC30E0309398022093970221EC30E0D4
:101A300030939A022093990222EC30E030939C027A
:101A400020939B0226EC30E030939E0220939D026F
:101A50001092A0021092A1021092A2021092A30270
:101A60001092270310922603809328039093290352
:101A7000A0932A03B0932B038EE391E09093250368
:101A800080932403EFE8F3E08BEA93E0158214825D
:101A9000168212821182108237968E179F07B1F735
:101AA0001092B7031092BA031092B6031092B503C6
:101AB0001092CB031092CE031092CA031092C90366
:101AC000E4EDF3E08CE094E014821382158210823E
:101AD000168237968E179F07B9F780E680938C039E
:101AE0008093D303109288031092890310928A0383
:101AF00010928B0380919C0381110FC081E0809331
:101B00009C038CE893E090939B0380939A038AE074
:101B1000809397038BE08093980386E993E09093FA
:101B20008303809382038091AA0381110FC083E015
:101B30008093AA038CE893E09093A9038093A80371
:101B40008DE08093A5038CE08093A60384EA93E064
:101B500090938103809380038091950381110CC041
:101B60008CE893E0909394038093930388E08093B0
:101B7000900389E0809391038FE893E090937F0333
:101B800080937E038091A30381110FC082E0809334
:101B9000A3038CE893E09093A2038093A1038FE0CA
:101BA00080939E038EE080939F038DE993E0909352
:101BB0007D0380937C038091E003811113C081E059
:101BC0008093E0032CE833E03093DF032093DE03BF
:101BD0008093DB0380918D0390918E039093DD03BE
:101BE0008093DC038BED93E090937B0380937A03E7
:101BF0008091E703811113C082E08093E7032CE812
:101C000033E03093E6032093E5038093E203809171
:101C10008D0390918E039093E4038093E30382EE0F
:101C200093E090937903809378038091EE03811180
:101C300013C083E08093EE032CE833E03093ED0390
:101C40002093EC038093E90380918D0390918E03A0
:101C50009093EB038093EA0389EE93E090937703EC
:101C6000809376038091F503811113C084E0809303
:101C7000F5032CE833E03093F4032093F3038093CF
:101C8000F00380918D0390918E039093F2038093E3
:101C9000F10380EF93E0909375038093740361E008
:101CA00083E693E00E94B90C62E082E593E00E9433
:101CB000B90C63E081E493E00E94B90C64E080E336
:101CC00093E00C94B90C789484B5826084BD84B59B
:101CD000816084BD85B5826085BD85B5816085BD27
:101CE00080916E00816080936E00109281008091DF
:101CF0008100826080938100809181008160809367
:101D00008100809180008160809380008091B1008B
:101D100084608093B1008091B00081608093B000B6
:101D200080917A00846080937A0080917A0082604A
:101D300080937A0080917A00816080937A0080910C
:101D40007A00806880937A001092C1000E94BF02DE
:101D50000E94BF0260E080E00E946C0582E390E098
:101D600090938E0380938D038091D30391E09093A1
:101D7000630280938502109264021092860260E0F2
:101D800084E293E00E94FD040E94F70261E08091EA
:101D9000D3030E94DE03109216028093150284E2A0
:101DA00093E00E94BD04C82F682F6F76606180E0C9
:101DB0000E946C0567E88EEF0E946C056C2F80E036
:101DC0000E946C0565E070E080E090E00E944702B0
:101DD0006C2F616A80E00E946C05C0E030E020E07A
:101DE00050E040E06C2F83ED93E00E948605CF5FCA
:101DF000C031A1F7E0919702F091980282E08083D0
:101E0000E0919302F09194021082E0919502F0919A
:101E100096028FEC808310929F02E0919B02F091DA
:101E20009C0286E08083E0919902F0919A02808181
:101E300080618083E0919902F0919A0280818860AC
:101E40008083E0919902F0919A028081806880837A
:101E5000E0919902F0919A0280818F7D80838FE3D7
:101E6000809384038FEF809387030E94BF02809149
:101E700087038F3FC1F18FE10E94DB0682FF05C01F
:101E8000682F6B7F8FE10E945205C09187038EE01F
:101E90000E94070761E070E002C0660F771FCA95D5
:101EA000E2F760957095682379238EE00E943105F2
:101EB00060E0809187030E945D0761E070E080E050
:101EC00090E00E94470261E0809187030E945D07D5
:101ED00083E10E94070781159F4F71F08FE491E025
:101EE0000E94C606FFCF62E18DE70E94520564E3BF
:101EF0008DE70E945205ECCF60E48EE10E9452050E
:101F000080E894E8AEE1B0E0809388039093890381
:101F1000A0938A03B0938B038FE10E94DB068F7836
:101F2000682F60618FE10E9452058EE00E940707D2
:101F3000BC0161608EE00E9431058EE00E940707BF
:101F4000BC0162608EE00E9431058EE00E940707AE
:101F5000BC0164608EE00E9431058EE00E9407079C
:101F6000BC0168608EE00E9431058EE00E94070788
:101F7000BC0160618EE00E943105C0917A03D0916E
:101F80007B0340E050E060E87FE3CE010E94C9059A
:101F90001DE21E83C0917803D091790340E050E0A8
:101FA00060E87FE3CE010E94C9051E83C0917603DD
:101FB000D091770340E050E060EC7FE3CE010E94D7
:101FC000C9058AE58E83C0917403D091750340E002
:101FD00050E060E07FE3CE010E94C9051E8268EEFA
:101FE00073E080E090E00E94470210920802109295
:101FF000090210920A0210920B021092040210922F
:10200000050210920602109207028CE090E0909375
:102010000302809302028AE590E09093010280938C
:1020200000028091020290910302409100025091BF
:102030000102880F991F880F991F849F9001859F27
:10204000300D949F300D11243093FF012093FE0139
:10205000C0E0D0E080E00E943E0791E0811101C025
:1020600090E09093100281E00E943E0791E0811180
:1020700001C090E090930F0282E00E943E0791E041
:10208000811101C090E090930E0283E00E943E0710
:1020900091E0811101C090E090930D0284E00E94D4
:1020A0003E0791E0811101C090E090930C0286E61A
:1020B00091E00E94540680910C0290E00E94D406A8
:1020C00080910D0290E00E94D40680910E0290E073
:1020D0000E94D40680910F0290E00E94D406609185
:1020E000100270E090E080E04AE00E9461068CE41B
:1020F00091E00E94540680910E02811119C080E582
:1021000090E00E947F088EE791E00E94C60662E39D
:1021100070E080E090E00E944702209709F49ACF97
:102120000E94FF00882309F495CF0E94000092CFFF
:1021300080910D02811105C00E94170886E891E088
:10214000E4CF80910F02811105C00E944B088CE8FA
:1021500091E0DBCF80910C02811105C00E9417082D
:1021600083E991E0D2CF80911002811105C00E94D5
:102170004B0889E991E0C9CF88E290E00E947F088E
:10218000C6CFA1E21A2EAA1BBB1BFD010DC0AA1FC0
:10219000BB1FEE1FFF1FA217B307E407F50720F0D0
:1021A000A21BB30BE40BF50B661F771F881F991F4B
:1021B0001A9469F760957095809590959B01AC0194
:1021C000BD01CF0108950E94F7100C949B110E944D
:1021D000941158F00E948D1140F029F45F3F29F0CE
:1021E0000C94841151110C94CF110C948A110E94FB
:1021F000AC1168F39923B1F3552391F3951B550B5B
:10220000BB27AA2762177307840738F09F5F5F4FC9
:10221000220F331F441FAA1FA9F335D00E2E3AF008
:10222000E0E832D091505040E695001CCAF72BD020
:10223000FE2F29D0660F771F881FBB1F2617370771
:102240004807AB07B0E809F0BB0B802DBF01FF27A3
:1022500093585F4F3AF09E3F510578F00C948411EB
:102260000C94CF115F3FE4F3983ED4F386957795B5
:102270006795B795F7959F5FC9F7880F911D96955C
:10228000879597F90895E1E0660F771F881FBB1FB8
:10229000621773078407BA0720F0621B730B840B65
:1022A000BA0BEE1F88F7E09508950E94B41188F0EC
:1022B0009F5798F0B92F9927B751B0F0E1F0660F0A
:1022C000771F881F991F1AF0BA95C9F714C0B1304B
:1022D00091F00E94CE11B1E008950C94CE11672FB9
:1022E000782F8827B85F39F0B93FCCF3869577957A
:1022F0006795B395D9F73EF4909580957095619563
:102300007F4F8F4F9F4F089597F99F6780E870E048
:1023100060E008959FEF80EC089500240A9416165B
:10232000170618060906089500240A9412161306C3
:10233000140605060895092E0394000C11F4882351
:1023400052F0BB0F40F4BF2B11F460FF04C06F5F6D
:102350007F4F8F4F9F4F089557FD9058440F551F43
:1023600059F05F3F71F04795880F97FB991F61F017
:102370009F3F79F087950895121613061406551F8E
:10238000F2CF4695F1DF08C0161617061806991FFA
:10239000F1CF86957105610508940895E894BB27EF
:1023A00066277727CB0197F908950E94E8110C94CE
:1023B0009B110E948D1138F00E94941120F09523FA
:1023C00011F00C9484110C948A1111240C94CF11E7
:1023D0000E94AC1170F3959FC1F3950F50E0551F0B
:1023E000629FF001729FBB27F00DB11D639FAA276A
:1023F000F00DB11DAA1F649F6627B00DA11D661FB9
:10240000829F2227B00DA11D621F739FB00DA11DD9
:10241000621F839FA00D611D221F749F3327A00D93
:10242000611D231F849F600D211D822F762F6A2F2F
:1024300011249F5750409AF0F1F088234AF0EE0F94
:10244000FF1FBB1F661F771F881F91505040A9F7C1
:102450009E3F510580F00C9484110C94CF115F3F86
:10246000E4F3983ED4F3869577956795B795F795FD
:10247000E7959F5FC1F7FE2B880F911D9695879575
:1024800097F90895EE0FFF1F0590F491E02D099440
:10249000F894FFCF79027902790279027902790200
:1024A0007902790279027902790279027902790254
:1024B000790279027902790279027902000000003A
:1024C00035019500C2008201F300D100E500000053
:1024D0000000FD04D004E405AD048C00BD04AE048E
:1024E0000D0A004661696C656420746F20636F6D2E
:1024F0006D756E69636174652E00534F2C53312CDA
:1025000053322C53332C5334207374617475733AE3
:102510002000666F7277617264006C6566743100CA
:10252000726967687431006C65667432007269673D
:042530006874320099
:107E0000112484B714BE81FFF0D085E080938100F7
:107E100082E08093C00088E18093C10086E0809377
:107E2000C20080E18093C4008EE0C9D0259A86E02C
:107E300020E33CEF91E0309385002093840096BBD3
:107E4000B09BFECF1D9AA8958150A9F7CC24DD24C4
:107E500088248394B5E0AB2EA1E19A2EF3E0BF2EE7
:107E6000A2D0813461F49FD0082FAFD0023811F036
:107E7000013811F484E001C083E08DD089C08234E0
:107E800011F484E103C0853419F485E0A6D080C0E4
:107E9000853579F488D0E82EFF2485D0082F10E0AE
:107EA000102F00270E291F29000F111F8ED06801E7
:107EB0006FC0863521F484E090D080E0DECF843638
:107EC00009F040C070D06FD0082F6DD080E0C81688
:107ED00080E7D80618F4F601B7BEE895C0E0D1E017
:107EE00062D089930C17E1F7F0E0CF16F0E7DF06D8
:107EF00018F0F601B7BEE89568D007B600FCFDCFD4
:107F0000A601A0E0B1E02C9130E011968C91119780
:107F100090E0982F8827822B932B1296FA010C0160
:107F200087BEE89511244E5F5F4FF1E0A038BF0790
:107F300051F7F601A7BEE89507B600FCFDCF97BE46
:107F4000E89526C08437B1F42ED02DD0F82E2BD052
:107F50003CD0F601EF2C8F010F5F1F4F84911BD097
:107F6000EA94F801C1F70894C11CD11CFA94CF0C13
:107F7000D11C0EC0853739F428D08EE10CD085E9AC
:107F80000AD08FE07ACF813511F488E018D01DD067
:107F900080E101D065CF982F8091C00085FFFCCF94
:107FA0009093C60008958091C00087FFFCCF809118
:107FB000C00084FD01C0A8958091C6000895E0E648
:107FC000F0E098E1908380830895EDDF803219F02E
:107FD00088E0F5DFFFCF84E1DECF1F93182FE3DFCA
:107FE0001150E9F7F2DF1F91089580E0E8DFEE27F6
:047FF000FF270994CA
:027FFE00040479
:00000001FF
