:020000040000FA
:100000000C9462000C948A000C948A000C94D2091F
:100010000C9472090C9404090C948A000C948A00C4
:100020000C948A000C948A000C948A000C948A0028
:100030000C948A000C948A000C948A000C948A0018
:100040000C94BA080C948A000C9488080C946208EA
:100050000C948A000C948A000C948A000C948A00F8
:100060000C94320A0C948A00000000002300260041
:10007000290000000008000201000003040700003E
:1000800000000000000000000000250028002B00F8
:1000900000000000240027002A00040404040404D3
:1000A0000404020202020202030303030303010227
:1000B00004081020408001020408102001020408F6
:1000C0001020620C11241FBECFEFD8E0DEBFCDBFE1
:1000D00011E0A0E0B1E0EEECF5E202C005900D9277
:1000E000AC3AB107D9F724E0ACEAB1E001C01D9207
:1000F000AC31B207E1F710E0C2E6D0E004C02197CE
:10010000FE010E94DF12C136D107C9F70E94D70D48
:100110000C94E5120C940000809125029091260227
:10012000891B990B089508950895AF92BF92CF92BD
:10013000DF92EF92FF920F931F93CF93DF936C01A7
:100140007B018B01040F151FEB015E01AE18BF0888
:10015000C017D10759F06991D601ED91FC9101903A
:10016000F081E02DC6010995892B79F7C501DF9152
:10017000CF911F910F91FF90EF90DF90CF90BF90A4
:10018000AF900895FC01538D448D252F30E0842FCE
:1001900090E0821B930B541710F0CF9608950197AF
:1001A0000895FC01918D828D981761F0A28DAE0F9C
:1001B000BF2FB11D5D968C91928D9F5F9F73928F23
:1001C00090E008958FEF9FEF0895FC01918D828D4F
:1001D000981731F0828DE80FF11D858D90E008951C
:1001E0008FEF9FEF0895FC01918D228D892F90E074
:1001F000805C9F4F821B91098F739927089587E92F
:1002000092E00E94F30021E0892B09F420E0822F84
:10021000089580E090E0892B29F00E94FF00811171
:100220000C9400000895FC01A48DA80FB92FB11DF6
:10023000A35ABF4F2C91848D90E001968F7399271C
:10024000848FA689B7892C93A089B1898C918370FA
:1002500080648C93938D848D981306C00288F389F3
:10026000E02D80818F7D80830895EF92FF920F9320
:100270001F93CF93DF93EC0181E0888F9B8D8C8D52
:1002800098131AC0E889F989808185FF15C09FB746
:10029000F894EE89FF896083E889F9898081837009
:1002A000806480839FBF81E090E0DF91CF911F91B8
:1002B0000F91FF90EF900895F62E0B8D10E00F5FD9
:1002C0001F4F0F731127E02E8C8D8E110CC00FB6AF
:1002D00007FCFACFE889F989808185FFF5CFCE0147
:1002E0000E941301F1CFEB8DEC0FFD2FF11DE35AAE
:1002F000FF4FF0829FB7F8940B8FEA89FB898081CA
:100300008062CFCFCF93DF93EC01888D8823B9F043
:10031000AA89BB89E889F9898C9185FD03C0808110
:1003200086FD0DC00FB607FCF7CF8C9185FFF2CF8D
:10033000808185FFEDCFCE010E941301E9CFDF91CF
:10034000CF910895833081F028F4813099F0823084
:10035000A9F008958730A9F08830C9F08430B1F44D
:10036000809180008F7D03C0809180008F77809383
:100370008000089584B58F7784BD089584B58F7DFE
:10038000FBCF8091B0008F778093B000089580916B
:10039000B0008F7DF9CFCF93DF93282F30E0F901A4
:1003A000EE58FF4F8491F901E255FF4FD491F901C6
:1003B000E656FF4FC491CC23A1F081110E94A20107
:1003C000EC2FF0E0EE0FFF1FE859FF4FA591B4911D
:1003D000EC91ED2381E090E009F480E0DF91CF9192
:1003E000089580E090E0FACF1F93CF93DF93282FFA
:1003F00030E0F901EE58FF4F8491F901E255FF4FCB
:10040000D491F901E656FF4FC491CC23A9F0162FE1
:1004100081110E94A201EC2FF0E0EE0FFF1FEA57BE
:10042000FF4FA591B4918FB7F894EC91111108C0CA
:10043000D095DE23DC938FBFDF91CF911F9108957C
:10044000DE2BF8CF3FB7F894809106029091070217
:10045000A0910802B091090226B5A89B05C02F3FC4
:1004600019F00196A11DB11D3FBFBA2FA92F982FDA
:100470008827BC01CD01620F711D811D911D42E0D5
:10048000660F771F881F991F4A95D1F708958F929D
:100490009F92AF92BF92CF92DF92EF92FF924B0169
:1004A0005C010E9422026B017C010E9422026C19F5
:1004B0007D098E099F09683E734081059105A8F367
:1004C00021E0821A9108A108B10888EEC80E83E0E5
:1004D000D81EE11CF11C81149104A104B10429F778
:1004E000FF90EF90DF90CF90BF90AF909F908F9054
:1004F000089508952091D501260F3327331F213207
:100500003105ECF420916D02FC0190E080E0243094
:1005100069F082E00895A091D5012191AC014B547E
:100520005E4FA40FB52FB11D2C930196861798F33B
:100530008091D501680F6093D50180E0089581E036
:10054000089510926D0281E080936C021092470230
:1005500061E082E10E94F40161E083E10E94F40124
:10056000E9EBF0E080818E7F808380818D7F8083C6
:1005700088E48093B80085E48093BC0008951092CD
:1005800026021092250210927402109296020E9486
:10059000A10283E990E0909324028093230284E9EE
:1005A00090E090932202809321020895CF93DF93ED
:1005B00091E09093B4018823B9F0C091B800D09134
:1005C000BA008091BC008A7B8093BC0060E082E12D
:1005D0000E94F40160E083E10E94F4010E94A10204
:1005E000D093BA00C093B800DF91CF910895CF9215
:1005F000DF92EF92FF920F931F93CF93DF93D091EF
:10060000960281E0D13208F09CC0C09195020E9410
:1006100022026B017C0180916D0281116CC082E02D
:1006200080936D0281E080936C028FEF80936B0268
:1006300010926A02D0936902A5E7B2E0E9E4F2E021
:1006400080E0D8138DC01092480280914802CC0FF0
:10065000C82BC093480280914702813009F084C0C2
:10066000109247020E9422026B017C018091480295
:100670008093BB0080916F0290917002A0917102F3
:10068000B0917202892B8A2B8B2BA1F00E9422023F
:1006900000916F02109170022091710230917202EC
:1006A0006C197D098E099F09061717072807390756
:1006B00008F442C08091BC0083FDD8CF85EC8093C4
:1006C000BC000E9422026B017C0180916D0282308D
:1006D00009F44CC080916B028F3F09F469C080918E
:1006E0006B02803209F466C080916B02803309F49A
:1006F00063C084E026C080916F0290917002A09147
:100700007102B0917202892B8A2B8B2B09F483CF53
:100710000E94220200916F021091700220917102DA
:10072000309172026C197D098E099F09061717070F
:100730002807390708F06FCF80916E020E94D60219
:1007400085E0109274021092960210927302DF916B
:10075000CF911F910F91FF90EF90DF90CF90089570
:100760009D9191938F5F6DCF85EEA9CF80916F02A0
:1007700090917002A0917102B0917202892B8A2B24
:100780008B2B09F4A2CF0E94220200916F021091DC
:10079000700220917102309172026C197D098E09EC
:1007A0009F09061717072807390708F08ECFC4CF0F
:1007B00080E0C7CF82E0C5CF83E0C3CFCF92DF9286
:1007C000EF92FF920F931F93CF93DF93D82FC62FF3
:1007D000613208F098C00E9422026B017C01809176
:1007E0006D0281116BC081E080936D0280936C0279
:1007F0009FEF90936B0210926A029C0F9093690294
:100800008093480280914802DD0FD82BD093480294
:1008100080914702813009F078C0109247020E940F
:1008200022026B017C01809148028093BB00809181
:100830006F0290917002A0917102B0917202892BA7
:100840008A2B8B2BA1F00E94220200916F02109143
:10085000700220917102309172026C197D098E092B
:100860009F09061717072807390708F448C0809121
:10087000BC0083FDD8CF85EC8093BC000E9422028F
:100880006B017C0180916D02813009F440C0809140
:100890006A028C1710F4C0916A02E9E4F2E0A7E260
:1008A000B2E080E08C1355C08C2FDF91CF911F9167
:1008B0000F91FF90EF90DF90CF90089580916F029D
:1008C00090917002A0917102B0917202892B8A2BD3
:1008D0008B2B09F484CF0E94220200916F021091A9
:1008E000700220917102309172026C197D098E099B
:1008F0009F09061717072807390708F070CF80915E
:100900006E020E94D602C0E0CFCF85EEB5CF8091B7
:100910006F0290917002A0917102B0917202892BC6
:100920008A2B8B2B09F4AECF0E94220200916F021A
:100930001091700220917102309172026C197D0940
:100940008E099F09061717072807390708F09ACF5D
:10095000D6CF91919D938F5FA5CF0895E091260208
:1009600080912502E81730F4F0E0E95DFD4F8081C9
:1009700090E008958FEF9FEF089590912602809167
:1009800025022FEF3FEF981748F4E92FF0E0E95DDB
:10099000FD4F208130E09F5F90932602C9010895AA
:1009A000CF92DF92EF92FF920F931F93CF93DF933B
:1009B0007C01CB018A0120917302222389F0EB0193
:1009C0006B01C40ED51ECC15DD0569F06991D70108
:1009D000ED91FC910190F081E02DC7010995F3CFD5
:1009E000642F0E947A02C801DF91CF911F910F916D
:1009F000FF90EF90DF90CF900895CF93DF931F92F9
:100A0000CDB7DEB76983209173022223F9F02091DC
:100A10009602203258F021E030E0FC01338322833B
:100A200090E080E00F90DF91CF9108958091740263
:100A3000E82FF0E0EB58FD4F998190838F5F809312
:100A400074028093960281E090E0ECCF61E0CE01E9
:100A500001960E947A02F7CF682F84E393E00C940A
:100A6000FD04CF93DF93EB019091940321E0209359
:100A70007302909395021092740210929602682F5E
:100A800084E393E00E94FD046D2F84E393E00E94D1
:100A9000FD046C2F84E393E00E94FD04DF91CF916D
:100AA0000C94F702CF93C62F9091940321E02093EA
:100AB0007302909395021092740210929602682F1E
:100AC00084E393E00E94FD046C2F84E393E00E9492
:100AD000FD04CF910C94F702CF93C62F9091E303BE
:100AE00021E0209373029093950210927402109269
:100AF0009602682F84E393E00E94FD046C2F84E348
:100B000093E00E94FD04CF910C94F7020F931F9382
:100B1000CF93DF93042FD52F122FC32FFC01808199
:100B200091E0909373028093950210927402109258
:100B30009602F4E06F9FB00111246A5F7F4F84E357
:100B400093E00E94FD04802F9D2F0E942C058D2F85
:100B500090E00E942C05812F9C2F0E942C058C2F49
:100B600090E00E942C05DF91CF911F910F910C9482
:100B7000F7029A01895B9F4F211540E1340730F05D
:100B800030E020E040E050E10C94860550E040E089
:100B9000FBCFCF93DF93EC01CB01BA0120E030E033
:100BA0004AE754E40E94721220E030E44CE950E439
:100BB0000E9480110E94F211AB0168818B819C819F
:100BC000DF91CF910C94B90590E080E008951F93D8
:100BD000CF93DF93EC0188810E94CB01182F89818C
:100BE0000E94CB01EA81E3701111E4608111E86099
:100BF0008E2F90E095958795959587958A83E150FE
:100C0000EE30F0F4F0E0E95FF94F0C94DF121506D6
:100C100024062C062406200634061506150634067E
:100C2000200624062C06240615068B819C81AD81A6
:100C3000BE810196A11DB11D8B839C83AD83BE83B4
:100C4000DF91CF911F9108958B819C81AD81BE81F1
:100C50000197A109B109F0CF8B819C81AD81BE8143
:100C60000296A11DB11DE8CF8B819C81AD81BE8113
:100C70000297A109B109E0CF8091B2019091B3012F
:100C80000C94E7058091B0019091B1010C94E705B7
:100C90008091AE019091AF010C94E7058091AC0179
:100CA0009091AD010C94E705FC0101900020E9F75B
:100CB0003197AF01481B590BBC0187E992E00C94B6
:100CC00095008F929F92AF92BF920F931F93CF93F5
:100CD000DF93CDB7DEB7A1970FB6F894DEBF0FBE96
:100CE000CDBF19A2423008F44AE08E010F5D1F4FBC
:100CF000842E912CB12CA12CA50194010E945E118F
:100D0000E62FB901CA01EA30F4F4E05DD801EE93B0
:100D10008D01232B242B252B79F790E080E0109771
:100D200019F0CD010E945406A1960FB6F894DEBFCB
:100D30000FBECDBFDF91CF911F910F91BF90AF90AC
:100D40009F908F900895E95CE1CFCF93DF93D0E03F
:100D5000C0E0009719F00E945406EC018AE591E08A
:100D60000E9454068C0F9D1FDF91CF9108959091A2
:100D7000940321E0209373029093950210927402E1
:100D800010929602682F84E393E00E94FD040E9473
:100D9000F70261E0809194030E94DE031092260224
:100DA0008093250228EE33E0811106C0211531051C
:100DB00041F021503109FACF84E393E00E94BD0451
:100DC000089580E00895CF939091940321E02093BB
:100DD0007302909395021092740210929602682FFB
:100DE00084E393E00E94FD040E94F70262E0809198
:100DF00094030E94DE03282F10922602809325027E
:100E000080ED97E0223020F4009791F00197FACF1F
:100E1000009771F084E393E00E94BD04C82F84E33F
:100E200093E00E94BD0420E03C2FA901482BCA0199
:100E3000CF9108951F93CF93DF93182F8EE00E94D8
:100E4000E306C1E0D0E002C0CC0FDD1F1A95E2F747
:100E50008C239D23892B41F080E10E94E306C82367
:100E6000D92381E0CD2B09F480E0DF91CF911F9150
:100E70000895EF92FF920F931F93CF93DF93D82F94
:100E8000F62E8EE00E94E30661E070E09B0102C056
:100E9000220F331FDA95E2F7E901809590958223BE
:100EA0009D23892BB1F080E10E94E306BE01682BEF
:100EB000792BF11005C0C095D095BE016823792328
:100EC00080E1DF91CF911F910F91FF90EF900C94F3
:100ED000310586E00E94E3068C0188E00E94E3066B
:100EE000BE0160957095FF2061F07C01E622F7223B
:100EF000BE01602B712B86E00E943105B70188E0AE
:100F0000E0CFC82BD92B6023712386E00E943105E6
:100F1000BE01F5CFCF93DF93EC016B836230D1F14B
:100F200028F4613001F1DF91CF910895633009F425
:100F300043C06430C1F78C819D8130E020E050E0F7
:100F400040E06981895B9F4F0E9486058C819D816D
:100F500030E020E050E040E06A81895B9F4FDF9104
:100F6000CF910C9486058C819D8130E020E050E08B
:100F700040E06A81895B9F4F0E948605488180E13D
:100F8000489FA001112469818C819D81DF91CF91BF
:100F90000C94B9058C819D8130E020E050E040E068
:100FA0006981895B9F4F0E948605488180E1489F47
:100FB000A00111246A81E8CF8C819D8130E020E07E
:100FC00040E050E16981895B9F4F0E9486058C81DA
:100FD0009D8130E020E040E050E1BECFFC01608325
:100FE00063810C948A070F931F93CF93C82F0091AE
:100FF0008E0310918F03682FC8010E94EE0761E0F5
:10100000C8010E948A0700919203109193036C2FEC
:10101000C8010E94EE0761E0C8010E948A070091A2
:101020008C0310918D036C2FC8010E94EE0761E0C4
:10103000C8010E948A0700919003109191036C2FC0
:10104000C8010E94EE0761E0C801CF911F910F9186
:101050000C948A0785ED8093BC0080916F0290917B
:101060007002A0917102B09172020796A11DB11D8C
:1010700023E0B695A795979587952A95D1F7209166
:10108000BC0024FD03C010926D02089540916F02D0
:10109000509170026091710270917202452B462B43
:1010A000472B69F30097A105B10541F025E32A9587
:1010B000F1F700000197A109B109E1CF80916E021B
:1010C0000C94D6021F920F920FB60F9211242F93F9
:1010D0003F934F935F936F937F938F939F93AF93C0
:1010E000BF93EF93FF9387E992E00E941301FF9172
:1010F000EF91BF91AF919F918F917F916F915F9190
:101100004F913F912F910F900FBE0F901F90189508
:101110001F920F920FB60F9211242F938F939F93CC
:10112000EF93FF93E091A702F091A8028081E091F4
:10113000AD02F091AE0282FD1BC090818091B002A1
:101140008F5F8F732091B102821741F0E091B0025E
:10115000F0E0E956FD4F958F8093B002FF91EF913B
:101160009F918F912F910F900FBE0F901F90189508
:101170008081F4CF1F920F920FB60F9211242F93FC
:101180003F938F939F93AF93BF938091020290916F
:101190000302A0910402B09105023091010223E004
:1011A000230F2D3758F50196A11DB11D2093010283
:1011B0008093020290930302A0930402B09305026D
:1011C0008091060290910702A0910802B091090255
:1011D0000196A11DB11D8093060290930702A09372
:1011E0000802B0930902BF91AF919F918F913F91F7
:1011F0002F910F900FBE0F901F90189526E8230F88
:101200000296A11DB11DD2CF1F920F920FB60F9261
:1012100011242F933F934F935F936F937F938F93FB
:101220009F93AF93BF93CF93EF93FF9399B1809127
:101230000002C091FD01C923282F2095C2232091CF
:10124000FA018223292F20958223C82B9093000234
:10125000C4FF05C0E0911801F09119010995C5FF7F
:1012600005C0E0911A01F0911B010995C6FF05C068
:10127000E0911C01F0911D010995C7FF05C0E091A7
:101280001E01F0911F010995C0FF05C0E0912001EA
:10129000F09121010995C1FF05C0E0912201F09173
:1012A00023010995C2FF05C0E0912401F0912501B9
:1012B0000995C3FF05C0E0912601F091270109952A
:1012C000FF91EF91CF91BF91AF919F918F917F91BE
:1012D0006F915F914F913F912F910F900FBE0F90A3
:1012E0001F9018951F920F920FB60F9211242F93F3
:1012F0003F934F935F936F937F938F939F93AF939E
:10130000BF93CF93EF93FF9396B18091FF01C0916C
:10131000FC01C923282F2095C2232091F9018223A3
:10132000292F20958223C82B9093FF01C0FF05C071
:10133000E0910C01F0910D010995C1FF05C0E0910C
:101340000E01F0910F010995C2FF05C0E091100157
:10135000F09111010995C3FF05C0E0911201F091D0
:1013600013010995C4FF05C0E0911401F091150126
:101370000995C5FF05C0E0911601F0911701099587
:10138000FF91EF91CF91BF91AF919F918F917F91FD
:101390006F915F914F913F912F910F900FBE0F90E2
:1013A0001F9018951F920F920FB60F9211242F9332
:1013B0003F934F935F936F937F938F939F93AF93DD
:1013C000BF93CF93EF93FF9393B18091FE01C091B0
:1013D000FB01C923282F2095C2232091F8018223E5
:1013E000292F20958223C82B9093FE01C0FF05C0B2
:1013F000E0910001F09101010995C1FF05C0E09164
:101400000201F09103010995C2FF05C0E0910401BA
:10141000F09105010995C3FF05C0E0910601F09127
:1014200007010995C4FF05C0E0910801F091090189
:101430000995C5FF05C0E0910A01F0910B010995DE
:10144000FF91EF91CF91BF91AF919F918F917F913C
:101450006F915F914F913F912F910F900FBE0F9021
:101460001F9018951F920F920FB60F9211242F9371
:101470003F934F935F936F937F938F939F93AF931C
:10148000BF93EF93FF938091B900887F803609F472
:101490004AC0F0F5883209F4A7C018F5803109F484
:1014A0009BC0B8F4882309F4F9C0883009F494C0CB
:1014B000FF91EF91BF91AF919F918F917F916F912C
:1014C0005F914F913F912F910F900FBE0F901F9002
:1014D0001895883109F488C0803251F780936B02E7
:1014E00014C0803409F49DC040F48033B9F38833CC
:1014F000F9F680936B0285ECB0C0803509F485C0A5
:10150000883509F496C0883499F60E942A08D0CF0D
:10151000883909F48CC038F5883729F050F48836BA
:1015200011F0803729F683E080936D021092F70165
:1015300057C0883809F47BC0803919F0803809F029
:10154000B7CF8091F701803208F071C0E091F701C8
:1015500081E08E0F8093F7018091BB00F0E0E952AB
:10156000FE4F80833DC0803B39F0E0F4803A09F4BF
:1015700079C0883A09F09CCF84E080936D02109284
:10158000D6011092D501E0912302F0912402099531
:101590008091D50181110FC081E08093D501109217
:1015A000B50109C0803C09F4A6CF883C09F4A3CF5B
:1015B000883B09F07DCFE091D60181E08E0F8093CA
:1015C000D601F0E0EB54FE4F80818093BB009091F8
:1015D000D6018091D50129C0809148028093BB003B
:1015E00085EC8093BC0064CF90916A02809169027F
:1015F000981758F5E0916A0281E08E0F80936A0295
:10160000F0E0E75BFD4F8081E9CFE0916A0281E085
:101610008E0F80936A028091BB00F0E0E75BFD4F84
:10162000808390916A02809169029817C8F285E8D8
:10163000D8CFE0916A0281E08E0F80936A02809198
:10164000BB00F0E0E75BFD4F808380916C0281116D
:101650005CCF81E08093470284EA8093BC001092C3
:101660006D0226CF85EC8093BC0010926D028091B4
:10167000F701803230F4E091F701F0E0E952FE4FDB
:1016800010826091F70170E0E0912102F091220256
:1016900087ED91E009951092F7010ACF10926B0245
:1016A00034CFCF93DF9390E0FC01E255FF4F2491BC
:1016B00086569F4FFC0184918823C1F090E0880FEB
:1016C000991FFC01E057FF4FC591D491FC01EA57E7
:1016D000FF4FA591B4919FB7F8943881822F8095E0
:1016E00083238883EC91E22BEC939FBFDF91CF9112
:1016F00008958130F1F0B0F08230E9F0E82FF0E0A9
:10170000E559FF4F9081692B60839091680021E03B
:1017100030E001C0220F8A95EAF7892F822B80934F
:101720006800089593B1E42FF0E0E250FE4F9083FB
:10173000E5CF96B1F8CF99B1F6CF883088F590E132
:10174000980F2091FD013091FA01863008F064C0B5
:10175000843008F047C07093AD016093AC01805FA6
:101760002EE436E0823109F064C0309325012093E5
:101770002401877061E070E001C0660F8A95EAF786
:101780008091FD01862B8093FD018091FA01862BCB
:101790008093FA0142E082E00E94790B81E0089593
:1017A0008A30C8F67093B3016093B20188502CE37D
:1017B00036E009F04DC0309301012093000161E053
:1017C00070E001C0660F8A95EAF78091FB01862BD5
:1017D0008093FB018091F801862B8093F80140E013
:1017E00080E0DACF7093AF016093AE0148E456E039
:1017F000943121F55093190140931801977061E0DD
:1018000070E001C0660F9A95EAF7262B2093FD0140
:10181000362B3093FA01BECF7093B1016093B001C3
:1018200042E456E0963179F450931D0140931C0137
:10183000E5CF30932701209326019BCF50931B01C6
:1018400040931A01DBCF50931F0140931E01D6CF66
:101850003093030120930201B2CF0F931F93CF93D4
:10186000DF93EC01615019E008E051F017E006E069
:10187000613031F014E005E0623011F412E003E071
:10188000802F0E94510B812F0E94510B80EE90E11E
:10189000998388830A871B871D861E861F86188A60
:1018A0008BE39FE10197F1F71C862A96BE01802FFA
:1018B0000E949D0BBE01812FDF91CF911F910F914F
:1018C0000C949D0B10929A021092990288EE93E06C
:1018D000A0E0B0E080939B0290939C02A0939D02B5
:1018E000B0939E022AE331E030939802209397024E
:1018F00025EC30E03093A4022093A30224EC30E0E6
:101900003093A6022093A50220EC30E03093A80289
:101910002093A70221EC30E03093AA022093A90281
:1019200022EC30E03093AC022093AB0226EC30E0A6
:101930003093AE022093AD021092B0021092B10229
:101940001092B2021092B302109237031092360333
:101950008093380390933903A0933A03B0933B03E9
:101960008CE491E09093350380933403EFE9F3E046
:101970008BEB93E015821482168212821182108200
:1019800037968E179F07B1F71092C7031092CA03BC
:101990001092C6031092C5031092DB031092DE036F
:1019A0001092DA031092D903E4EEF3E08CE194E0B4
:1019B0001482138215821082168237968E179F0723
:1019C000B9F780E680939C038093E3031092980319
:1019D0001092990310929A0310929B038091AC038A
:1019E00081110FC081E08093AC038CE993E0909368
:1019F000AB038093AA038AE08093A7038BE08093D4
:101A0000A80386EA93E090939303809392038091D6
:101A1000BA0381110FC083E08093BA038CE993E08D
:101A20009093B9038093B8038DE08093B5038CE065
:101A30008093B60384EB93E090939103809390039B
:101A40008091A50381110CC08CE993E09093A403CD
:101A50008093A30388E08093A00389E08093A1038F
:101A60008FE993E090938F0380938E038091B3036B
:101A700081110FC082E08093B3038CE993E09093CF
:101A8000B2038093B1038FE08093AE038EE0809326
:101A9000AF038DEA93E090938D0380938C03809144
:101AA000F003811113C081E08093F0032CE933E04F
:101AB0003093EF032093EE038093EB0380919D031B
:101AC00090919E039093ED038093EC038BEE93E053
:101AD00090938B0380938A038091F703811113C045
:101AE00082E08093F7032CE933E03093F6032093F0
:101AF000F5038093F20380919D0390919E03909350
:101B0000F4038093F30382EF93E09093890380932F
:101B100088038091FE03811113C083E08093FE034C
:101B20002CE933E03093FD032093FC038093F90309
:101B300080919D0390919E039093FB038093FA0301
:101B400089EF93E090938703809386038091050447
:101B5000811113C084E0809305042CE933E03093B5
:101B60000404209303048093000480919D039091CA
:101B70009E03909302048093010480E094E090938C
:101B800085038093840361E083E793E00E942D0C3A
:101B900062E082E693E00E942D0C63E081E593E031
:101BA0000E942D0C64E080E493E00C942D0C78945A
:101BB00084B5826084BD84B5816084BD85B5826052
:101BC00085BD85B5816085BD80916E008160809303
:101BD0006E0010928100809181008260809381006C
:101BE000809181008160809381008091800081607C
:101BF000809380008091B10084608093B1008091D7
:101C0000B00081608093B00080917A0084608093FE
:101C10007A0080917A00826080937A0080917A00C5
:101C2000816080937A0080917A00806880937A0046
:101C30001092C1000E94BF020E94BF0260E080E0DB
:101C40000E946C0582E390E090939E0380939D0335
:101C50008091E30391E09093730280939502109238
:101C600074021092960260E084E393E00E94FD0407
:101C70000E94F70261E08091E3030E94DE0310926C
:101C800026028093250284E393E00E94BD04C82FBE
:101C9000682F6F76606180E00E946C0567E88EEFC8
:101CA0000E946C056C2F80E00E946C0565E070E07E
:101CB00080E090E00E9447026C2F616A80E00E9401
:101CC0006C05C0E030E020E050E040E06C2F83EE97
:101CD00093E00E948605CF5FC031A1F7E091A70293
:101CE000F091A80282E08083E091A302F091A40227
:101CF0001082E091A502F091A6028FEC80831092F1
:101D0000AF02E091AB02F091AC0286E08083E091FB
:101D1000A902F091AA02808180618083E091A902EA
:101D2000F091AA02808188608083E091A902F091FD
:101D3000AA02808180688083E091A902F091AA02C2
:101D400080818F7D80838FE3809394038FEF8093D6
:101D500097030E94BF02809197038F3FC1F18FE1EB
:101D60000E94B70682FF05C0682F6B7F8FE10E943B
:101D70005205C09197038EE00E94E30661E070E097
:101D800002C0660F771FCA95E2F7609570956823C9
:101D900079238EE00E94310560E0809197030E94D4
:101DA000390761E070E080E090E00E94470261E066
:101DB000809197030E94390783E10E94E306811511
:101DC0009F4F71F08DE591E00E94A506FFCF62E183
:101DD0008DE70E94520564E38DE70E945205ECCF27
:101DE00060E48EE10E94520580E894E8AEE1B0E044
:101DF0008093980390939903A0939A03B0939B03C5
:101E00008FE10E94B7068F78682F60618FE10E9492
:101E100052058EE00E94E306BC0161608EE00E94E4
:101E200031058EE00E94E306BC0162608EE00E94F4
:101E300031058EE00E94E306BC0164608EE00E94E2
:101E400031058EE00E94E306BC0168608EE00E94CE
:101E500031058EE00E94E306BC0160618EE00E94C5
:101E60003105C0918A03D0918B0340E050E060E8D7
:101E70007FE3CE010E94C9051DE21E83C091880345
:101E8000D091890340E050E060E87FE3CE010E94FA
:101E9000C9051E83C0918603D091870340E050E0BE
:101EA00060EC7FE3CE010E94C9058AE58E83C09174
:101EB0008403D091850340E050E060E07FE3CE01F1
:101EC0000E94C9051E8268EE73E080E090E00E94E7
:101ED00047021092140210921502109216021092EC
:101EE0001702109210021092110210921202109218
:101EF00013028CE090E090930F0280930E028AE52B
:101F000090E090930D0280930C0280910E029091CC
:101F10000F0240910C0250910D02880F991F880FFB
:101F2000991F849F9001859F300D949F300D11243F
:101F300030930B0220930A0236E0432E512C45E0E9
:101F4000642E712C54E0852E912C02E010E063E0A9
:101F5000A62EB12C84E791E00E94A50688E290E0CD
:101F60000E94F307C12CD12C7601C39496E0C916C8
:101F7000D104E104F10409F458C180E00E941A0779
:101F8000282E81E0211001C080E080931E0281E0B4
:101F90000E941A07382E81E0311001C080E0809342
:101FA0001C0282E00E941A07D82F81E0D11101C0E3
:101FB00080E080931B0283E00E941A07C82F81E013
:101FC000C11101C080E080931A0284E00E941A07C8
:101FD00091E0811101C090E090931D0261E070E0FA
:101FE000222011F070E060E021E030E0332011F0B9
:101FF00030E020E0620F731F21E030E0DD2311F0BC
:1020000030E020E0620F731F21E030E0CC2311F0BC
:1020100030E020E0620F731F21E030E0882311F0F0
:1020200030E020E0620F731F7093200260931F0264
:10203000222009F4A3C0332009F48AC0D11193C02F
:10204000CC2309F4BAC0882309F4B7C0109219024E
:1020500010921802072E000C880B990B4AE00E9480
:1020600061068AE591E00E945406E0911802F09121
:102070001902EE0FFF1FE85DFE4F808191810E94E3
:10208000A5068AE791E00E94A50680911F02909123
:10209000200203970CF46ACF80911E02882309F472
:1020A00091C0C0918E03D0918F036CEDCE010E9440
:1020B000EE0763E0CE010E948A07C0919203D0919F
:1020C000930368ECCE010E94EE0763E0CE010E940C
:1020D0008A07C0918C03D0918D036CE8CE010E94D9
:1020E000EE0761E0CE010E948A07C0919003D09173
:1020F00091036FEFCE010E94EE0761E0CE010E94D6
:102100008A0762E370E080E090E00E94470288E284
:1021100090E00E94F3078EE791E00E9454064AE0A7
:10212000C701B6010E9461068AE591E00E9454064B
:1021300095E0C916D10431F064EF71E080E090E0E1
:102140000E9447028FEFC81AD80AE80AF80A0ECF91
:10215000DD2399F1CC2389F1882379F110931902B9
:102160000093180277CFC11116C0882331F181E0A6
:1021700090E090931902809318026CCF332091F075
:10218000DD23D9F0CC23C9F08823B9F0909219024D
:10219000809218025FCF811110C0B0921902A092F4
:1021A000180258CFD11109C0C11107C0811105C053
:1021B00070921902609218024DCF5092190240920B
:1021C000180248CF80911D02882309F4A4CFC09142
:1021D0008E03D0918F0368ECCE010E94EE0761E080
:1021E000CE010E948A07C0919203D091930368ECBC
:1021F000CE010E94EE0761E0CE010E948A07C091E5
:102200008C03D0918D0368ECCE010E94EE0763E051
:10221000CE010E948A07C0919003D091910368EC8F
:10222000CE010E94EE0763E069CFC0918E03D0918A
:102230008F0360E0CE010E94EE0763E0CE010E94B2
:102240008A07C0919203D091930360E0CE010E946F
:10225000EE0763E0CE010E948A07C0918C03D09103
:102260008D0360E0CE010E94EE0763E0CE010E9484
:102270008A07C0919003D091910360E0CE010E9443
:10228000EE0763E0CE010E948A0768EE73E080E00B
:1022900090E00E94470268E873E180E090E00E94CD
:1022A000470280E090E0892B09F454CE0E94FF00A1
:1022B000882309F44FCE0E9400004CCEA1E21A2ED2
:1022C000AA1BBB1BFD010DC0AA1FBB1FEE1FFF1FDA
:1022D000A217B307E407F50720F0A21BB30BE40B2A
:1022E000F50B661F771F881F991F1A9469F7609571
:1022F0007095809590959B01AC01BD01CF0108952B
:102300000E9494110C9438120E94311258F00E94CD
:102310002A1240F029F45F3F29F00C942112511148
:102320000C946C120C9427120E94491268F39923A2
:10233000B1F3552391F3951B550BBB27AA276217C1
:102340007307840738F09F5F5F4F220F331F441FCE
:10235000AA1FA9F335D00E2E3AF0E0E832D0915002
:102360005040E695001CCAF72BD0FE2F29D0660FEF
:10237000771F881FBB1F261737074807AB07B0E832
:1023800009F0BB0B802DBF01FF2793585F4F3AF038
:102390009E3F510578F00C9421120C946C125F3F13
:1023A000E4F3983ED4F3869577956795B795F795BE
:1023B0009F5FC9F7880F911D9695879597F90895A6
:1023C000E1E0660F771F881FBB1F62177307840742
:1023D000BA0720F0621B730B840BBA0BEE1F88F751
:1023E000E09508950E94511288F09F5798F0B92FF8
:1023F0009927B751B0F0E1F0660F771F881F991F3A
:102400001AF0BA95C9F714C0B13091F00E946B125E
:10241000B1E008950C946B12672F782F8827B85F6E
:1024200039F0B93FCCF3869577956795B395D9F791
:102430003EF490958095709561957F4F8F4F9F4F9B
:10244000089597F99F6780E870E060E008959FEF36
:1024500080EC089500240A9416161706180609063B
:10246000089500240A94121613061406050608950A
:10247000092E0394000C11F4882352F0BB0F40F492
:10248000BF2B11F460FF04C06F5F7F4F8F4F9F4FD2
:10249000089557FD9058440F551F59F05F3F71F054
:1024A0004795880F97FB991F61F09F3F79F08795BB
:1024B0000895121613061406551FF2CF4695F1DF44
:1024C00008C0161617061806991FF1CF86957105D4
:1024D000610508940895E894BB2766277727CB0108
:1024E00097F908950E9485120C9438120E942A12BE
:1024F00038F00E94311220F0952311F00C94211233
:102500000C94271211240C946C120E94491270F33F
:10251000959FC1F3950F50E0551F629FF001729F88
:10252000BB27F00DB11D639FAA27F00DB11DAA1F97
:10253000649F6627B00DA11D661F829F2227B00DE4
:10254000A11D621F739FB00DA11D621F839FA00D6F
:10255000611D221F749F3327A00D611D231F849FBF
:10256000600D211D822F762F6A2F11249F57504016
:102570009AF0F1F088234AF0EE0FFF1FBB1F661F91
:10258000771F881F91505040A9F79E3F510580F05A
:102590000C9421120C946C125F3FE4F3983ED4F338
:1025A000869577956795B795F795E7959F5FC1F7FE
:1025B000FE2B880F911D9695879597F90895EE0F3C
:1025C000FF1F0590F491E02D0994F894FFCF790254
:1025D0007902790279027902790279027902790223
:1025E0007902790279027902790279027902790213
:1025F0007902790279027A018301890190019601B9
:102600009D01A1010000000035019500C20082017A
:10261000F300D100E50000000000FD04D004E40553
:10262000AD048C00BD04AE040D0A004661696C6502
:102630006420746F20636F6D6D756E69636174657E
:102640002E005465737421004D494400636E743D3F
:10265000004C4546543100524947485431004C45DE
:102660004654320052494748543200414C4C0055C0
:0A2670004E444554454354454400D0
:107E0000112484B714BE81FFF0D085E080938100F7
:107E100082E08093C00088E18093C10086E0809377
:107E2000C20080E18093C4008EE0C9D0259A86E02C
:107E300020E33CEF91E0309385002093840096BBD3
:107E4000B09BFECF1D9AA8958150A9F7CC24DD24C4
:107E500088248394B5E0AB2EA1E19A2EF3E0BF2EE7
:107E6000A2D0813461F49FD0082FAFD0023811F036
:107E7000013811F484E001C083E08DD089C08234E0
:107E800011F484E103C0853419F485E0A6D080C0E4
:107E9000853579F488D0E82EFF2485D0082F10E0AE
:107EA000102F00270E291F29000F111F8ED06801E7
:107EB0006FC0863521F484E090D080E0DECF843638
:107EC00009F040C070D06FD0082F6DD080E0C81688
:107ED00080E7D80618F4F601B7BEE895C0E0D1E017
:107EE00062D089930C17E1F7F0E0CF16F0E7DF06D8
:107EF00018F0F601B7BEE89568D007B600FCFDCFD4
:107F0000A601A0E0B1E02C9130E011968C91119780
:107F100090E0982F8827822B932B1296FA010C0160
:107F200087BEE89511244E5F5F4FF1E0A038BF0790
:107F300051F7F601A7BEE89507B600FCFDCF97BE46
:107F4000E89526C08437B1F42ED02DD0F82E2BD052
:107F50003CD0F601EF2C8F010F5F1F4F84911BD097
:107F6000EA94F801C1F70894C11CD11CFA94CF0C13
:107F7000D11C0EC0853739F428D08EE10CD085E9AC
:107F80000AD08FE07ACF813511F488E018D01DD067
:107F900080E101D065CF982F8091C00085FFFCCF94
:107FA0009093C60008958091C00087FFFCCF809118
:107FB000C00084FD01C0A8958091C6000895E0E648
:107FC000F0E098E1908380830895EDDF803219F02E
:107FD00088E0F5DFFFCF84E1DECF1F93182FE3DFCA
:107FE0001150E9F7F2DF1F91089580E0E8DFEE27F6
:047FF000FF270994CA
:027FFE00040479
:00000001FF
