:100000000C9462000C948A000C948A000C94980B57
:100010000C94380B0C94CA0A0C948A000C948A0035
:100020000C948A000C948A000C948A000C948A0028
:100030000C948A000C948A000C948A000C948A0018
:100040000C94800A0C948A000C944E0A0C94280A92
:100050000C948A000C948A000C948A000C948A00F8
:100060000C94F80B0C948A0000000000230026007A
:10007000290000000008000201000003040700003E
:1000800000000000000000000000250028002B00F8
:1000900000000000240027002A00040404040404D3
:1000A0000404020202020202030303030303010227
:1000B00004081020408001020408102001020408F6
:1000C0001020280E11241FBECFEFD8E0DEBFCDBF19
:1000D00011E0A0E0B1E0E6E7F7E202C005900D9282
:1000E000AC3AB107D9F724E0ACEAB1E001C01D9207
:1000F000AB31B207E1F710E0C2E6D0E004C02197CF
:10010000FE010E94B313C136D107C9F70E949D0FAB
:100110000C94B9130C940000809124029091250254
:10012000891B990B089508950895AF92BF92CF92BD
:10013000DF92EF92FF920F931F93CF93DF936C01A7
:100140007B018B01040F151FEB015E01AE18BF0888
:10015000C017D10759F06991D601ED91FC9101903A
:10016000F081E02DC6010995892B79F7C501DF9152
:10017000CF911F910F91FF90EF90DF90CF90BF90A4
:10018000AF900895FC01538D448D252F30E0842FCE
:1001900090E0821B930B541710F0CF9608950197AF
:1001A0000895FC01918D828D981761F0A28DAE0F9C
:1001B000BF2FB11D5D968C91928D9F5F9F73928F23
:1001C00090E008958FEF9FEF0895FC01918D828D4F
:1001D000981731F0828DE80FF11D858D90E008951C
:1001E0008FEF9FEF0895FC01918D228D892F90E074
:1001F000805C9F4F821B91098F739927089586E930
:1002000092E00E94F30021E0892B09F420E0822F84
:10021000089580E090E0892B29F00E94FF00811171
:100220000C9400000895FC01A48DA80FB92FB11DF6
:10023000A35ABF4F2C91848D90E001968F7399271C
:10024000848FA689B7892C93A089B1898C918370FA
:1002500080648C93938D848D981306C00288F389F3
:10026000E02D80818F7D80830895EF92FF920F9320
:100270001F93CF93DF93EC0181E0888F9B8D8C8D52
:1002800098131AC0E889F989808185FF15C09FB746
:10029000F894EE89FF896083E889F9898081837009
:1002A000806480839FBF81E090E0DF91CF911F91B8
:1002B0000F91FF90EF900895F62E0B8D10E00F5FD9
:1002C0001F4F0F731127E02E8C8D8E110CC00FB6AF
:1002D00007FCFACFE889F989808185FFF5CFCE0147
:1002E0000E941301F1CFEB8DEC0FFD2FF11DE35AAE
:1002F000FF4FF0829FB7F8940B8FEA89FB898081CA
:100300008062CFCFCF93DF93EC01888D8823B9F043
:10031000AA89BB89E889F9898C9185FD03C0808110
:1003200086FD0DC00FB607FCF7CF8C9185FFF2CF8D
:10033000808185FFEDCFCE010E941301E9CFDF91CF
:10034000CF910895833081F028F4813099F0823084
:10035000A9F008958730A9F08830C9F08430B1F44D
:10036000809180008F7D03C0809180008F77809383
:100370008000089584B58F7784BD089584B58F7DFE
:10038000FBCF8091B0008F778093B000089580916B
:10039000B0008F7DF9CFCF93DF93282F30E0F901A4
:1003A000EE58FF4F8491F901E255FF4FD491F901C6
:1003B000E656FF4FC491CC23A1F081110E94A20107
:1003C000EC2FF0E0EE0FFF1FE859FF4FA591B4911D
:1003D000EC91ED2381E090E009F480E0DF91CF9192
:1003E000089580E090E0FACF1F93CF93DF93282FFA
:1003F00030E0F901EE58FF4F8491F901E255FF4FCB
:10040000D491F901E656FF4FC491CC23A9F0162FE1
:1004100081110E94A201EC2FF0E0EE0FFF1FEA57BE
:10042000FF4FA591B4918FB7F894EC91111108C0CA
:10043000D095DE23DC938FBFDF91CF911F9108957C
:10044000DE2BF8CF3FB7F89480910A0290910B020F
:10045000A0910C02B0910D0226B5A89B05C02F3FBC
:1004600019F00196A11DB11D3FBFBA2FA92F982FDA
:100470008827BC01CD01620F711D811D911D42E0D5
:10048000660F771F881F991F4A95D1F708958F929D
:100490009F92AF92BF92CF92DF92EF92FF926B0149
:1004A0007C010E9422024B015C01C114D104E104D1
:1004B000F104B9F00E942202681979098A099B099E
:1004C000683E73408105910580F321E0C21AD1088E
:1004D000E108F10888EE880E83E0981EA11CB11C8B
:1004E000E4CFFF90EF90DF90CF90BF90AF909F90C0
:1004F0008F90089508952091D901260F3327331F37
:1005000021323105ECF420916C02FC0190E080E096
:10051000243069F082E00895A091D9012191AC01C5
:1005200047545E4FA40FB52FB11D2C93019686172B
:1005300098F38091D901680F6093D90180E0089504
:1005400081E0089510926C0281E080936B0210921A
:10055000460261E082E10E94F40161E083E10E94D1
:10056000F401E9EBF0E080818E7F808380818D7FD4
:10057000808388E48093B80085E48093BC0008956C
:10058000109225021092240210927302109295028A
:100590000E94A20283E990E09093210280932002BE
:1005A00084E990E090931F0280931E020895CF93F8
:1005B000DF9391E09093B8018823B9F0C091B8001F
:1005C000D091BA008091BC008A7B8093BC0060E02F
:1005D00082E10E94F40160E083E10E94F4010E9444
:1005E000A202D093BA00C093B800DF91CF910895D2
:1005F000CF92DF92EF92FF920F931F93CF93DF93EF
:10060000D091950281E0D13208F09CC0C091940253
:100610000E9422026B017C0180916C0281116CC0EE
:1006200082E080936C0281E080936B028FEF809375
:100630006A0210926902D0936802A4E7B2E0E8E48B
:10064000F2E080E0D8138DC01092470280914702FB
:10065000CC0FC82BC093470280914602813009F02D
:1006600084C0109246020E9422026B017C0180919C
:1006700047028093BB0080916E0290916F02A0911F
:100680007002B0917102892B8A2B8B2BA1F00E94F2
:10069000220200916E0210916F022091700230913F
:1006A00071026C197D098E099F0906171707280723
:1006B000390708F442C08091BC0083FDD8CF85EC97
:1006C0008093BC000E9422026B017C0180916C022D
:1006D000823009F44CC080916A028F3F09F469C0EE
:1006E00080916A02803209F466C080916A02803388
:1006F00009F463C084E026C080916E0290916F027D
:10070000A0917002B0917102892B8A2B8B2B09F476
:1007100083CF0E94220200916E0210916F022091FD
:100720007002309171026C197D098E099F090617BC
:1007300017072807390708F06FCF80916D020E94D4
:10074000D70285E010927302109295021092720205
:10075000DF91CF911F910F91FF90EF90DF90CF909D
:1007600008959D9191938F5F6DCF85EEA9CF809174
:100770006E0290916F02A0917002B0917102892B6C
:100780008A2B8B2B09F4A2CF0E94220200916E02C9
:1007900010916F0220917002309171026C197D09E5
:1007A0008E099F09061717072807390708F08ECF0B
:1007B000C4CF80E0C7CF82E0C5CF83E0C3CFCF9264
:1007C000DF92EF92FF920F931F93CF93DF93D82F77
:1007D000C62F613208F098C00E9422026B017C0192
:1007E00080916C0281116BC081E080936C028093D8
:1007F0006B029FEF90936A02109269029C0F909394
:1008000068028093470280914702DD0FD82BD09376
:10081000470280914602813009F078C0109246026A
:100820000E9422026B017C01809147028093BB00F1
:1008300080916E0290916F02A0917002B09171024E
:10084000892B8A2B8B2BA1F00E94220200916E0231
:1008500010916F0220917002309171026C197D0924
:100860008E099F09061717072807390708F448C09B
:100870008091BC0083FDD8CF85EC8093BC000E94A2
:1008800022026B017C0180916C02813009F440C02E
:10089000809169028C1710F4C0916902E8E4F2E0DB
:1008A000A6E2B2E080E08C1355C08C2FDF91CF918F
:1008B0001F910F91FF90EF90DF90CF90089580915E
:1008C0006E0290916F02A0917002B0917102892B1B
:1008D0008A2B8B2B09F484CF0E94220200916E0296
:1008E00010916F0220917002309171026C197D0994
:1008F0008E099F09061717072807390708F070CFD8
:1009000080916D020E94D702C0E0CFCF85EEB5CFB7
:1009100080916E0290916F02A0917002B09171026D
:10092000892B8A2B8B2B09F4AECF0E9422020091D7
:100930006E0210916F0220917002309171026C1959
:100940007D098E099F09061717072807390708F040
:100950009ACFD6CF91919D938F5FA5CF0895E091C7
:10096000250280912402E81730F4F0E0EA5DFD4FA3
:10097000808190E008958FEF9FEF08959091250278
:10098000809124022FEF3FEF981748F4E92FF0E011
:10099000EA5DFD4F208130E09F5F90932502C90101
:1009A0000895CF92DF92EF92FF920F931F93CF9310
:1009B000DF937C01CB018A0120917202222389F00E
:1009C000EB016B01C40ED51ECC15DD0569F06991F4
:1009D000D701ED91FC910190F081E02DC7010995BF
:1009E000F3CF642F0E947B02C801DF91CF911F914A
:1009F0000F91FF90EF90DF90CF900895CF93DF930A
:100A00001F92CDB7DEB76983209172022223F9F0DD
:100A100020919502203258F021E030E0FC01338330
:100A2000228390E080E00F90DF91CF910895809134
:100A30007302E82FF0E0EC58FD4F998190838F5FAF
:100A4000809373028093950281E090E0ECCF61E0A7
:100A5000CE0101960E947B02F7CF682F83E393E0DB
:100A60000C94FE04CF93DF93EB019091930321E06C
:100A70002093720290939402109273021092950246
:100A8000682F83E393E00E94FE046D2F83E393E0DD
:100A90000E94FE046C2F83E393E00E94FE04DF912A
:100AA000CF910C94F802CF93C62F9091930321E03D
:100AB0002093720290939402109273021092950206
:100AC000682F83E393E00E94FE046C2F83E393E09E
:100AD0000E94FE04CF910C94F802CF93C62F909100
:100AE000E20321E020937202909394021092730229
:100AF00010929502682F83E393E00E94FE046C2F0E
:100B000083E393E00E94FE04CF910C94F8020F93CC
:100B10001F93CF93DF93042FD52F122FC32FFC01E8
:100B2000808191E0909372028093940210927302FC
:100B300010929502F4E06F9FB00111246A5F7F4F1D
:100B400083E393E00E94FE04802F9D2F0E942D05D9
:100B50008D2F90E00E942D05812F9C2F0E942D0546
:100B60008C2F90E00E942D05DF91CF911F910F9166
:100B70000C94F8029A01895B9F4F211540E13407DC
:100B800030F030E020E040E050E10C94870550E088
:100B900040E0FBCFCF93DF93EC01CB01BA0120E023
:100BA00030E04AE754E40E94461320E030E44CE988
:100BB00050E40E9454120E94C612AB0168818B81DE
:100BC0009C81DF91CF910C94BA0590E080E008956C
:100BD0001F93CF93DF93EC0188810E94CB01182FE4
:100BE00089810E94CB01EA81E3701111E4608111D7
:100BF000E8608E2F90E095958795959587958A83E7
:100C0000E150EE30F0F4F0E0E85FF94F0C94B313EC
:100C1000160625062D062506210635061606160695
:100C20003506210625062D06250616068B819C8194
:100C3000AD81BE810196A11DB11D8B839C83AD83C7
:100C4000BE83DF91CF911F9108958B819C81AD81EF
:100C5000BE810197A109B109F0CF8B819C81AD8143
:100C6000BE810296A11DB11DE8CF8B819C81AD8113
:100C7000BE810297A109B109E0CF8091B2019091A4
:100C8000B3010C94E8058091B0019091B1010C94EE
:100C9000E8058091AE019091AF010C94E805809138
:100CA000AC019091AD010C94E805FC01019000208D
:100CB000E9F73197AF01481B590BBC0186E992E077
:100CC0000C949500CF93DF93D0E0C0E0009719F02B
:100CD0000E945506EC018AE591E00E9455068C0FB2
:100CE0009D1FDF91CF9108958F929F92AF92BF92F7
:100CF000CF92DF92EF92FF920F931F93CF93DF93E8
:100D0000CDB7DEB7A1970FB6F894DEBF0FBECDBF4B
:100D10006C01990FEE08FF08F7FE47C06DE286E907
:100D200092E00E9435018C0122273327A9012C195A
:100D30003D094E095F0919A2CE0181967C019AE016
:100D4000892E912CA12CB12CCA01B901A5019401C5
:100D50000E943212605DF70162937F012115310517
:100D60004105510589F790E080E0309719F0CF01F7
:100D70000E945506080F191F8AE591E00E9455064A
:100D8000800F911FA1960FB6F894DEBF0FBECDBFA6
:100D9000DF91CF911F910F91FF90EF90DF90CF9057
:100DA000BF90AF909F908F900895A701960119A2D0
:100DB0008E010F5D1F4F8AE0C82ED12CE12CF12C43
:100DC000CA01B901A70196010E943212605DF801C3
:100DD00062938F01211531054105510589F730973F
:100DE00029F0CF010E9455068C01C6CF10E000E02B
:100DF000C3CFCF939091930321E0209372029093FD
:100E000094021092730210929502682F83E393E08C
:100E10000E94FE040E94F80262E0809193030E9407
:100E2000DF03282F109225028093240280ED97E0A3
:100E3000223020F4009791F00197FACF009771F0DB
:100E400083E393E00E94BE04C82F83E393E00E94F3
:100E5000BE0420E03C2FA901482BCA01CF91089580
:100E60001F93CF93DF93182F8EE00E94F906C1E005
:100E7000D0E002C0CC0FDD1F1A95E2F78C239D2332
:100E8000892B41F080E10E94F906C823D92381E033
:100E9000CD2B09F480E0DF91CF911F9108950F933E
:100EA0001F93CF93DF9380E00E943007082F81E0EB
:100EB000011101C080E08093B70181E00E943007FA
:100EC000182F81E0111101C080E08093B60182E00B
:100ED0000E943007D82F81E0D11101C080E08093BB
:100EE000B50183E00E943007C82F81E0C11101C025
:100EF00080E08093B40184E00E943007482F21E015
:100F000030E0002311F030E020E081E090E0112398
:100F100011F090E080E0280F391F81E090E0DD23A0
:100F200011F090E080E0280F391F81E090E0CC23A1
:100F300011F090E080E0280F391F81E090E0442319
:100F400011F090E080E0820F931F90932302809332
:100F500022020023C1F1112301F1D11129C0CC23B8
:100F600021F1442311F110921D0210921C020E94E3
:100F70007406E0911C02F0911D02EE0FFF1FE85D68
:100F8000FE4F808191810E9462068DE591E0DF91A4
:100F9000CF911F910F910C946206DD2331F0CC2389
:100FA00021F022E030E0411109C026E030E006C027
:100FB000C11114C021E030E04423B9F330931D0285
:100FC00020931C02D4CF112371F0DD2371F3CC23C5
:100FD00061F324E030E0442341F3F0CF23E030E03C
:100FE0004111E3CFEBCFD111E0CFC111DECF25E02E
:100FF00030E04111DACFE2CFEF92FF920F931F93CF
:10100000CF93DF93D82FF62E8EE00E94F90661E091
:1010100070E09B0102C0220F331FDA95E2F7E9016D
:101020008095909582239D23892BB1F080E10E94C9
:10103000F906BE01682B792BF11005C0C095D0953B
:10104000BE016823792380E1DF91CF911F910F9139
:10105000FF90EF900C94320586E00E94F9068C0117
:1010600088E00E94F906BE0160957095FF2061F04E
:101070007C01E622F722BE01602B712B86E00E94E4
:101080003205B70188E0E0CFC82BD92B602371234C
:1010900086E00E943205BE01F5CF9091930321E0D6
:1010A0002093720290939402109273021092950210
:1010B000682F83E393E00E94FE040E94F80261E03F
:1010C000809193030E94DF031092250280932402F3
:1010D00028EE33E0811106C02115310541F0215081
:1010E0003109FACF83E393E00E94BE04089580E0C3
:1010F0000895CF93DF93EC016B836230D1F128F434
:10110000613001F1DF91CF910895633009F443C05C
:101110006430C1F78C819D8130E020E050E040E0F8
:101120006981895B9F4F0E9487058C819D8130E09A
:1011300020E050E040E06A81895B9F4FDF91CF91D2
:101140000C9487058C819D8130E020E050E040E0E8
:101150006A81895B9F4F0E948705488180E1489F93
:10116000A001112469818C819D81DF91CF910C9424
:10117000BA058C819D8130E020E050E040E069813B
:10118000895B9F4F0E948705488180E1489FA001AD
:1011900011246A81E8CF8C819D8130E020E040E01D
:1011A00050E16981895B9F4F0E9487058C819D81F9
:1011B00030E020E040E050E1BECFFC01608363817D
:1011C0000C9479080F931F93CF93C82F00918D0330
:1011D00010918E03682FC8010E94DD0861E0C801EC
:1011E0000E94790800919103109192036C2FC8011D
:1011F0000E94DD0861E0C8010E94790800918B031C
:1012000010918C036C2FC8010E94DD0861E0C801B9
:101210000E94790800918F03109190036C2FC801F0
:101220000E94DD0861E0C801CF911F910F910C94DD
:101230007908CF93DF93C0918D03D0918E0360E046
:10124000CE010E94DD0863E0CE010E947908C091C2
:101250009103D091920360E0CE010E94DD0863E02B
:10126000CE010E947908C0918B03D0918C0360E07D
:10127000CE010E94DD0863E0CE010E947908C09192
:101280008F03D091900360E0CE010E94DD0863E0FF
:10129000CE01DF91CF910C9479080F931F93CF93D8
:1012A000DF938C0181E691E00E94620688E290E083
:1012B0000E94E208D0E0C0E00C171D07D1F00E94A8
:1012C0004F0780912202909123020397ACF321965D
:1012D00087E691E00E945506CE010E9474060C1725
:1012E0001D0751F364EF71E080E090E00E94470237
:1012F000E3CF0E94190968EE73E080E090E0DF918F
:10130000CF911F910F910C944702CF93DF93C0911F
:101310008D03D0918E0368ECCE010E94DD0862E05F
:10132000CE010E947908C0919103D091920368EC9C
:10133000CE010E94DD0862E0CE010E947908C091D2
:101340008B03D0918C0368ECCE010E94DD0862E033
:10135000CE010E947908C0918F03D091900368EC70
:10136000CE010E94DD0862E0CE01DF91CF910C94A6
:1013700079080F931F93CF93C82F00918D0310917D
:101380008E03682FC8010E94DD0862E0C8010E9438
:10139000790800919103109192036C2FC8010E946B
:1013A000DD0861E0C8010E94790800918B0310916B
:1013B0008C036C2FC8010E94DD0862E0C8010E9406
:1013C000790800918F03109190036C2FC8010E943F
:1013D000DD0861E0C801CF911F910F910C9479084D
:1013E00085ED8093BC0080916E0290916F02A09178
:1013F0007002B09171020796A11DB11D23E0B69550
:10140000A795979587952A95D1F72091BC0024FD43
:1014100003C010926C02089540916E0250916F02C9
:101420006091700270917102452B462B472B69F336
:101430000097A105B10541F025E32A95F1F70000D9
:101440000197A109B109E1CF80916D020C94D702F7
:101450001F920F920FB60F9211242F933F934F9329
:101460005F936F937F938F939F93AF93BF93EF930C
:10147000FF9386E992E00E941301FF91EF91BF91E3
:10148000AF919F918F917F916F915F914F913F911C
:101490002F910F900FBE0F901F9018951F920F92D3
:1014A0000FB60F9211242F938F939F93EF93FF9377
:1014B000E091A602F091A7028081E091AC02F09148
:1014C000AD0282FD1BC090818091AF028F5F8F7350
:1014D0002091B002821741F0E091AF02F0E0EA56AD
:1014E000FD4F958F8093AF02FF91EF919F918F9168
:1014F0002F910F900FBE0F901F9018958081F4CF01
:101500001F920F920FB60F9211242F933F938F9338
:101510009F93AF93BF938091060290910702A09191
:101520000802B09109023091050223E0230F2D3704
:1015300058F50196A11DB11D209305028093060266
:1015400090930702A0930802B093090280910A02C7
:1015500090910B02A0910C02B0910D020196A11D79
:10156000B11D80930A0290930B02A0930C02B093DA
:101570000D02BF91AF919F918F913F912F910F904D
:101580000FBE0F901F90189526E8230F0296A11DFD
:10159000B11DD2CF1F920F920FB60F9211242F932D
:1015A0003F934F935F936F937F938F939F93AF93EB
:1015B000BF93CF93EF93FF9399B180910402C091B1
:1015C0000102C923282F2095C2232091FE018223E6
:1015D000292F20958223C82B90930402C4FF05C0B5
:1015E000E0911801F09119010995C5FF05C0E0913E
:1015F0001A01F0911B010995C6FF05C0E0911C017D
:10160000F0911D010995C7FF05C0E0911E01F09101
:101610001F010995C0FF05C0E0912001F091210153
:101620000995C1FF05C0E0912201F09123010995C0
:10163000C2FF05C0E0912401F09125010995C3FF87
:1016400005C0E0912601F09127010995FF91EF91E6
:10165000CF91BF91AF919F918F917F916F915F914A
:101660004F913F912F910F900FBE0F901F901895A3
:101670001F920F920FB60F9211242F933F934F9307
:101680005F936F937F938F939F93AF93BF93CF930A
:10169000EF93FF9396B180910302C0910002C9239A
:1016A000282F2095C2232091FD018223292F2095E8
:1016B0008223C82B90930302C0FF05C0E0910C0168
:1016C000F0910D010995C1FF05C0E0910E01F09167
:1016D0000F010995C2FF05C0E0911001F0911101C1
:1016E0000995C3FF05C0E0911201F091130109951E
:1016F000C4FF05C0E0911401F09115010995C5FFE3
:1017000005C0E0911601F09117010995FF91EF9145
:10171000CF91BF91AF919F918F917F916F915F9189
:101720004F913F912F910F900FBE0F901F901895E2
:101730001F920F920FB60F9211242F933F934F9346
:101740005F936F937F938F939F93AF93BF93CF9349
:10175000EF93FF9393B180910202C091FF01C923DF
:10176000282F2095C2232091FC018223292F209528
:101770008223C82B90930202C0FF05C0E0910001B4
:10178000F09101010995C1FF05C0E0910201F091BE
:1017900003010995C2FF05C0E0910401F091050124
:1017A0000995C3FF05C0E0910601F0910701099575
:1017B000C4FF05C0E0910801F09109010995C5FF3A
:1017C00005C0E0910A01F0910B010995FF91EF919D
:1017D000CF91BF91AF919F918F917F916F915F91C9
:1017E0004F913F912F910F900FBE0F901F90189522
:1017F0001F920F920FB60F9211242F933F934F9386
:101800005F936F937F938F939F93AF93BF93EF9368
:10181000FF938091B900887F803609F44AC0F0F5C3
:10182000883209F4A7C018F5803109F49BC0B8F4D8
:10183000882309F4F9C0883009F494C0FF91EF912E
:10184000BF91AF919F918F917F916F915F914F91D8
:101850003F912F910F900FBE0F901F9018958831D8
:1018600009F488C0803251F780936A0214C0803432
:1018700009F49DC040F48033B9F38833F9F68093BE
:101880006A0285ECB0C0803509F485C0883509F45A
:1018900096C0883499F60E94F009D0CF883909F4AF
:1018A0008CC038F5883729F050F4883611F080372D
:1018B00029F683E080936C021092FB0157C08838B0
:1018C00009F47BC0803919F0803809F0B7CF8091D6
:1018D000FB01803208F071C0E091FB0181E08E0FC6
:1018E0008093FB018091BB00F0E0E552FE4F8083C6
:1018F0003DC0803B39F0E0F4803A09F479C0883A81
:1019000009F09CCF84E080936C021092DA0110926F
:10191000D901E0912002F091210209958091D9012D
:1019200081110FC081E08093D9011092B90109C0E3
:10193000803C09F4A6CF883C09F4A3CF883B09F08A
:101940007DCFE091DA0181E08E0F8093DA01F0E043
:10195000E754FE4F80818093BB009091DA01809123
:10196000D90129C0809147028093BB0085EC809308
:10197000BC0064CF9091690280916802981758F575
:10198000E091690281E08E0F80936902F0E0E85BEC
:10199000FD4F8081E9CFE091690281E08E0F809355
:1019A00069028091BB00F0E0E85BFD4F808390917D
:1019B0006902809168029817C8F285E8D8CFE09153
:1019C000690281E08E0F809369028091BB00F0E094
:1019D000E85BFD4F808380916B0281115CCF81E0D9
:1019E0008093460284EA8093BC0010926C0226CF5A
:1019F00085EC8093BC0010926C028091FB018032D8
:101A000030F4E091FB01F0E0E552FE4F108260916E
:101A1000FB0170E0E0911E02F0911F028BED91E05E
:101A200009951092FB010ACF10926A0234CFCF932E
:101A3000DF9390E0FC01E255FF4F249186569F4FC3
:101A4000FC0184918823C1F090E0880F991FFC016C
:101A5000E057FF4FC591D491FC01EA57FF4FA59184
:101A6000B4919FB7F8943881822F8095832388831F
:101A7000EC91E22BEC939FBFDF91CF9108958130E1
:101A8000F1F0B0F08230E9F0E82FF0E0E559FF4FD7
:101A90009081692B60839091680021E030E001C063
:101AA000220F8A95EAF7892F822B80936800089588
:101AB00093B1E42FF0E0EE5FFD4F9083E5CF96B158
:101AC000F8CF99B1F6CF883088F590E1980F209142
:101AD00001023091FE01863008F064C0843008F0C5
:101AE00047C07093AD016093AC01805F2FE436E096
:101AF000823109F064C0309325012093240187705E
:101B000061E070E001C0660F8A95EAF780910102FA
:101B1000862B809301028091FE01862B8093FE012B
:101B200042E082E00E943F0D81E008958A30C8F6CD
:101B30007093B3016093B20188502DE336E009F051
:101B40004DC0309301012093000161E070E001C0BD
:101B5000660F8A95EAF78091FF01862B8093FF013B
:101B60008091FC01862B8093FC0140E080E0DACF7D
:101B70007093AF016093AE0149E456E0943121F5D2
:101B80005093190140931801977061E070E001C013
:101B9000660F9A95EAF7262B20930102362B309395
:101BA000FE01BECF7093B1016093B00143E456E0F3
:101BB000963179F450931D0140931C01E5CF309389
:101BC0002701209326019BCF50931B0140931A01BC
:101BD000DBCF50931F0140931E01D6CF30930301FA
:101BE00020930201B2CF0F931F93CF93DF93EC01A9
:101BF000615019E008E051F017E006E0613031F083
:101C000014E005E0623011F412E003E0802F0E943E
:101C1000170D812F0E94170D80EE90E19983888324
:101C20000A871B871D861E861F86188A8BE39FE105
:101C30000197F1F71C862A96BE01802F0E94630D42
:101C4000BE01812FDF91CF911F910F910C94630DF5
:101C5000109299021092980288EE93E0A0E0B0E012
:101C600080939A0290939B02A0939C02B0939D0252
:101C70002AE331E0309397022093960225EC30E07E
:101C80003093A3022093A20224EC30E03093A5020B
:101C90002093A40220EC30E03093A7022093A60208
:101CA00021EC30E03093A9022093A80222EC30E02E
:101CB0003093AB022093AA0226EC30E03093AD02C1
:101CC0002093AC021092AF021092B0021092B102B7
:101CD0001092B202109236031092350380933703AC
:101CE00090933803A0933903B0933A038CE491E0C6
:101CF0009093340380933303EEE9F3E08AEB93E0AF
:101D000015821482168212821182108237968E17E3
:101D10009F07B1F71092C6031092C9031092C50332
:101D20001092C4031092DA031092DD031092D903CB
:101D30001092D803E3EEF3E08BE194E01482138277
:101D400015821082168237968E179F07B9F780E6A4
:101D500080939B038093E203109297031092980361
:101D60001092990310929A038091AB0381110FC0D6
:101D700081E08093AB038BE993E09093AA03809377
:101D8000A9038AE08093A6038BE08093A70385EAEA
:101D900093E090939203809391038091B903811112
:101DA0000FC083E08093B9038BE993E09093B8036D
:101DB0008093B7038DE08093B4038CE08093B503E8
:101DC00083EB93E09093900380938F038091A4031F
:101DD00081110CC08BE993E09093A3038093A2033D
:101DE00088E080939F0389E08093A0038EE993E0CD
:101DF00090938E0380938D038091B20381110FC065
:101E000082E08093B2038BE993E09093B1038093D7
:101E1000B0038FE08093AD038EE08093AE038CEA35
:101E200093E090938C0380938B038091EF03811157
:101E300013C081E08093EF032BE933E03093EE038E
:101E40002093ED038093EA0380919C0390919D037E
:101E50009093EC038093EB038AEE93E090938A03D4
:101E6000809389038091F603811113C082E08093EF
:101E7000F6032BE933E03093F5032093F4038093CA
:101E8000F10380919C0390919D039093F3038093C1
:101E9000F20381EF93E0909388038093870380910E
:101EA000FD03811113C083E08093FD032BE933E030
:101EB0003093FC032093FB038093F80380919C03F1
:101EC00090919D039093FA038093F90388EF93E038
:101ED000909386038093850380910404811113C03D
:101EE00084E0809304042BE933E0309303042093CF
:101EF00002048093FF0380919C0390919D03909333
:101F00000104809300048FEF93E090938403809307
:101F1000830361E082E793E00E94F30D62E081E6D3
:101F200093E00E94F30D63E080E593E00E94F30DDF
:101F300064E08FE393E00C94F30D789484B58260B1
:101F400084BD84B5816084BD85B5826085BD85B55D
:101F5000816085BD80916E00816080936E001092DB
:101F60008100809181008260809381008091810056
:101F700081608093810080918000816080938000E7
:101F80008091B10084608093B1008091B000816045
:101F90008093B00080917A00846080937A00809171
:101FA0007A00826080937A0080917A0081608093C9
:101FB0007A0080917A00806880937A001092C10044
:101FC0000E94C0020E94C00260E080E00E946D0595
:101FD00082E390E090939D0380939C038091E203C1
:101FE00091E0909372028093940210927302109287
:101FF000950260E083E393E00E94FE040E94F802F1
:1020000061E08091E2030E94DF0310922502809339
:10201000240283E393E00E94BE04C82F682F6F76EA
:10202000606180E00E946D0567E88EEF0E946D059B
:102030006C2F80E00E946D0565E070E080E090E02C
:102040000E9447026C2F616A80E00E946D05C0E02B
:1020500030E020E050E040E06C2F82EE93E00E9400
:102060008705CF5FC031A1F7E091A602F091A702EA
:1020700082E08083E091A202F091A3021082E091BD
:10208000A402F091A5028FEC80831092AE02E09141
:10209000AA02F091AB0286E08083E091A802F09161
:1020A000A902808180618083E091A802F091A90259
:1020B000808188608083E091A802F091A9028081EC
:1020C00080688083E091A802F091A90280818F7DD1
:1020D00080838FE3809393038FEF809396030E9416
:1020E000C002809196038F3FC1F18FE10E944D089D
:1020F00082FF05C0682F6B7F8FE10E945305C0915E
:1021000096038EE00E94F90661E070E002C0660F5F
:10211000771FCA95E2F760957095682379238EE062
:102120000E94320560E0809196030E94FC0761E006
:1021300070E080E090E00E94470261E080919603A9
:102140000E94FC0783E10E94F90681159F4F71F000
:102150008CE691E00E946206FFCF62E18DE70E946B
:10216000530564E38DE70E945305ECCF60E48EE1F4
:102170000E94530580E894E8AEE1B0E080939703B5
:1021800090939803A0939903B0939A038FE10E94D0
:102190004D088F78682F60618FE10E9453058EE0B3
:1021A0000E94F906BC0161608EE00E9432058EE05B
:1021B0000E94F906BC0162608EE00E9432058EE04A
:1021C0000E94F906BC0164608EE00E9432058EE038
:1021D0000E94F906BC0168608EE00E9432058EE024
:1021E0000E94F906BC0160618EE00E943205C09138
:1021F0008903D0918A0340E050E060E87FE3CE019C
:102200000E94CA051DE21E83C0918703D0918803F6
:1022100040E050E060E87FE3CE010E94CA051E83E3
:10222000C0918503D091860340E050E060EC7FE3ED
:10223000CE010E94CA058AE58E83C0918303D091A6
:10224000840340E050E060E07FE3CE010E94CA05D5
:102250001E8268EE73E080E090E00E9447021092D8
:1022600018021092190210921A0210921B02109278
:1022700014021092150210921602109217028CE0AE
:1022800090E090931302809312028AE590E090937D
:1022900011028093100280911202909113024091DA
:1022A000100250911102880F991F880F991F849F67
:1022B0009001859F300D949F300D112430930F02B3
:1022C00020930E0200E010E085E090E00E944D09AE
:1022D00068EE73E080E090E00E9447020E944F07A2
:1022E00088E290E00E94B90980911C0290911D0241
:1022F000892BA1F70E94190960ED77E080E090E05A
:102300000E94470288E290E00E94850964E670E03E
:1023100080E090E00E9447020E94190968EE73E095
:1023200080E090E00E944702C0918D03D0918E031F
:1023300068E2CE010E94DD0863E0CE010E947908C8
:10234000C0919103D091920368E2CE010E94DD0812
:1023500063E0CE010E947908C0918B03D0918C0379
:1023600068E2CE010E94DD0861E0CE010E9479089A
:10237000C0918F03D091900368E2CE010E94DD08E6
:1023800061E0CE010E94790860ED77E080E090E0A6
:102390000E9447020E944F07C0918D03D0918E0387
:1023A00068ECCE010E94DD0861E0CE010E94790850
:1023B000C0919103D091920368ECCE010E94DD0898
:1023C00062E0CE010E947908C0918B03D0918C030A
:1023D00068ECCE010E94DD0861E0CE010E94790820
:1023E000C0918F03D091900368ECCE010E94DD086C
:1023F00062E0CE010E94790880911C0290911D023A
:10240000892B41F60E94190960ED77E080E090E0A9
:102410000E94470288E290E00E94B90968EB7BE0E5
:1024200080E090E00E9447020E94190984E090E059
:102430000E944D0988E290E00E94850964E670E000
:1024400080E090E00E9447020E94190901151105E1
:1024500009F43ACF0E94FF00882309F435CF0E9487
:10246000000032CFA1E21A2EAA1BBB1BFD010DC03A
:10247000AA1FBB1FEE1FFF1FA217B307E407F50734
:1024800020F0A21BB30BE40BF50B661F771F881F10
:10249000991F1A9469F760957095809590959B01A6
:1024A000AC01BD01CF0108950E9468120C940C1379
:1024B0000E94051358F00E94FE1240F029F45F3F7D
:1024C00029F00C94F51251110C9440130C94FB124A
:1024D0000E941D1368F39923B1F3552391F3951BC3
:1024E000550BBB27AA2762177307840738F09F5F35
:1024F0005F4F220F331F441FAA1FA9F335D00E2EA2
:102500003AF0E0E832D091505040E695001CCAF70E
:102510002BD0FE2F29D0660F771F881FBB1F2617D1
:1025200037074807AB07B0E809F0BB0B802DBF01A8
:10253000FF2793585F4F3AF09E3F510578F00C9477
:10254000F5120C9440135F3FE4F3983ED4F3869564
:1025500077956795B795F7959F5FC9F7880F911D98
:102560009695879597F90895E1E0660F771F881F84
:10257000BB1F621773078407BA0720F0621B730B37
:10258000840BBA0BEE1F88F7E09508950E9425137F
:1025900088F09F5798F0B92F9927B751B0F0E1F024
:1025A000660F771F881F991F1AF0BA95C9F714C0D4
:1025B000B13091F00E943F13B1E008950C943F13A5
:1025C000672F782F8827B85F39F0B93FCCF386950D
:1025D00077956795B395D9F73EF49095809570956A
:1025E00061957F4F8F4F9F4F089597F99F6780E8C0
:1025F00070E060E008959FEF80EC089500240A9455
:102600001616170618060906089500240A941216CD
:102610001306140605060895092E0394000C11F400
:10262000882352F0BB0F40F4BF2B11F460FF04C0AD
:102630006F5F7F4F8F4F9F4F089557FD9058440F06
:10264000551F59F05F3F71F04795880F97FB991F11
:1026500061F09F3F79F087950895121613061406CE
:10266000551FF2CF4695F1DF08C01616170618065B
:10267000991FF1CF86957105610508940895E89436
:10268000BB2766277727CB0197F908950E94591336
:102690000C940C130E94FE1238F00E94051320F0D7
:1026A000952311F00C94F5120C94FB1211240C9448
:1026B00040130E941D1370F3959FC1F3950F50E0D6
:1026C000551F629FF001729FBB27F00DB11D639FE4
:1026D000AA27F00DB11DAA1F649F6627B00DA11D8A
:1026E000661F829F2227B00DA11D621F739FB00D30
:1026F000A11D621F839FA00D611D221F749F3327A0
:10270000A00D611D231F849F600D211D822F762F38
:102710006A2F11249F5750409AF0F1F088234AF015
:10272000EE0FFF1FBB1F661F771F881F9150504081
:10273000A9F79E3F510580F00C94F5120C944013BC
:102740005F3FE4F3983ED4F3869577956795B79508
:10275000F795E7959F5FC1F7FE2B880F911D969522
:10276000879597F90895EE0FFF1F0590F491E02DDE
:062770000994F894FFCF6C
:102776007A027A027A027A027A027A027A027A0273
:102786007A027A027A027A027A027A027A027A0263
:102796007A027A027A027A025D0183018901900146
:1027A60096019D01A1010000000035019500C200BF
:1027B6008201F300D100E50000000000FE04D10410
:1027C600E505AE048C00BE04AF040D0A004D494475
:1027D60000546573742100636E743D004661696C34
:1027E600656420746F20636F6D6D756E69636174C7
:1027F600652E004C45465431005249474854310035
:102806004C454654320052494748543200414C4CDC
:0C28160000554E444554454354454400D1
:00000001FF
