:100000000C9462000C948A000C948A000C949C0B53
:100010000C943C0B0C94CE0A0C948A000C948A002D
:100020000C948A000C948A000C948A000C948A0028
:100030000C948A000C948A000C948A000C948A0018
:100040000C94840A0C948A000C94520A0C942C0A86
:100050000C948A000C948A000C948A000C948A00F8
:100060000C94FC0B0C948A00000000002300260076
:10007000290000000008000201000003040700003E
:1000800000000000000000000000250028002B00F8
:1000900000000000240027002A00040404040404D3
:1000A0000404020202020202030303030303010227
:1000B00004081020408001020408102001020408F6
:1000C00010202C0E11241FBECFEFD8E0DEBFCDBF15
:1000D00011E0A0E0B1E0EEE2F9E202C005900D927D
:1000E000A63EB107D9F724E0A6EEB1E001C01D920B
:1000F000A635B207E1F710E0C2E6D0E004C02197D0
:10010000FE010E948F14C136D107C9F70E94A10FCA
:100110000C9495140C94000080915F029091600201
:10012000891B990B089508950895AF92BF92CF92BD
:10013000DF92EF92FF920F931F93CF93DF936C01A7
:100140007B018B01040F151FEB015E01AE18BF0888
:10015000C017D10759F06991D601ED91FC9101903A
:10016000F081E02DC6010995892B79F7C501DF9152
:10017000CF911F910F91FF90EF90DF90CF90BF90A4
:10018000AF900895FC01538D448D252F30E0842FCE
:1001900090E0821B930B541710F0CF9608950197AF
:1001A0000895FC01918D828D981761F0A28DAE0F9C
:1001B000BF2FB11D5D968C91928D9F5F9F73928F23
:1001C00090E008958FEF9FEF0895FC01918D828D4F
:1001D000981731F0828DE80FF11D858D90E008951C
:1001E0008FEF9FEF0895FC01918D228D892F90E074
:1001F000805C9F4F821B91098F739927089581ED31
:1002000092E00E94F30021E0892B09F420E0822F84
:10021000089580E090E0892B29F00E94FF00811171
:100220000C9400000895FC01A48DA80FB92FB11DF6
:10023000A35ABF4F2C91848D90E001968F7399271C
:10024000848FA689B7892C93A089B1898C918370FA
:1002500080648C93938D848D981306C00288F389F3
:10026000E02D80818F7D80830895EF92FF920F9320
:100270001F93CF93DF93EC0181E0888F9B8D8C8D52
:1002800098131AC0E889F989808185FF15C09FB746
:10029000F894EE89FF896083E889F9898081837009
:1002A000806480839FBF81E090E0DF91CF911F91B8
:1002B0000F91FF90EF900895F62E0B8D10E00F5FD9
:1002C0001F4F0F731127E02E8C8D8E110CC00FB6AF
:1002D00007FCFACFE889F989808185FFF5CFCE0147
:1002E0000E941301F1CFEB8DEC0FFD2FF11DE35AAE
:1002F000FF4FF0829FB7F8940B8FEA89FB898081CA
:100300008062CFCFCF93DF93EC01888D8823B9F043
:10031000AA89BB89E889F9898C9185FD03C0808110
:1003200086FD0DC00FB607FCF7CF8C9185FFF2CF8D
:10033000808185FFEDCFCE010E941301E9CFDF91CF
:10034000CF910895833081F028F4813099F0823084
:10035000A9F008958730A9F08830C9F08430B1F44D
:10036000809180008F7D03C0809180008F77809383
:100370008000089584B58F7784BD089584B58F7DFE
:10038000FBCF8091B0008F778093B000089580916B
:10039000B0008F7DF9CFCF93DF93282F30E0F901A4
:1003A000EE58FF4F8491F901E255FF4FD491F901C6
:1003B000E656FF4FC491CC23A1F081110E94A20107
:1003C000EC2FF0E0EE0FFF1FE859FF4FA591B4911D
:1003D000EC91ED2381E090E009F480E0DF91CF9192
:1003E000089580E090E0FACF1F93CF93DF93282FFA
:1003F00030E0F901EE58FF4F8491F901E255FF4FCB
:10040000D491F901E656FF4FC491CC23A9F0162FE1
:1004100081110E94A201EC2FF0E0EE0FFF1FEA57BE
:10042000FF4FA591B4918FB7F894EC91111108C0CA
:10043000D095DE23DC938FBFDF91CF911F9108957C
:10044000DE2BF8CF3FB7F8948091400290914102A3
:10045000A0914202B091430226B5A89B05C02F3F50
:1004600019F00196A11DB11D3FBFBA2FA92F982FDA
:100470008827BC01CD01620F711D811D911D42E0D5
:10048000660F771F881F991F4A95D1F708958F929D
:100490009F92AF92BF92CF92DF92EF92FF926B0149
:1004A0007C010E9422024B015C01C114D104E104D1
:1004B000F104B9F00E942202681979098A099B099E
:1004C000683E73408105910580F321E0C21AD1088E
:1004D000E108F10888EE880E83E0981EA11CB11C8B
:1004E000E4CFFF90EF90DF90CF90BF90AF909F90C0
:1004F0008F900895089520910F02260F3327331F00
:1005000021323105ECF42091A702FC0190E080E05B
:10051000243069F082E00895A0910F022191AC018E
:1005200041515E4FA40FB52FB11D2C930196861734
:1005300098F380910F02680F60930F0280E0089596
:1005400081E008951092A70281E08093A6021092A4
:10055000810261E082E10E94F40161E083E10E9496
:10056000F401E9EBF0E080818E7F808380818D7FD4
:10057000808388E48093B80085E48093BC0008956C
:100580001092600210925F021092AE021092D0029E
:100590000E94A20283E990E090935E0280935D0244
:1005A00084E990E090935C0280935B020895CF937E
:1005B000DF9391E09093EE018823B9F0C091B800E9
:1005C000D091BA008091BC008A7B8093BC0060E02F
:1005D00082E10E94F40160E083E10E94F4010E9444
:1005E000A202D093BA00C093B800DF91CF910895D2
:1005F000CF92DF92EF92FF920F931F93CF93DF93EF
:10060000D091D00281E0D13208F09CC0C091CF02DD
:100610000E9422026B017C018091A70281116CC0B3
:1006200082E08093A70281E08093A6028FEF8093FF
:10063000A5021092A402D093A302AFEAB2E0E3E8CD
:10064000F2E080E0D8138DC0109282028091820285
:10065000CC0FC82BC093820280918102813009F0B7
:1006600084C0109281020E9422026B017C01809161
:1006700082028093BB008091A9029091AA02A0916E
:10068000AB02B091AC02892B8A2B8B2BA1F00E947C
:1006900022020091A9021091AA022091AB0230918E
:1006A000AC026C197D098E099F09061717072807E8
:1006B000390708F442C08091BC0083FDD8CF85EC97
:1006C0008093BC000E9422026B017C018091A702F2
:1006D000823009F44CC08091A5028F3F09F469C0B3
:1006E0008091A502803209F466C08091A502803312
:1006F00009F463C084E026C08091A9029091AA0207
:10070000A091AB02B091AC02892B8A2B8B2B09F400
:1007100083CF0E9422020091A9021091AA02209187
:10072000AB023091AC026C197D098E099F09061746
:1007300017072807390708F06FCF8091A8020E9499
:10074000D70285E01092AE021092D0021092AD0254
:10075000DF91CF911F910F91FF90EF90DF90CF909D
:1007600008959D9191938F5F6DCF85EEA9CF809174
:10077000A9029091AA02A091AB02B091AC02892B80
:100780008A2B8B2B09F4A2CF0E9422020091A9028E
:100790001091AA022091AB023091AC026C197D0934
:1007A0008E099F09061717072807390708F08ECF0B
:1007B000C4CF80E0C7CF82E0C5CF83E0C3CFCF9264
:1007C000DF92EF92FF920F931F93CF93DF93D82F77
:1007D000C62F613208F098C00E9422026B017C0192
:1007E0008091A70281116BC081E08093A702809362
:1007F000A6029FEF9093A5021092A4029C0F9093E3
:10080000A3028093820280918202DD0FD82BD093C5
:10081000820280918102813009F078C010928102B9
:100820000E9422026B017C01809182028093BB00B6
:100830008091A9029091AA02A091AB02B091AC0262
:10084000892B8A2B8B2BA1F00E9422020091A902F6
:100850001091AA022091AB023091AC026C197D0973
:100860008E099F09061717072807390708F448C09B
:100870008091BC0083FDD8CF85EC8093BC000E94A2
:1008800022026B017C018091A702813009F440C0F3
:100890008091A4028C1710F4C091A402E3E8F2E066
:1008A000A1E6B2E080E08C1355C08C2FDF91CF9190
:1008B0001F910F91FF90EF90DF90CF90089580915E
:1008C000A9029091AA02A091AB02B091AC02892B2F
:1008D0008A2B8B2B09F484CF0E9422020091A9025B
:1008E0001091AA022091AB023091AC026C197D09E3
:1008F0008E099F09061717072807390708F070CFD8
:100900008091A8020E94D702C0E0CFCF85EEB5CF7C
:100910008091A9029091AA02A091AB02B091AC0281
:10092000892B8A2B8B2B09F4AECF0E9422020091D7
:10093000A9021091AA022091AB023091AC026C196D
:100940007D098E099F09061717072807390708F040
:100950009ACFD6CF91919D938F5FA5CF0895E091C7
:10096000600280915F02E81730F4F0E0EF59FD4F2C
:10097000808190E008958FEF9FEF0895909160023D
:1009800080915F022FEF3FEF981748F4E92FF0E0D6
:10099000EF59FD4F208130E09F5F90936002C901C5
:1009A0000895CF92DF92EF92FF920F931F93CF9310
:1009B000DF937C01CB018A012091AD02222389F0D3
:1009C000EB016B01C40ED51ECC15DD0569F06991F4
:1009D000D701ED91FC910190F081E02DC7010995BF
:1009E000F3CF642F0E947B02C801DF91CF911F914A
:1009F0000F91FF90EF90DF90CF900895CF93DF930A
:100A00001F92CDB7DEB769832091AD022223F9F0A2
:100A10002091D002203258F021E030E0FC013383F5
:100A2000228390E080E00F90DF91CF910895809134
:100A3000AE02E82FF0E0E155FD4F998190838F5F82
:100A40008093AE028093D00281E090E0ECCF61E031
:100A5000CE0101960E947B02F7CF682F8EE693E0CD
:100A60000C94FE04CF93DF93EB019091CE0321E031
:100A70002093AD029093CF021092AE021092D0025A
:100A8000682F8EE693E00E94FE046D2F8EE693E0C1
:100A90000E94FE046C2F8EE693E00E94FE04DF911C
:100AA000CF910C94F802CF93C62F9091CE0321E002
:100AB0002093AD029093CF021092AE021092D0021A
:100AC000682F8EE693E00E94FE046C2F8EE693E082
:100AD0000E94FE04CF910C94F802CF93C62F909100
:100AE0001D0421E02093AD029093CF021092AE023C
:100AF0001092D002682F8EE693E00E94FE046C2FC5
:100B00008EE693E00E94FE04CF910C94F8020F93BE
:100B10001F93CF93DF93042FD52F122FC32FFC01E8
:100B2000808191E09093AD028093CF021092AE024B
:100B30001092D002F4E06F9FB00111246A5F7F4FE2
:100B40008EE693E00E94FE04802F9D2F0E942D05CB
:100B50008D2F90E00E942D05812F9C2F0E942D0546
:100B60008C2F90E00E942D05DF91CF911F910F9166
:100B70000C94F8029A01895B9F4F211540E13407DC
:100B800030F030E020E040E050E10C94870550E088
:100B900040E0FBCFCF93DF93EC01CB01BA0120E023
:100BA00030E04AE754E40E94221420E030E44CE9AB
:100BB00050E40E94F3120E946513AB0168818B819F
:100BC0009C81DF91CF910C94BA0590E080E008956C
:100BD0001F93CF93DF93EC0188810E94CB01182FE4
:100BE00089810E94CB01EA81E3701111E4608111D7
:100BF000E8608E2F90E095958795959587958A83E7
:100C0000E150EE30F0F4F0E0E85FF94F0C948F140F
:100C1000160625062D062506210635061606160695
:100C20003506210625062D06250616068B819C8194
:100C3000AD81BE810196A11DB11D8B839C83AD83C7
:100C4000BE83DF91CF911F9108958B819C81AD81EF
:100C5000BE810197A109B109F0CF8B819C81AD8143
:100C6000BE810296A11DB11DE8CF8B819C81AD8113
:100C7000BE810297A109B109E0CF8091EC0190916A
:100C8000ED010C94E8058091EA019091EB010C9440
:100C9000E8058091E8019091E9010C94E8058091C4
:100CA000E6019091E7010C94E805FC010190002019
:100CB000E9F73197AF01481B590BBC0181ED92E078
:100CC0000C949500CF93DF93D0E0C0E0009719F02B
:100CD0000E945506EC018AE591E00E9455068C0FB2
:100CE0009D1FDF91CF9108958F929F92AF92BF92F7
:100CF000CF92DF92EF92FF920F931F93CF93DF93E8
:100D0000CDB7DEB7A1970FB6F894DEBF0FBECDBF4B
:100D10006B017C01F7FE41C06DE281ED92E00E9423
:100D200035018C0122273327A9012C193D094E09D1
:100D30005F0919A2CE0181967C019AE0892E912C3F
:100D4000A12CB12CCA01B901A50194010E94D112B4
:100D5000605DF70162937F01211531054105510561
:100D600089F790E080E0309719F0CF010E94550696
:100D7000800F911FA1960FB6F894DEBF0FBECDBFB6
:100D8000DF91CF911F910F91FF90EF90DF90CF9067
:100D9000BF90AF909F908F900895AC019B0119A2D6
:100DA0008E010F5D1F4F8AE0C82ED12CE12CF12C53
:100DB000CA01B901A70196010E94D112605DF80134
:100DC00062938F01211531054105510589F790E0A6
:100DD00080E0309779F2CF010E945506CBCFCF93B8
:100DE000DF93BC01990F880B990B0E947406EC01EC
:100DF0008AE591E00E9455068C0F9D1FDF91CF91EF
:100E000008959091CE0321E02093AD029093CF02FC
:100E10001092AE021092D002682F8EE693E00E94EC
:100E2000FE040E94F80261E08091CE030E94DF037D
:100E30001092600280935F0228EE33E0811106C0B9
:100E40002115310541F021503109FACF8EE693E0AA
:100E50000E94BE04089580E00895CF939091CE0340
:100E600021E02093AD029093CF021092AE02109237
:100E7000D002682F8EE693E00E94FE040E94F802E2
:100E800062E08091CE030E94DF03282F109260025F
:100E900080935F0280ED97E0223020F4009791F07C
:100EA0000197FACF009771F08EE693E00E94BE049E
:100EB000C82F8EE693E00E94BE0420E03C2FA901DB
:100EC000482BCA01CF9108951F93CF93DF93182F1A
:100ED0008EE00E942D07C1E0D0E002C0CC0FDD1FE4
:100EE0001A95E2F78C239D23892B41F080E10E9423
:100EF0002D07C823D92381E0CD2B09F480E0DF91B1
:100F0000CF911F9108950F931F93CF93DF9380E0AC
:100F10000E946407082F81E0011101C080E08093E6
:100F2000580281E00E946407182F81E0111101C06E
:100F300080E08093570282E00E946407D82F81E00E
:100F4000D11101C080E08093560283E00E946407C3
:100F5000C82F81E0C11101C080E08093550284E078
:100F60000E946407482F81E0411101C080E0809316
:100F7000540221E030E0002311F030E020E081E075
:100F800090E0112311F090E080E0280F391F81E0FC
:100F900090E0DD2311F090E080E0280F391F81E020
:100FA00090E0CC2311F090E080E0280F391F81E021
:100FB00090E0442311F090E080E0820F931F909323
:100FC0005A02809359020023C1F1112301F1D1117A
:100FD00029C0CC2321F1442311F110925302109225
:100FE00052020E94EF06E0915202F0915302EE0F7E
:100FF000FF1FE85DFE4F808191810E9462068DE5B2
:1010000091E0DF91CF911F910F910C946206DD2347
:1010100031F0CC2321F022E030E0411109C026E07C
:1010200030E006C0C11114C021E030E04423B9F320
:101030003093530220935202D4CF112371F0DD2359
:1010400071F3CC2361F324E030E0442341F3F0CF8B
:1010500023E030E04111E3CFEBCFD111E0CFC1115C
:10106000DECF25E030E04111DACFE2CFEF92FF9200
:101070000F931F93CF93DF93D82FF62E8EE00E940D
:101080002D0761E070E09B0102C0220F331FDA954B
:10109000E2F7E9018095909582239D23892BB1F099
:1010A00080E10E942D07BE01682B792BF11005C04D
:1010B000C095D095BE016823792380E1DF91CF915F
:1010C0001F910F91FF90EF900C94320586E00E94E3
:1010D0002D078C0188E00E942D07BE016095709558
:1010E000FF2061F07C01E622F722BE01602B712B0C
:1010F00086E00E943205B70188E0E0CFC82BD92BEB
:101100006023712386E00E943205BE01F5CFCF93A4
:10111000DF93EC016B836230D1F128F4613001F18F
:10112000DF91CF910895633009F443C06430C1F773
:101130008C819D8130E020E050E040E06981895B56
:101140009F4F0E9487058C819D8130E020E050E018
:1011500040E06A81895B9F4FDF91CF910C948705B6
:101160008C819D8130E020E050E040E06A81895B25
:101170009F4F0E948705488180E1489FA00111246C
:1011800069818C819D81DF91CF910C94BA058C810E
:101190009D8130E020E050E040E06981895B9F4F15
:1011A0000E948705488180E1489FA00111246A813F
:1011B000E8CF8C819D8130E020E040E050E1698102
:1011C000895B9F4F0E9487058C819D8130E020E0E4
:1011D00040E050E1BECFFC01608363810C9487083E
:1011E000CF93DF93C091C803D091C90360E0CE01D3
:1011F0000E94EB0863E0CE010E948708C091CC03F7
:10120000D091CD0360E0CE010E94EB0863E0CE01F7
:101210000E948708C091C603D091C70360E0CE0149
:101220000E94EB0863E0CE010E948708C091CA03C8
:10123000D091CB0360E0CE010E94EB0863E0CE01C9
:10124000DF91CF910C9487080F931F93CF93C82FF2
:101250000091C8031091C903682FC8010E94EB08D0
:1012600061E0C8010E9487080091CC031091CD0372
:101270006C2FC8010E94EB0861E0C8010E9487083A
:101280000091C6031091C7036C2FC8010E94EB08A0
:1012900063E0C8010E9487080091CA031091CB0344
:1012A0006C2FC8010E94EB0863E0C801CF911F9129
:1012B0000F910C948708CF92DF92EF92FF920F93D9
:1012C0001F93CF93DF938C01C091C803D091C903C2
:1012D000BC01990F880B990B0E9496136B017C013E
:1012E0002DEC3CEC4CE85FE30E9422140E94651355
:1012F000CE010E94EB0863E0CE010E948708C091F6
:10130000CC03D091CD03602FCE010E94EB0863E0A7
:10131000CE010E948708C091C603D091C70323E382
:1013200033E343E35FE3C701B6010E9422140E9446
:101330006513CE010E94EB0861E0CE010E94870890
:10134000C091CA03D091CB0326E636E646EA5FE3B6
:10135000C701B6010E9422140E946513CE010E94AB
:10136000EB0861E0CE01DF91CF911F910F91FF90CB
:10137000EF90DF90CF900C9487080F931F93CF933B
:10138000C82F0091C8031091C903682FC8010E949B
:10139000EB0861E0C8010E9487080091CC0310911E
:1013A000CD036C2FC8010E94EB0861E0C8010E94C8
:1013B00087080091C6031091C7036C2FC8010E94D3
:1013C000EB0861E0C8010E9487080091CA031091F0
:1013D000CB036C2FC8010E94EB0861E0C801CF91DC
:1013E0001F910F910C94870885ED8093BC0080912C
:1013F000A9029091AA02A091AB02B091AC0207960B
:10140000A11DB11D23E0B695A795979587952A95BF
:10141000D1F72091BC0024FD03C01092A7020895CB
:101420004091A9025091AA026091AB027091AC0266
:10143000452B462B472B69F30097A105B10541F0D9
:1014400025E32A95F1F700000197A109B109E1CF41
:101450008091A8020C94D7021F920F920FB60F92A0
:1014600011242F933F934F935F936F937F938F93A9
:101470009F93AF93BF93EF93FF9381ED92E00E9410
:101480001301FF91EF91BF91AF919F918F917F9148
:101490006F915F914F913F912F910F900FBE0F90E1
:1014A0001F9018951F920F920FB60F9211242F9331
:1014B0008F939F93EF93FF93E091E102F091E2020B
:1014C0008081E091E702F091E80282FD1BC09081EB
:1014D0008091EA028F5F8F732091EB02821741F0B7
:1014E000E091EA02F0E0EF52FD4F958F8093EA021F
:1014F000FF91EF919F918F912F910F900FBE0F90C1
:101500001F9018958081F4CF1F920F920FB60F9203
:1015100011242F933F938F939F93AF93BF93809109
:101520003C0290913D02A0913E02B0913F02309169
:101530003B0223E0230F2D3758F50196A11DB11D65
:1015400020933B0280933C0290933D02A0933E0285
:10155000B0933F028091400290914102A0914202DB
:10156000B09143020196A11DB11D8093400290935A
:101570004102A0934202B0934302BF91AF919F9169
:101580008F913F912F910F900FBE0F901F90189544
:1015900026E8230F0296A11DB11DD2CF1F920F92F4
:1015A0000FB60F9211242F933F934F935F936F9336
:1015B0007F938F939F93AF93BF93CF93EF93FF93BB
:1015C00099B180913A02C0913702C923282F209502
:1015D000C223209134028223292F20958223C82BF5
:1015E00090933A02C4FF05C0E0911801F0911901EF
:1015F0000995C5FF05C0E0911A01F0911B010995FD
:10160000C6FF05C0E0911C01F0911D010995C7FFBF
:1016100005C0E0911E01F0911F010995C0FF05C0B2
:10162000E0912001F09121010995C1FF05C0E091F1
:101630002201F09123010995C2FF05C0E091240128
:10164000F09125010995C3FF05C0E0912601F091B5
:1016500027010995FF91EF91CF91BF91AF919F9194
:101660008F917F916F915F914F913F912F910F904B
:101670000FBE0F901F9018951F920F920FB60F92EA
:1016800011242F933F934F935F936F937F938F9387
:101690009F93AF93BF93CF93EF93FF9396B18091B6
:1016A0003902C0913602C923282F2095C2232091E8
:1016B00033028223292F20958223C82B909339024D
:1016C000C0FF05C0E0910C01F0910D010995C1FF2B
:1016D00005C0E0910E01F0910F010995C2FF05C010
:1016E000E0911001F09111010995C3FF05C0E0914F
:1016F0001201F09113010995C4FF05C0E091140196
:10170000F09115010995C5FF05C0E0911601F09112
:1017100017010995FF91EF91CF91BF91AF919F91E3
:101720008F917F916F915F914F913F912F910F908A
:101730000FBE0F901F9018951F920F920FB60F9229
:1017400011242F933F934F935F936F937F938F93C6
:101750009F93AF93BF93CF93EF93FF9393B18091F8
:101760003802C0913502C923282F2095C223209129
:1017700032028223292F20958223C82B909338028E
:10178000C0FF05C0E0910001F09101010995C1FF82
:1017900005C0E0910201F09103010995C2FF05C067
:1017A000E0910401F09105010995C3FF05C0E091A6
:1017B0000601F09107010995C4FF05C0E0910801F9
:1017C000F09109010995C5FF05C0E0910A01F0916A
:1017D0000B010995FF91EF91CF91BF91AF919F912F
:1017E0008F917F916F915F914F913F912F910F90CA
:1017F0000FBE0F901F9018951F920F920FB60F9269
:1018000011242F933F934F935F936F937F938F9305
:101810009F93AF93BF93EF93FF938091B900887F1D
:10182000803609F44AC0F0F5883209F4A7C018F5EB
:10183000803109F49BC0B8F4882309F4F9C08830DA
:1018400009F494C0FF91EF91BF91AF919F918F9157
:101850007F916F915F914F913F912F910F900FBEAC
:101860000F901F901895883109F488C0803251F785
:101870008093A50214C0803409F49DC040F48033E5
:10188000B9F38833F9F68093A50285ECB0C08035B2
:1018900009F485C0883509F496C0883499F60E9409
:1018A000F409D0CF883909F48CC038F5883729F08D
:1018B00050F4883611F0803729F683E08093A70230
:1018C0001092310257C0883809F47BC0803919F072
:1018D000803809F0B7CF80913102803208F071C0B2
:1018E000E091310281E08E0F809331028091BB0044
:1018F000F0E0EF5EFD4F80833DC0803B39F0E0F4C7
:10190000803A09F479C0883A09F09CCF84E080934A
:10191000A7021092100210920F02E0915D02F09166
:101920005E02099580910F0281110FC081E08093C2
:101930000F021092EF0109C0803C09F4A6CF883C49
:1019400009F4A3CF883B09F07DCFE091100281E03C
:101950008E0F80931002F0E0E151FE4F8081809362
:10196000BB009091100280910F0229C080918202E9
:101970008093BB0085EC8093BC0064CF9091A4025F
:101980008091A302981758F5E091A40281E08E0F90
:101990008093A402F0E0ED57FD4F8081E9CFE09104
:1019A000A40281E08E0F8093A4028091BB00F0E03E
:1019B000ED57FD4F80839091A4028091A302981768
:1019C000C8F285E8D8CFE091A40281E08E0F809321
:1019D000A4028091BB00F0E0ED57FD4F8083809121
:1019E000A60281115CCF81E08093810284EA80931A
:1019F000BC001092A70226CF85EC8093BC00109209
:101A0000A70280913102803230F4E0913102F0E09F
:101A1000EF5EFD4F10826091310270E0E0915B0259
:101A2000F0915C0281E192E00995109231020ACFB7
:101A30001092A50234CFCF93DF9390E0FC01E255E2
:101A4000FF4F249186569F4FFC0184918823C1F05B
:101A500090E0880F991FFC01E057FF4FC591D4918A
:101A6000FC01EA57FF4FA591B4919FB7F8943881D4
:101A7000822F809583238883EC91E22BEC939FBF88
:101A8000DF91CF9108958130F1F0B0F08230E9F02C
:101A9000E82FF0E0E559FF4F9081692B608390912A
:101AA000680021E030E001C0220F8A95EAF7892F13
:101AB000822B80936800089593B1E42FF0E0E85CF6
:101AC000FD4F9083E5CF96B1F8CF99B1F6CF88302E
:101AD00088F590E1980F20913702309134028630DA
:101AE00008F064C0843008F047C07093E701609349
:101AF000E601805F2FE436E0823109F064C0309364
:101B0000250120932401877061E070E001C0660F19
:101B10008A95EAF780913702862B8093370280916D
:101B20003402862B8093340242E082E00E94430D0F
:101B300081E008958A30C8F67093ED016093EC015E
:101B400088502DE336E009F04DC030930101209319
:101B5000000161E070E001C0660F8A95EAF78091AC
:101B60003502862B8093350280913202862B80933A
:101B7000320240E080E0DACF7093E9016093E8013F
:101B800049E456E0943121F550931901409318012E
:101B9000977061E070E001C0660F9A95EAF7262B16
:101BA00020933702362B30933402BECF7093EB0173
:101BB0006093EA0143E456E0963179F450931D01B5
:101BC00040931C01E5CF30932701209326019BCF42
:101BD00050931B0140931A01DBCF50931F01409398
:101BE0001E01D6CF3093030120930201B2CF0F9391
:101BF0001F93CF93DF93EC01615019E008E051F09F
:101C000017E006E0613031F014E005E0623011F4D5
:101C100012E003E0802F0E941B0D812F0E941B0DFC
:101C200080EE90E1998388830A871B871D861E8634
:101C30001F86188A8BE39FE10197F1F71C862A968D
:101C4000BE01802F0E94670DBE01812FDF91CF91D1
:101C50001F910F910C94670D1092D4021092D30231
:101C600088EE93E0A0E0B0E08093D5029093D60296
:101C7000A093D702B093D8022AE331E03093D20286
:101C80002093D10225EC30E03093DE022093DD0278
:101C900024EC30E03093E0022093DF0220EC30E0CF
:101CA0003093E2022093E10221EC30E03093E40231
:101CB0002093E30222EC30E03093E6022093E50229
:101CC00026EC30E03093E8022093E7021092EA021B
:101CD0001092EB021092EC021092ED02109271033E
:101CE000109270038093720390937303A093740314
:101CF000B09375038CE491E090936F0380936E032F
:101D0000E9EDF3E085EF93E01582148216821282EA
:101D10001182108237968E179F07B1F71092010437
:101D200010920404109200041092FF031092150404
:101D3000109218041092140410921304EEE1F4E0CF
:101D400086E594E0148213821582108216823796FB
:101D50008E179F07B9F780E68093D60380931D0402
:101D60001092D2031092D3031092D4031092D50391
:101D70008091E60381110FC081E08093E60386ED38
:101D800093E09093E5038093E4038AE08093E1037A
:101D90008BE08093E20380EE93E09093CD038093F9
:101DA000CC038091F40381110FC083E08093F4038E
:101DB00086ED93E09093F3038093F2038DE080939C
:101DC000EF038CE08093F0038EEE93E09093CB03CF
:101DD0008093CA038091DF0381110CC086ED93E0EC
:101DE0009093DE038093DD0388E08093DA0389E03B
:101DF0008093DB0389ED93E09093C9038093C8033C
:101E00008091ED0381110FC082E08093ED0386ED98
:101E100093E09093EC038093EB038FE08093E803CF
:101E20008EE08093E90387EE93E09093C70380935D
:101E3000C60380912A04811113C081E080932A0493
:101E400026ED33E030932904209328048093250461
:101E50008091D7039091D803909327048093260410
:101E600085E294E09093C5038093C403809131048C
:101E7000811113C082E08093310426ED33E030936A
:101E8000300420932F0480932C048091D7039091E9
:101E9000D80390932E0480932D048CE294E09093C9
:101EA000C3038093C20380913804811113C083E07F
:101EB0008093380426ED33E03093370420933604C2
:101EC000809333048091D7039091D8039093350485
:101ED0008093340483E394E09093C1038093C00320
:101EE00080913F04811113C084E080933F0426ED6C
:101EF00033E030933E0420933D0480933A04809174
:101F0000D7039091D80390933C0480933B048AE3D9
:101F100094E09093BF038093BE0361E08DEA93E069
:101F20000E94F70D62E08CE993E00E94F70D63E0F8
:101F30008BE893E00E94F70D64E08AE793E00C944D
:101F4000F70D789484B5826084BD84B5816084BDCA
:101F500085B5826085BD85B5816085BD80916E0047
:101F6000816080936E001092810080918100826078
:101F700080938100809181008160809381008091B5
:101F800080008160809380008091B10084608093A4
:101F9000B1008091B00081608093B00080917A00A0
:101FA000846080937A0080917A00826080937A00C6
:101FB00080917A00816080937A0080917A008068B5
:101FC00080937A001092C1000E94C0020E94C00259
:101FD00060E080E00E946D0582E390E09093D8037A
:101FE0008093D70380911D0491E09093AD0280937C
:101FF000CF021092AE021092D00260E08EE693E023
:102000000E94FE040E94F80261E080911D040E947B
:10201000DF031092600280935F028EE693E00E94DD
:10202000BE04C82F682F6F76606180E00E946D0546
:1020300067E88EEF0E946D056C2F80E00E946D05B1
:1020400065E070E080E090E00E9447026C2F616ADA
:1020500080E00E946D05C0E030E020E050E040E00C
:102060006C2F8DE194E00E948705CF5FC031A1F70E
:10207000E091E102F091E20282E08083E091DD02F2
:10208000F091DE021082E091DF02F091E0028FEC2D
:1020900080831092E902E091E502F091E60286E089
:1020A0008083E091E302F091E4028081806180838B
:1020B000E091E302F091E402808188608083E09106
:1020C000E302F091E402808180688083E091E30282
:1020D000F091E40280818F7D80838FE38093CE0333
:1020E0008FEF8093D1030E94C0028091D1038F3F74
:1020F000C1F18FE10E94010782FF05C0682F6B7F4D
:102100008FE10E945305C091D1038EE00E942D07FC
:1021100061E070E002C0660F771FCA95E2F7609534
:102120007095682379238EE00E94320560E08091EB
:10213000D1030E94360861E070E080E090E00E94E8
:10214000470261E08091D1030E94360883E10E943A
:102150002D0781159F4F71F081E691E00E94620684
:10216000FFCF62E18DE70E94530564E38DE70E9493
:102170005305ECCF60E48EE10E94530580E894E8BB
:10218000AEE1B0E08093D2039093D303A093D40345
:10219000B093D5038FE10E9401078F78682F6061AB
:1021A0008FE10E9453058EE00E942D07BC01616003
:1021B0008EE00E9432058EE00E942D07BC01626015
:1021C0008EE00E9432058EE00E942D07BC01646003
:1021D0008EE00E9432058EE00E942D07BC016860EF
:1021E0008EE00E9432058EE00E942D07BC016061E6
:1021F0008EE00E943205C091C403D091C50340E037
:1022000050E060E87FE3CE010E94CA051DE21E8314
:10221000C091C203D091C30340E050E060E87FE387
:10222000CE010E94CA051E83C091C003D091C10394
:1022300040E050E060EC7FE3CE010E94CA058AE5F1
:102240008E83C091BE03D091BF0340E050E060E0B8
:102250007FE3CE010E94CA051E8268EE73E080E033
:1022600090E00E94470210924E0210924F0210928C
:1022700050021092510210924A0210924B02109298
:102280004C0210924D028CE090E0909349028093B2
:1022900048028AE590E0909347028093460280913D
:1022A0004802909149024091460250914702880F9E
:1022B000991F880F991F849F9001859F300D949FCF
:1022C000300D1124309345022093440200E010E0C9
:1022D00088E791E00E94620688E290E00E94BD09D2
:1022E000D0E0C0E0C530D105D1F00E9483078091D5
:1022F000590290915A020397ACF321968EE791E030
:102300000E945506CE010E94EF06C530D10551F35B
:1023100064EF71E080E090E00E944702E3CF0E940A
:10232000F00868EE73E080E090E00E94470268EEFB
:1023300073E080E090E00E944702C091C803D09112
:10234000C90368ECCE010E94EB0862E0CE010E9456
:102350008708C091CC03D091CD0368ECCE010E94D8
:10236000EB0862E0CE010E948708C091C603D091BD
:10237000C70368ECCE010E94EB0862E0CE010E9428
:102380008708C091CA03D091CB0368ECCE010E94AC
:10239000EB0862E0CE010E94870864EF71E080E004
:1023A00090E00E9447020E94F00868EE73E080E02F
:1023B00090E00E9447020E948307C091C803D09119
:1023C000C90368E2CE010E94EB0862E0CE010E94E0
:1023D0008708C091CC03D091CD0368E2CE010E9462
:1023E000EB0861E0CE010E948708C091C603D0913E
:1023F000C70368E2CE010E94EB0862E0CE010E94B2
:102400008708C091CA03D091CB0368E2CE010E9435
:10241000EB0861E0CE010E94870880915202909102
:102420005302892B41F60E94F00860ED77E080E0CE
:1024300090E00E94470268EE73E080E090E00E9426
:1024400047020E9483078091590290915A02059792
:10245000A1F40E94F00860EA76E881E090E00E9432
:1024600047020115110509F433CF0E94FF008823AC
:1024700009F42ECF0E9400002BCF80E00E94640759
:1024800091E0811101C090E09093580281E00E9498
:10249000640791E0811101C090E09093570282E0BF
:1024A0000E94640791E0811101C090E09093560270
:1024B00083E00E94640791E0811101C090E0909355
:1024C000550284E00E94640791E0811101C090E010
:1024D0009093540283E891E00E9455066091540263
:1024E00070E090E080E00E9474066091550270E018
:1024F00090E080E00E9474066091560270E090E0E7
:1025000080E00E9474066091570270E090E080E0E5
:102510000E9474068091580290E00E94EF0680911C
:10252000560281110DC088E290E00E94BD098BE93E
:1025300091E00E94620664E170E080E090E07FCF6D
:1025400080915502811107C08EE190E00E945B09E5
:1025500083EA91E0EECF80915702811107C08EE1AE
:1025600090E00E94240989EA91E0E3CF809154022F
:10257000811107C08CE390E00E945B0980EB91E041
:10258000D8CF80915802811107C08CE390E00E945F
:10259000240986EB91E0CDCF88E290E00E94BD094E
:1025A000CACFA1E21A2EAA1BBB1BFD010DC0AA1F98
:1025B000BB1FEE1FFF1FA217B307E407F50720F0AC
:1025C000A21BB30BE40BF50B661F771F881F991F27
:1025D0001A9469F760957095809590959B01AC0170
:1025E000BD01CF0108950E9407130C94E8130E94C7
:1025F000E11358F00E94DA1340F029F45F3F29F00C
:102600000C94D11351110C941C140C94D7130E94E8
:10261000F91368F39923B1F3552391F3951B550BE7
:10262000BB27AA2762177307840738F09F5F5F4FA5
:10263000220F331F441FAA1FA9F335D00E2E3AF0E4
:10264000E0E832D091505040E695001CCAF72BD0FC
:10265000FE2F29D0660F771F881FBB1F261737074D
:102660004807AB07B0E809F0BB0B802DBF01FF277F
:1026700093585F4F3AF09E3F510578F00C94D11378
:102680000C941C145F3FE4F3983ED4F38695779541
:102690006795B795F7959F5FC9F7880F911D969538
:1026A000879597F90895E1E0660F771F881FBB1F94
:1026B000621773078407BA0720F0621B730B840B41
:1026C000BA0BEE1F88F7E09508950E94011488F078
:1026D0009F5798F0B92F9927B751B0F0E1F0660FE6
:1026E000771F881F991F1AF0BA95C9F714C0B13027
:1026F00091F00E941B14B1E008950C941B14672FF5
:10270000782F8827B85F39F0B93FCCF38695779555
:102710006795B395D9F73EF490958095709561953E
:102720007F4F8F4F9F4F0895E89409C097FB3EF469
:1027300090958095709561957F4F8F4F9F4F99230E
:10274000A9F0F92F96E9BB279395F695879577958C
:102750006795B795F111F8CFFAF4BB0F11F460FF4C
:102760001BC06F5F7F4F8F4F9F4F16C0882311F0A4
:1027700096E911C0772321F09EE8872F762F05C0B8
:10278000662371F096E8862F70E060E02AF09A9553
:10279000660F771F881FDAF7880F9695879597F948
:1027A000089597F99F6780E870E060E008959FEFD3
:1027B00080EC089500240A941616170618060906D8
:1027C000089500240A9412161306140605060895A7
:1027D000092E0394000C11F4882352F0BB0F40F42F
:1027E000BF2B11F460FF04C06F5F7F4F8F4F9F4F6F
:1027F000089557FD9058440F551F59F05F3F71F0F1
:102800004795880F97FB991F61F09F3F79F0879557
:102810000895121613061406551FF2CF4695F1DFE0
:1028200008C0161617061806991FF1CF8695710570
:10283000610508940895E894BB2766277727CB01A4
:1028400097F908950E9435140C94E8130E94DA1346
:1028500038F00E94E11320F0952311F00C94D1136D
:102860000C94D71311240C941C140E94F91370F3C8
:10287000959FC1F3950F50E0551F629FF001729F25
:10288000BB27F00DB11D639FAA27F00DB11DAA1F34
:10289000649F6627B00DA11D661F829F2227B00D81
:1028A000A11D621F739FB00DA11D621F839FA00D0C
:1028B000611D221F749F3327A00D611D231F849F5C
:1028C000600D211D822F762F6A2F11249F575040B3
:1028D0009AF0F1F088234AF0EE0FFF1FBB1F661F2E
:1028E000771F881F91505040A9F79E3F510580F0F7
:1028F0000C94D1130C941C145F3FE4F3983ED4F372
:10290000869577956795B795F795E7959F5FC1F79A
:10291000FE2B880F911D9695879597F90895EE0FD8
:0E292000FF1F0590F491E02D0994F894FFCF6D
:10292E007A027A027A027A027A027A027A027A02B9
:10293E007A027A027A027A027A027A027A027A02A9
:10294E007A027A027A027A025D01BD01C301CA01DE
:10295E00D001D701DB010000000035019500C20057
:10296E008201F300D100E50000000000FE04D10456
:10297E00E505AE048C00BE04AF040D0A004D4944BB
:10298E00004661696C656420746F20636F6D6D75B0
:10299E006E69636174652E00546573742100636EF5
:1029AE00743D00534F2C53312C53322C53332C5334
:1029BE0034207374617475733A2000666F72776198
:1029CE007264006C656674310072696768743100F8
:1029DE006C6566743200726967687432004C4546E5
:1029EE00543100524947485431004C454654320048
:1029FE0052494748543200414C4C00554E444554C0
:062A0E004543544544005D
:00000001FF
