:020000040000FA
:100000000C9462000C948A000C948A000C946B0986
:100010000C940B090C949D080C948A000C948A0093
:100020000C948A000C948A000C948A000C948A0028
:100030000C948A000C948A000C948A000C948A0018
:100040000C9453080C948A000C9421080C94FB0720
:100050000C948A000C948A000C948A000C948A00F8
:100060000C94CB090C948A000000000023002600A9
:10007000290000000008000201000003040700003E
:1000800000000000000000000000250028002B00F8
:1000900000000000240027002A00040404040404D3
:1000A0000404020202020202030303030303010227
:1000B00004081020408001020408102001020408F6
:1000C0001020FB0B11241FBECFEFD8E0DEBFCDBF49
:1000D00011E0A0E0B1E0E4E6F2E202C005900D928A
:1000E000A439B107D9F723E0A4E9B1E001C01D921A
:1000F000AB3FB207E1F710E0C2E6D0E004C02197C1
:10010000FE010E942A11C136D107C9F70E94700D65
:100110000C9430110C94000080910402909105021F
:10012000891B990B089508950895AF92BF92CF92BD
:10013000DF92EF92FF920F931F93CF93DF936C01A7
:100140007B018B01040F151FEB015E01AE18BF0888
:10015000C017D10759F06991D601ED91FC9101903A
:10016000F081E02DC6010995892B79F7C501DF9152
:10017000CF911F910F91FF90EF90DF90CF90BF90A4
:10018000AF900895FC01538D448D252F30E0842FCE
:1001900090E0821B930B541710F0CF9608950197AF
:1001A0000895FC01918D828D981761F0A28DAE0F9C
:1001B000BF2FB11D5D968C91928D9F5F9F73928F23
:1001C00090E008958FEF9FEF0895FC01918D828D4F
:1001D000981731F0828DE80FF11D858D90E008951C
:1001E0008FEF9FEF0895FC01918D228D892F90E074
:1001F000805C9F4F821B91098F739927089586E732
:1002000092E00E94F30021E0892B09F420E0822F84
:10021000089580E090E0892B29F00E94FF00811171
:100220000C9400000895FC01A48DA80FB92FB11DF6
:10023000A35ABF4F2C91848D90E001968F7399271C
:10024000848FA689B7892C93A089B1898C918370FA
:1002500080648C93938D848D981306C00288F389F3
:10026000E02D80818F7D80830895EF92FF920F9320
:100270001F93CF93DF93EC0181E0888F9B8D8C8D52
:1002800098131AC0E889F989808185FF15C09FB746
:10029000F894EE89FF896083E889F9898081837009
:1002A000806480839FBF81E090E0DF91CF911F91B8
:1002B0000F91FF90EF900895F62E0B8D10E00F5FD9
:1002C0001F4F0F731127E02E8C8D8E110CC00FB6AF
:1002D00007FCFACFE889F989808185FFF5CFCE0147
:1002E0000E941301F1CFEB8DEC0FFD2FF11DE35AAE
:1002F000FF4FF0829FB7F8940B8FEA89FB898081CA
:100300008062CFCFCF93DF93EC01888D8823B9F043
:10031000AA89BB89E889F9898C9185FD03C0808110
:1003200086FD0DC00FB607FCF7CF8C9185FFF2CF8D
:10033000808185FFEDCFCE010E941301E9CFDF91CF
:10034000CF910895833081F028F4813099F0823084
:10035000A9F008958730A9F08830C9F08430B1F44D
:10036000809180008F7D03C0809180008F77809383
:100370008000089584B58F7784BD089584B58F7DFE
:10038000FBCF8091B0008F778093B000089580916B
:10039000B0008F7DF9CFCF93DF93282F30E0F901A4
:1003A000EE58FF4F8491F901E255FF4FD491F901C6
:1003B000E656FF4FC491CC23A1F081110E94A20107
:1003C000EC2FF0E0EE0FFF1FE859FF4FA591B4911D
:1003D000EC91ED2381E090E009F480E0DF91CF9192
:1003E000089580E090E0FACF1F93CF93DF93282FFA
:1003F00030E0F901EE58FF4F8491F901E255FF4FCB
:10040000D491F901E656FF4FC491CC23A9F0162FE1
:1004100081110E94A201EC2FF0E0EE0FFF1FEA57BE
:10042000FF4FA591B4918FB7F894EC91111108C0CA
:10043000D095DE23DC938FBFDF91CF911F9108957C
:10044000DE2BF8CF3FB7F8948091EE019091EF0149
:10045000A091F001B091F10126B5A89B05C02F3FF6
:1004600019F00196A11DB11D3FBFBA2FA92F982FDA
:100470008827BC01CD01620F711D811D911D42E0D5
:10048000660F771F881F991F4A95D1F708958F929D
:100490009F92AF92BF92CF92DF92EF92FF926B0149
:1004A0007C010E9422024B015C01C114D104E104D1
:1004B000F104B9F00E942202681979098A099B099E
:1004C000683E73408105910580F321E0C21AD1088E
:1004D000E108F10888EE880E83E0981EA11CB11C8B
:1004E000E4CFFF90EF90DF90CF90BF90AF909F90C0
:1004F0008F90089508952091BD01260F3327331F53
:1005000021323105ECF420914C02FC0190E080E0B6
:10051000243069F082E00895A091BD012191AC01E1
:1005200043565E4FA40FB52FB11D2C93019686172D
:1005300098F38091BD01680F6093BD0180E008953C
:1005400081E0089510924C0281E080934B0210925A
:10055000260261E082E10E94F40161E083E10E94F1
:10056000F401E9EBF0E080818E7F808380818D7FD4
:10057000808388E48093B80085E48093BC0008956C
:10058000109205021092040210925302109275020A
:100590000E94A20283E990E09093030280930202FA
:1005A00084E990E090930102809300020895CF9334
:1005B000DF9391E090939C018823B9F0C091B8003B
:1005C000D091BA008091BC008A7B8093BC0060E02F
:1005D00082E10E94F40160E083E10E94F4010E9444
:1005E000A202D093BA00C093B800DF91CF910895D2
:1005F000CF92DF92EF92FF920F931F93CF93DF93EF
:10060000D091750281E0D13208F09CC0C091740293
:100610000E9422026B017C0180914C0281116CC00E
:1006200082E080934C0281E080934B028FEF8093B5
:100630004A0210924902D0934802A4E5B2E0E8E2EF
:10064000F2E080E0D8138DC010922702809127023B
:10065000CC0FC82BC093270280912602813009F06D
:1006600084C0109226020E9422026B017C018091BC
:1006700027028093BB0080914E0290914F02A0917F
:100680005002B0915102892B8A2B8B2BA1F00E9432
:10069000220200914E0210914F022091500230919F
:1006A00051026C197D098E099F0906171707280743
:1006B000390708F442C08091BC0083FDD8CF85EC97
:1006C0008093BC000E9422026B017C0180914C024D
:1006D000823009F44CC080914A028F3F09F469C00E
:1006E00080914A02803209F466C080914A028033C8
:1006F00009F463C084E026C080914E0290914F02BD
:10070000A0915002B0915102892B8A2B8B2B09F4B6
:1007100083CF0E94220200914E0210914F0220913D
:100720005002309151026C197D098E099F090617FC
:1007300017072807390708F06FCF80914D020E94F4
:10074000D70285E010925302109275021092520265
:10075000DF91CF911F910F91FF90EF90DF90CF909D
:1007600008959D9191938F5F6DCF85EEA9CF809174
:100770004E0290914F02A0915002B0915102892BEC
:100780008A2B8B2B09F4A2CF0E94220200914E02E9
:1007900010914F0220915002309151026C197D0945
:1007A0008E099F09061717072807390708F08ECF0B
:1007B000C4CF80E0C7CF82E0C5CF83E0C3CFCF9264
:1007C000DF92EF92FF920F931F93CF93DF93D82F77
:1007D000C62F613208F098C00E9422026B017C0192
:1007E00080914C0281116BC081E080934C02809318
:1007F0004B029FEF90934A02109249029C0F9093F4
:1008000048028093270280912702DD0FD82BD093D6
:10081000270280912602813009F078C010922602CA
:100820000E9422026B017C01809127028093BB0011
:1008300080914E0290914F02A0915002B0915102CE
:10084000892B8A2B8B2BA1F00E94220200914E0251
:1008500010914F0220915002309151026C197D0984
:100860008E099F09061717072807390708F448C09B
:100870008091BC0083FDD8CF85EC8093BC000E94A2
:1008800022026B017C0180914C02813009F440C04E
:10089000809149028C1710F4C0914902E8E2F2E01D
:1008A000A6E0B2E080E08C1355C08C2FDF91CF9191
:1008B0001F910F91FF90EF90DF90CF90089580915E
:1008C0004E0290914F02A0915002B0915102892B9B
:1008D0008A2B8B2B09F484CF0E94220200914E02B6
:1008E00010914F0220915002309151026C197D09F4
:1008F0008E099F09061717072807390708F070CFD8
:1009000080914D020E94D702C0E0CFCF85EEB5CFD7
:1009100080914E0290914F02A0915002B0915102ED
:10092000892B8A2B8B2B09F4AECF0E9422020091D7
:100930004E0210914F0220915002309151026C19D9
:100940007D098E099F09061717072807390708F040
:100950009ACFD6CF91919D938F5FA5CF0895E091C7
:10096000050280910402E81730F4F0E0EA5FFD4FE1
:10097000808190E008958FEF9FEF08959091050298
:10098000809104022FEF3FEF981748F4E92FF0E031
:10099000EA5FFD4F208130E09F5F90930502C9011F
:1009A0000895CF92DF92EF92FF920F931F93CF9310
:1009B000DF937C01CB018A0120915202222389F02E
:1009C000EB016B01C40ED51ECC15DD0569F06991F4
:1009D000D701ED91FC910190F081E02DC7010995BF
:1009E000F3CF642F0E947B02C801DF91CF911F914A
:1009F0000F91FF90EF90DF90CF900895CF93DF930A
:100A00001F92CDB7DEB76983209152022223F9F0FD
:100A100020917502203258F021E030E0FC01338350
:100A2000228390E080E00F90DF91CF910895809134
:100A30005302E82FF0E0EC5AFD4F998190838F5FCD
:100A4000809353028093750281E090E0ECCF61E0E7
:100A5000CE0101960E947B02F7CF682F83E193E0DD
:100A60000C94FE04CF93DF93EB019091730321E08C
:100A700020935202909374021092530210927502C6
:100A8000682F83E193E00E94FE046D2F83E193E0E1
:100A90000E94FE046C2F83E193E00E94FE04DF912C
:100AA000CF910C94F802CF93C62F9091730321E05D
:100AB0002093520290937402109253021092750286
:100AC000682F83E193E00E94FE046C2F83E193E0A2
:100AD0000E94FE04CF910C94F802CF93C62F909100
:100AE000C20321E0209352029093740210925302A9
:100AF00010927502682F83E193E00E94FE046C2F30
:100B000083E193E00E94FE04CF910C94F8020F93CE
:100B10001F93CF93DF93042FD52F122FC32FFC01E8
:100B2000808191E09093520280937402109253025C
:100B300010927502F4E06F9FB00111246A5F7F4F3D
:100B400083E193E00E94FE04802F9D2F0E942D05DB
:100B50008D2F90E00E942D05812F9C2F0E942D0546
:100B60008C2F90E00E942D05DF91CF911F910F9166
:100B70000C94F8029A01895B9F4F211540E13407DC
:100B800030F030E020E040E050E10C94870550E088
:100B900040E0FBCFCF93DF93EC01CB01BA0120E023
:100BA00030E04AE754E40E94BD1020E030E44CE914
:100BB00050E40E94CB0F0E943D10AB0168818B81F5
:100BC0009C81DF91CF910C94BA0590E080E008956C
:100BD0001F93CF93DF93EC0188810E94CB01182FE4
:100BE00089810E94CB01EA81E3701111E4608111D7
:100BF000E8608E2F90E095958795959587958A83E7
:100C0000E150EE30F0F4F0E0E85FF94F0C942A1177
:100C1000160625062D062506210635061606160695
:100C20003506210625062D06250616068B819C8194
:100C3000AD81BE810196A11DB11D8B839C83AD83C7
:100C4000BE83DF91CF911F9108958B819C81AD81EF
:100C5000BE810197A109B109F0CF8B819C81AD8143
:100C6000BE810296A11DB11DE8CF8B819C81AD8113
:100C7000BE810297A109B109E0CF80919A019091BC
:100C80009B010C94E80580919801909199010C9436
:100C9000E80580919601909197010C94E805809168
:100CA0009401909195010C94E805CF939091730372
:100CB00021E02093520290937402109253021092FA
:100CC0007502682F83E193E00E94FE040E94F802FF
:100CD00062E0809173030E94DF03282F10920502C7
:100CE0008093040280ED97E0223020F4009791F089
:100CF0000197FACF009771F083E193E00E94BE0460
:100D0000C82F83E193E00E94BE0420E03C2FA9019C
:100D1000482BCA01CF910895EF92FF920F931F9332
:100D2000CF93DF93D82FF62E8EE00E94550661E018
:100D300070E09B0102C0220F331FDA95E2F7E90150
:100D40008095909582239D23892BB1F080E10E94AC
:100D50005506BE01682B792BF11005C0C095D095C2
:100D6000BE016823792380E1DF91CF911F910F911C
:100D7000FF90EF900C94320586E00E9455068C019E
:100D800088E00E945506BE0160957095FF2061F0D5
:100D90007C01E622F722BE01602B712B86E00E94C7
:100DA0003205B70188E0E0CFC82BD92B602371232F
:100DB00086E00E943205BE01F5CF9091730321E0D9
:100DC0002093520290937402109253021092750273
:100DD000682F83E193E00E94FE040E94F80261E024
:100DE000809173030E94DF03109205028093040236
:100DF00028EE33E0811106C02115310541F0215064
:100E00003109FACF83E193E00E94BE04089580E0A7
:100E10000895CF93DF93EC016B836230D1F128F416
:100E2000613001F1DF91CF910895633009F443C03F
:100E30006430C1F78C819D8130E020E050E040E0DB
:100E40006981895B9F4F0E9487058C819D8130E07D
:100E500020E050E040E06A81895B9F4FDF91CF91B5
:100E60000C9487058C819D8130E020E050E040E0CB
:100E70006A81895B9F4F0E948705488180E1489F76
:100E8000A001112469818C819D81DF91CF910C9407
:100E9000BA058C819D8130E020E050E040E069811E
:100EA000895B9F4F0E948705488180E1489FA00190
:100EB00011246A81E8CF8C819D8130E020E040E000
:100EC00050E16981895B9F4F0E9487058C819D81DC
:100ED00030E020E040E050E1BECFFC016083638160
:100EE0000C940907CF93DF93C0916D03D0916E03EB
:100EF00060E0CE010E946D0763E0CE010E94090709
:100F0000C0917103D091720360E0CE010E946D0721
:100F100063E0CE010E940907C0916B03D0916C037E
:100F200060E0CE010E946D0763E0CE010E940907D8
:100F3000C0916F03D091700360E0CE010E946D07F5
:100F400063E0CE01DF91CF910C940907CF93DF933B
:100F5000FC0101900020E9F73197AF01481B590BC4
:100F6000BC0186E792E00E949500EC0142E050E06F
:100F70006CE471E086E792E00E9495008C0F9D1F63
:100F8000DF91CF91089585ED8093BC0080914E0252
:100F900090914F02A0915002B09151020796A11D6D
:100FA000B11D23E0B695A795979587952A95D1F71A
:100FB0002091BC0024FD03C010924C020895409182
:100FC0004E0250914F026091500270915102452B98
:100FD000462B472B69F30097A105B10541F025E3A6
:100FE0002A95F1F700000197A109B109E1CF80919D
:100FF0004D020C94D7021F920F920FB60F9211243C
:101000002F933F934F935F936F937F938F939F9310
:10101000AF93BF93EF93FF9386E792E00E94130193
:10102000FF91EF91BF91AF919F918F917F916F91C0
:101030005F914F913F912F910F900FBE0F901F9096
:1010400018951F920F920FB60F9211242F938F9322
:101050009F93EF93FF93E0918602F0918702808146
:10106000E0918C02F0918D0282FD1BC090818091F5
:101070008F028F5F8F7320919002821741F0E09171
:101080008F02F0E0EA58FD4F958F80938F02FF9119
:10109000EF919F918F912F910F900FBE0F901F9006
:1010A00018958081F4CF1F920F920FB60F921124E2
:1010B0002F933F938F939F93AF93BF938091EA01B8
:1010C0009091EB01A091EC01B091ED013091E9011B
:1010D00023E0230F2D3758F50196A11DB11D209354
:1010E000E9018093EA019093EB01A093EC01B093A6
:1010F000ED018091EE019091EF01A091F001B0918E
:10110000F1010196A11DB11D8093EE019093EF01B5
:10111000A093F001B093F101BF91AF919F918F9196
:101120003F912F910F900FBE0F901F90189526E8BA
:10113000230F0296A11DB11DD2CF1F920F920FB6A1
:101140000F9211242F933F934F935F936F937F934D
:101150008F939F93AF93BF93CF93EF93FF9399B1E7
:101160008091E801C091E501C923282F2095C22371
:101170002091E2018223292F20958223C82B90936E
:10118000E801C4FF05C0E0911801F091190109952B
:10119000C5FF05C0E0911A01F0911B010995C6FF3A
:1011A00005C0E0911C01F0911D010995C7FF05C024
:1011B000E0911E01F0911F010995C0FF05C0E0916B
:1011C0002001F09121010995C1FF05C0E0912201A4
:1011D000F09123010995C2FF05C0E0912401F0912F
:1011E00025010995C3FF05C0E0912601F091270173
:1011F0000995FF91EF91CF91BF91AF919F918F9101
:101200007F916F915F914F913F912F910F900FBE02
:101210000F901F9018951F920F920FB60F921124E6
:101220002F933F934F935F936F937F938F939F93EE
:10123000AF93BF93CF93EF93FF9396B18091E70164
:10124000C091E401C923282F2095C2232091E101F8
:101250008223292F20958223C82B9093E701C0FF7A
:1012600005C0E0910C01F0910D010995C1FF05C089
:10127000E0910E01F0910F010995C2FF05C0E091C8
:101280001001F09111010995C3FF05C0E091120111
:10129000F09113010995C4FF05C0E0911401F0918C
:1012A00015010995C5FF05C0E0911601F0911701E0
:1012B0000995FF91EF91CF91BF91AF919F918F9140
:1012C0007F916F915F914F913F912F910F900FBE42
:1012D0000F901F9018951F920F920FB60F92112426
:1012E0002F933F934F935F936F937F938F939F932E
:1012F000AF93BF93CF93EF93FF9393B18091E601A8
:10130000C091E301C923282F2095C2232091E00139
:101310008223292F20958223C82B9093E601C0FFBA
:1013200005C0E0910001F09101010995C1FF05C0E0
:10133000E0910201F09103010995C2FF05C0E0911F
:101340000401F09105010995C3FF05C0E091060174
:10135000F09107010995C4FF05C0E0910801F091E3
:1013600009010995C5FF05C0E0910A01F0910B0143
:101370000995FF91EF91CF91BF91AF919F918F917F
:101380007F916F915F914F913F912F910F900FBE81
:101390000F901F9018951F920F920FB60F92112465
:1013A0002F933F934F935F936F937F938F939F936D
:1013B000AF93BF93EF93FF938091B900887F8036FE
:1013C00009F44AC0F0F5883209F4A7C018F5803155
:1013D00009F49BC0B8F4882309F4F9C0883009F4F3
:1013E00094C0FF91EF91BF91AF919F918F917F91A9
:1013F0006F915F914F913F912F910F900FBE0F9082
:101400001F901895883109F488C0803251F7809375
:101410004A0214C0803409F49DC040F48033B9F30B
:101420008833F9F680934A0285ECB0C0803509F420
:1014300085C0883509F496C0883499F60E94C307A0
:10144000D0CF883909F48CC038F5883729F050F4AA
:10145000883611F0803729F683E080934C02109291
:10146000DF0157C0883809F47BC0803919F0803813
:1014700009F0B7CF8091DF01803208F071C0E091B0
:10148000DF0181E08E0F8093DF018091BB00F0E0EF
:10149000E154FE4F80833DC0803B39F0E0F4803A58
:1014A00009F479C0883A09F09CCF84E080934C021B
:1014B0001092BE011092BD01E0910202F091030270
:1014C00009958091BD0181110FC081E08093BD011C
:1014D00010929D0109C0803C09F4A6CF883C09F414
:1014E000A3CF883B09F07DCFE091BE0181E08E0F54
:1014F0008093BE01F0E0E356FE4F80818093BB00F5
:101500009091BE018091BD0129C0809127028093F6
:10151000BB0085EC8093BC0064CF90914902809120
:101520004802981758F5E091490281E08E0F8093A8
:101530004902F0E0E85DFD4F8081E9CFE09149028A
:1015400081E08E0F809349028091BB00F0E0E85D5E
:10155000FD4F808390914902809148029817C8F20C
:1015600085E8D8CFE091490281E08E0F809349024F
:101570008091BB00F0E0E85DFD4F808380914B02DD
:1015800081115CCF81E08093260284EA8093BC00C5
:1015900010924C0226CF85EC8093BC0010924C0236
:1015A0008091DF01803230F4E091DF01F0E0E1541E
:1015B000FE4F10826091DF0170E0E0910002F09137
:1015C00001028FEB91E009951092DF010ACF109292
:1015D0004A0234CFCF93DF9390E0FC01E255FF4FF6
:1015E000249186569F4FFC0184918823C1F090E09E
:1015F000880F991FFC01E057FF4FC591D491FC0162
:10160000EA57FF4FA591B4919FB7F8943881822F84
:10161000809583238883EC91E22BEC939FBFDF912D
:10162000CF9108958130F1F0B0F08230E9F0E82FE9
:10163000F0E0E559FF4F9081692B6083909168003D
:1016400021E030E001C0220F8A95EAF7892F822B32
:1016500080936800089593B1E42FF0E0EA51FE4FC3
:101660009083E5CF96B1F8CF99B1F6CF883088F561
:1016700090E1980F2091E5013091E201863008F069
:1016800064C0843008F047C0709395016093940162
:10169000805F2FE436E0823109F064C03093250189
:1016A00020932401877061E070E001C0660F8A9585
:1016B000EAF78091E501862B8093E5018091E201B4
:1016C000862B8093E20142E082E00E94120B81E0CF
:1016D00008958A30C8F670939B0160939A018850F0
:1016E0002DE336E009F04DC0309301012093000155
:1016F00061E070E001C0660F8A95EAF78091E3012E
:10170000862B8093E3018091E001862B8093E0019A
:1017100040E080E0DACF709397016093960149E44E
:1017200056E0943121F550931901409318019770B8
:1017300061E070E001C0660F9A95EAF7262B2093CE
:10174000E501362B3093E201BECF7093990160938F
:10175000980143E456E0963179F450931D0140938B
:101760001C01E5CF30932701209326019BCF509396
:101770001B0140931A01DBCF50931F0140931E01C0
:10178000D6CF3093030120930201B2CF0F931F9362
:10179000CF93DF93EC01615019E008E051F017E0BE
:1017A00006E0613031F014E005E0623011F412E03F
:1017B00003E0802F0E94EA0A812F0E94EA0A80EE4D
:1017C00090E1998388830A871B871D861E861F8662
:1017D000188A8BE39FE10197F1F71C862A96BE01D8
:1017E000802F0E94360BBE01812FDF91CF911F9178
:1017F0000F910C94360B109279021092780288EEB9
:1018000093E0A0E0B0E080937A0290937B02A093F3
:101810007C02B0937D022CE231E03093770220937A
:10182000760225EC30E0309383022093820224EC90
:1018300030E0309385022093840220EC30E0309336
:1018400087022093860221EC30E0309389022093B6
:10185000880222EC30E030938B0220938A0226EC3F
:1018600030E030938D0220938C0210928F02109200
:10187000900210929102109292021092160310920E
:1018800015038093170390931803A0931903B09343
:101890001A038EE391E09093140380931303EEE711
:1018A000F3E08AE993E01582148216821282118293
:1018B000108237968E179F07B1F71092A6031092E9
:1018C000A9031092A5031092A4031092BA031092D8
:1018D000BD031092B9031092B803E3ECF3E08BEF71
:1018E00093E01482138215821082168237968E1727
:1018F0009F07B9F780E680937B038093C203109221
:101900007703109278031092790310927A038091F2
:101910008B0381110FC081E080938B038BE793E0F1
:1019200090938A03809389038AE0809386038BE0F7
:101930008093870385E893E090937203809371030B
:101940008091990381110FC083E0809399038BE705
:1019500093E090939803809397038DE08093940392
:101960008CE08093950383E993E0909370038093D8
:101970006F038091840381110CC08BE793E09093F7
:1019800083038093820388E080937F0389E08093C0
:1019900080038EE793E090936E0380936D038091B4
:1019A000920381110FC082E0809392038BE793E052
:1019B00090939103809390038FE080938D038EE04A
:1019C00080938E038CE893E090936C0380936B0379
:1019D0008091CF03811113C081E08093CF032BE767
:1019E00033E03093CE032093CD038093CA038091DC
:1019F0007C0390917D039093CC038093CB038AEC7E
:101A000093E090936A03809369038091D6038111D8
:101A100013C082E08093D6032BE733E03093D503E5
:101A20002093D4038093D10380917C0390917D0314
:101A30009093D3038093D20381ED93E09093680356
:101A4000809367038091DD03811113C083E080934D
:101A5000DD032BE733E03093DC032093DB0380933B
:101A6000D80380917C0390917D039093DA03809357
:101A7000D90388ED93E0909366038093650380918A
:101A8000E403811113C084E08093E4032BE733E087
:101A90003093E3032093E2038093DF0380917C0380
:101AA00090917D039093E1038093E0038FED93E0A9
:101AB000909364038093630361E082E593E00E9466
:101AC000C60B62E081E493E00E94C60B63E080E312
:101AD00093E00E94C60B64E08FE193E00C94C60B88
:101AE000789484B5826084BD84B5816084BD85B5F9
:101AF000826085BD85B5816085BD80916E00816005
:101B000080936E00109281008091810082608093AA
:101B100081008091810081608093810080918000AC
:101B20008160809380008091B10084608093B100D7
:101B30008091B00081608093B00080917A008460D1
:101B400080937A0080917A00826080937A008091FD
:101B50007A00816080937A0080917A008068809317
:101B60007A001092C1000E94C0020E94C00260E090
:101B700080E00E946D0582E390E090937D03809366
:101B80007C038091C20391E090935202809374028F
:101B9000109253021092750260E083E193E00E947C
:101BA000FE040E94F80261E08091C2030E94DF03FC
:101BB000109205028093040283E193E00E94BE0428
:101BC000C82F682F6F76606180E00E946D0567E81E
:101BD0008EEF0E946D056C2F80E00E946D0565E020
:101BE00070E080E090E00E9447026C2F616A80E024
:101BF0000E946D05C0E030E020E050E040E06C2F36
:101C000082EC93E00E948705CF5FC031A1F7E0919D
:101C10008602F091870282E08083E0918202F09157
:101C200083021082E0918402F09185028FEC808320
:101C300010928E02E0918A02F0918B0286E08083FE
:101C4000E0918802F0918902808180618083E09137
:101C50008802F0918902808188608083E091880207
:101C6000F0918902808180688083E0918802F09100
:101C7000890280818F7D80838FE3809373038FEF50
:101C8000809376030E94C002809176038F3FC1F15A
:101C90008FE10E94DD0682FF05C0682F6B7F8FE118
:101CA0000E945305C09176038EE00E94550661E0C4
:101CB00070E002C0660F771FCA95E2F760957095D5
:101CC000682379238EE00E94320560E080917603DC
:101CD0000E948C0661E070E080E090E00E94470284
:101CE00061E0809176030E948C0683E10E94550694
:101CF00081159F4F71F08FE491E00E94A607FFCFFE
:101D000062E18DE70E94530564E38DE70E9453056D
:101D1000ECCF60E48EE10E94530580E894E8AEE1E8
:101D2000B0E08093770390937803A0937903B09306
:101D30007A038FE10E94DD068F78682F60618FE162
:101D40000E9453058EE00E945506BC0161608EE042
:101D50000E9432058EE00E945506BC0162608EE052
:101D60000E9432058EE00E945506BC0164608EE040
:101D70000E9432058EE00E945506BC0168608EE02C
:101D80000E9432058EE00E945506BC0160618EE023
:101D90000E943205C0916903D0916A0340E050E08F
:101DA00060E87FE3CE010E94CA051DE21E83C09158
:101DB0006703D091680340E050E060E87FE3CE0124
:101DC0000E94CA051E83C0916503D091660340E05E
:101DD00050E060EC7FE3CE010E94CA058AE58E8365
:101DE000C0916303D091640340E050E060E07FE382
:101DF000CE010E94CA051E8268EE73E080E090E08A
:101E00000E9447021092FC011092FD011092FE0107
:101E10001092FF011092F8011092F9011092FA014C
:101E20001092FB018CE090E09093F7018093F60113
:101E30008AE590E09093F5018093F4018091F6019A
:101E40009091F7014091F4015091F501880F991F8D
:101E5000880F991F849F9001859F300D949F300DAE
:101E600011243093F3012093F20100E010E086E6A4
:101E700091E00E94A607C0916D03D0916E0368ECBB
:101E8000CE010E946D0762E0CE010E940907C09159
:101E90007103D091720368ECCE010E946D0762E07D
:101EA000CE010E940907C0916B03D0916C0368ECCE
:101EB000CE010E946D0762E0CE010E940907C09129
:101EC0006F03D091700368ECCE010E946D0762E051
:101ED000CE010E94090760E971E080E090E00E9475
:101EE00047020E94720760ED77E080E090E00E9478
:101EF000470282E791E00E94A607C0916D03D0914E
:101F00006E036CE2CE010E946D0763E0CE010E9479
:101F10000907C0917103D091720368E2CE010E945B
:101F20006D0763E0CE010E940907C0916B03D09159
:101F30006C036CE1CE010E946D0761E0CE010E944E
:101F40000907C0916F03D091700364E3CE010E9432
:101F50006D0761E0CE010E94090764EC79E080E042
:101F600090E00E9447020E94720760ED77E080E0F7
:101F700090E00E94470288E891E00E94A6070115C0
:101F8000110509F474CF0E94FF00882309F46FCF74
:101F90000E9400006CCF0E94DF0F0C9483100E94FF
:101FA0007C1058F00E94751040F029F45F3F29F032
:101FB0000C946C1051110C94B7100C9472100E9478
:101FC000941068F39923B1F3552391F3951B550BA6
:101FD000BB27AA2762177307840738F09F5F5F4FFC
:101FE000220F331F441FAA1FA9F335D00E2E3AF03B
:101FF000E0E832D091505040E695001CCAF72BD053
:10200000FE2F29D0660F771F881FBB1F26173707A3
:102010004807AB07B0E809F0BB0B802DBF01FF27D5
:1020200093585F4F3AF09E3F510578F00C946C1036
:102030000C94B7105F3FE4F3983ED4F38695779500
:102040006795B795F7959F5FC9F7880F911D96958E
:10205000879597F90895E1E0660F771F881FBB1FEA
:10206000621773078407BA0720F0621B730B840B97
:10207000BA0BEE1F88F7E09508950E949C1088F037
:102080009F5798F0B92F9927B751B0F0E1F0660F3C
:10209000771F881F991F1AF0BA95C9F714C0B1307D
:1020A00091F00E94B610B1E008950C94B610672F1D
:1020B000782F8827B85F39F0B93FCCF386957795AC
:1020C0006795B395D9F73EF4909580957095619595
:1020D0007F4F8F4F9F4F089597F99F6780E870E07B
:1020E00060E008959FEF80EC089500240A9416168E
:1020F000170618060906089500240A9412161306F6
:10210000140605060895092E0394000C11F4882383
:1021100052F0BB0F40F4BF2B11F460FF04C06F5F9F
:102120007F4F8F4F9F4F089557FD9058440F551F75
:1021300059F05F3F71F04795880F97FB991F61F049
:102140009F3F79F087950895121613061406551FC0
:10215000F2CF4695F1DF08C0161617061806991F2C
:10216000F1CF86957105610508940895E894BB2721
:1021700066277727CB0197F908950E94D0100C9419
:1021800083100E94751038F00E947C1020F0952377
:1021900011F00C946C100C94721011240C94B71064
:1021A0000E94941070F3959FC1F3950F50E0551F56
:1021B000629FF001729FBB27F00DB11D639FAA279C
:1021C000F00DB11DAA1F649F6627B00DA11D661FEB
:1021D000829F2227B00DA11D621F739FB00DA11D0C
:1021E000621F839FA00D611D221F749F3327A00DC6
:1021F000611D231F849F600D211D822F762F6A2F62
:1022000011249F5750409AF0F1F088234AF0EE0FC6
:10221000FF1FBB1F661F771F881F91505040A9F7F3
:102220009E3F510580F00C946C100C94B7105F3FEA
:10223000E4F3983ED4F3869577956795B795F7952F
:10224000E7959F5FC1F7FE2B880F911D96958795A7
:1022500097F90895EE0FFF1F0590F491E02D099472
:10226000F894FFCF7A027A027A027A027A027A022C
:102270007A027A027A027A027A027A027A027A027E
:102280007A027A027A027A027A027A020000000066
:1022900035019500C2008201F300D100E500000085
:1022A0000000FE04D104E505AE048C00BE04AF04BA
:1022B0000D0A004661696C656420746F20636F6D60
:1022C0006D756E69636174652E00544553542042E8
:1022D0004547494E2100574859204241434B5741F9
:1022E000524420414741494E3F3F3F004C4F4F50E1
:0822F000204F5645522E00005C
:107E0000112484B714BE81FFF0D085E080938100F7
:107E100082E08093C00088E18093C10086E0809377
:107E2000C20080E18093C4008EE0C9D0259A86E02C
:107E300020E33CEF91E0309385002093840096BBD3
:107E4000B09BFECF1D9AA8958150A9F7CC24DD24C4
:107E500088248394B5E0AB2EA1E19A2EF3E0BF2EE7
:107E6000A2D0813461F49FD0082FAFD0023811F036
:107E7000013811F484E001C083E08DD089C08234E0
:107E800011F484E103C0853419F485E0A6D080C0E4
:107E9000853579F488D0E82EFF2485D0082F10E0AE
:107EA000102F00270E291F29000F111F8ED06801E7
:107EB0006FC0863521F484E090D080E0DECF843638
:107EC00009F040C070D06FD0082F6DD080E0C81688
:107ED00080E7D80618F4F601B7BEE895C0E0D1E017
:107EE00062D089930C17E1F7F0E0CF16F0E7DF06D8
:107EF00018F0F601B7BEE89568D007B600FCFDCFD4
:107F0000A601A0E0B1E02C9130E011968C91119780
:107F100090E0982F8827822B932B1296FA010C0160
:107F200087BEE89511244E5F5F4FF1E0A038BF0790
:107F300051F7F601A7BEE89507B600FCFDCF97BE46
:107F4000E89526C08437B1F42ED02DD0F82E2BD052
:107F50003CD0F601EF2C8F010F5F1F4F84911BD097
:107F6000EA94F801C1F70894C11CD11CFA94CF0C13
:107F7000D11C0EC0853739F428D08EE10CD085E9AC
:107F80000AD08FE07ACF813511F488E018D01DD067
:107F900080E101D065CF982F8091C00085FFFCCF94
:107FA0009093C60008958091C00087FFFCCF809118
:107FB000C00084FD01C0A8958091C6000895E0E648
:107FC000F0E098E1908380830895EDDF803219F02E
:107FD00088E0F5DFFFCF84E1DECF1F93182FE3DFCA
:107FE0001150E9F7F2DF1F91089580E0E8DFEE27F6
:047FF000FF270994CA
:027FFE00040479
:00000001FF
