:020000040000FA
:100000000C9462000C948A000C948A000C949D0A53
:100010000C943D0A0C94CF090C948A000C948A002D
:100020000C948A000C948A000C948A000C948A0028
:100030000C948A000C948A000C948A000C948A0018
:100040000C9485090C948A000C9453090C942D0986
:100050000C948A000C948A000C948A000C948A00F8
:100060000C94FD0A0C948A00000000002300260076
:10007000290000000008000201000003040700003E
:1000800000000000000000000000250028002B00F8
:1000900000000000240027002A00040404040404D3
:1000A0000404020202020202030303030303010227
:1000B00004081020408001020408102001020408F6
:1000C00010202D0D11241FBECFEFD8E0DEBFCDBF15
:1000D00011E0A0E0B1E0EEE8F7E202C005900D9279
:1000E000AC3AB107D9F724E0ACEAB1E001C01D9207
:1000F000AB31B207E1F710E0C2E6D0E004C02197CF
:10010000FE010E94BF13C136D107C9F70E94A20E9B
:100110000C94C5130C940000809124029091250248
:10012000891B990B089508950895AF92BF92CF92BD
:10013000DF92EF92FF920F931F93CF93DF936C01A7
:100140007B018B01040F151FEB015E01AE18BF0888
:10015000C017D10759F06991D601ED91FC9101903A
:10016000F081E02DC6010995892B79F7C501DF9152
:10017000CF911F910F91FF90EF90DF90CF90BF90A4
:10018000AF900895FC01538D448D252F30E0842FCE
:1001900090E0821B930B541710F0CF9608950197AF
:1001A0000895FC01918D828D981761F0A28DAE0F9C
:1001B000BF2FB11D5D968C91928D9F5F9F73928F23
:1001C00090E008958FEF9FEF0895FC01918D828D4F
:1001D000981731F0828DE80FF11D858D90E008951C
:1001E0008FEF9FEF0895FC01918D228D892F90E074
:1001F000805C9F4F821B91098F739927089586E930
:1002000092E00E94F30021E0892B09F420E0822F84
:10021000089580E090E0892B29F00E94FF00811171
:100220000C9400000895FC01A48DA80FB92FB11DF6
:10023000A35ABF4F2C91848D90E001968F7399271C
:10024000848FA689B7892C93A089B1898C918370FA
:1002500080648C93938D848D981306C00288F389F3
:10026000E02D80818F7D80830895EF92FF920F9320
:100270001F93CF93DF93EC0181E0888F9B8D8C8D52
:1002800098131AC0E889F989808185FF15C09FB746
:10029000F894EE89FF896083E889F9898081837009
:1002A000806480839FBF81E090E0DF91CF911F91B8
:1002B0000F91FF90EF900895F62E0B8D10E00F5FD9
:1002C0001F4F0F731127E02E8C8D8E110CC00FB6AF
:1002D00007FCFACFE889F989808185FFF5CFCE0147
:1002E0000E941301F1CFEB8DEC0FFD2FF11DE35AAE
:1002F000FF4FF0829FB7F8940B8FEA89FB898081CA
:100300008062CFCFCF93DF93EC01888D8823B9F043
:10031000AA89BB89E889F9898C9185FD03C0808110
:1003200086FD0DC00FB607FCF7CF8C9185FFF2CF8D
:10033000808185FFEDCFCE010E941301E9CFDF91CF
:10034000CF910895833081F028F4813099F0823084
:10035000A9F008958730A9F08830C9F08430B1F44D
:10036000809180008F7D03C0809180008F77809383
:100370008000089584B58F7784BD089584B58F7DFE
:10038000FBCF8091B0008F778093B000089580916B
:10039000B0008F7DF9CFCF93DF93282F30E0F901A4
:1003A000EE58FF4F8491F901E255FF4FD491F901C6
:1003B000E656FF4FC491CC23A1F081110E94A20107
:1003C000EC2FF0E0EE0FFF1FE859FF4FA591B4911D
:1003D000EC91ED2381E090E009F480E0DF91CF9192
:1003E000089580E090E0FACF1F93CF93DF93282FFA
:1003F00030E0F901EE58FF4F8491F901E255FF4FCB
:10040000D491F901E656FF4FC491CC23A9F0162FE1
:1004100081110E94A201EC2FF0E0EE0FFF1FEA57BE
:10042000FF4FA591B4918FB7F894EC91111108C0CA
:10043000D095DE23DC938FBFDF91CF911F9108957C
:10044000DE2BF8CF3FB7F89480910A0290910B020F
:10045000A0910C02B0910D0226B5A89B05C02F3FBC
:1004600019F00196A11DB11D3FBFBA2FA92F982FDA
:100470008827BC01CD01620F711D811D911D42E0D5
:10048000660F771F881F991F4A95D1F708958F929D
:100490009F92AF92BF92CF92DF92EF92FF926B0149
:1004A0007C010E9422024B015C01C114D104E104D1
:1004B000F104B9F00E942202681979098A099B099E
:1004C000683E73408105910580F321E0C21AD1088E
:1004D000E108F10888EE880E83E0981EA11CB11C8B
:1004E000E4CFFF90EF90DF90CF90BF90AF909F90C0
:1004F0008F90089508952091D901260F3327331F37
:1005000021323105ECF420916C02FC0190E080E096
:10051000243069F082E00895A091D9012191AC01C5
:1005200047545E4FA40FB52FB11D2C93019686172B
:1005300098F38091D901680F6093D90180E0089504
:1005400081E0089510926C0281E080936B0210921A
:10055000460261E082E10E94F40161E083E10E94D1
:10056000F401E9EBF0E080818E7F808380818D7FD4
:10057000808388E48093B80085E48093BC0008956C
:10058000109225021092240210927302109295028A
:100590000E94A20283E990E09093230280932202BA
:1005A00084E990E090932102809320020895CF93F4
:1005B000DF9391E09093B8018823B9F0C091B8001F
:1005C000D091BA008091BC008A7B8093BC0060E02F
:1005D00082E10E94F40160E083E10E94F4010E9444
:1005E000A202D093BA00C093B800DF91CF910895D2
:1005F000CF92DF92EF92FF920F931F93CF93DF93EF
:10060000D091950281E0D13208F09CC0C091940253
:100610000E9422026B017C0180916C0281116CC0EE
:1006200082E080936C0281E080936B028FEF809375
:100630006A0210926902D0936802A4E7B2E0E8E48B
:10064000F2E080E0D8138DC01092470280914702FB
:10065000CC0FC82BC093470280914602813009F02D
:1006600084C0109246020E9422026B017C0180919C
:1006700047028093BB0080916E0290916F02A0911F
:100680007002B0917102892B8A2B8B2BA1F00E94F2
:10069000220200916E0210916F022091700230913F
:1006A00071026C197D098E099F0906171707280723
:1006B000390708F442C08091BC0083FDD8CF85EC97
:1006C0008093BC000E9422026B017C0180916C022D
:1006D000823009F44CC080916A028F3F09F469C0EE
:1006E00080916A02803209F466C080916A02803388
:1006F00009F463C084E026C080916E0290916F027D
:10070000A0917002B0917102892B8A2B8B2B09F476
:1007100083CF0E94220200916E0210916F022091FD
:100720007002309171026C197D098E099F090617BC
:1007300017072807390708F06FCF80916D020E94D4
:10074000D70285E010927302109295021092720205
:10075000DF91CF911F910F91FF90EF90DF90CF909D
:1007600008959D9191938F5F6DCF85EEA9CF809174
:100770006E0290916F02A0917002B0917102892B6C
:100780008A2B8B2B09F4A2CF0E94220200916E02C9
:1007900010916F0220917002309171026C197D09E5
:1007A0008E099F09061717072807390708F08ECF0B
:1007B000C4CF80E0C7CF82E0C5CF83E0C3CFCF9264
:1007C000DF92EF92FF920F931F93CF93DF93D82F77
:1007D000C62F613208F098C00E9422026B017C0192
:1007E00080916C0281116BC081E080936C028093D8
:1007F0006B029FEF90936A02109269029C0F909394
:1008000068028093470280914702DD0FD82BD09376
:10081000470280914602813009F078C0109246026A
:100820000E9422026B017C01809147028093BB00F1
:1008300080916E0290916F02A0917002B09171024E
:10084000892B8A2B8B2BA1F00E94220200916E0231
:1008500010916F0220917002309171026C197D0924
:100860008E099F09061717072807390708F448C09B
:100870008091BC0083FDD8CF85EC8093BC000E94A2
:1008800022026B017C0180916C02813009F440C02E
:10089000809169028C1710F4C0916902E8E4F2E0DB
:1008A000A6E2B2E080E08C1355C08C2FDF91CF918F
:1008B0001F910F91FF90EF90DF90CF90089580915E
:1008C0006E0290916F02A0917002B0917102892B1B
:1008D0008A2B8B2B09F484CF0E94220200916E0296
:1008E00010916F0220917002309171026C197D0994
:1008F0008E099F09061717072807390708F070CFD8
:1009000080916D020E94D702C0E0CFCF85EEB5CFB7
:1009100080916E0290916F02A0917002B09171026D
:10092000892B8A2B8B2B09F4AECF0E9422020091D7
:100930006E0210916F0220917002309171026C1959
:100940007D098E099F09061717072807390708F040
:100950009ACFD6CF91919D938F5FA5CF0895E091C7
:10096000250280912402E81730F4F0E0EA5DFD4FA3
:10097000808190E008958FEF9FEF08959091250278
:10098000809124022FEF3FEF981748F4E92FF0E011
:10099000EA5DFD4F208130E09F5F90932502C90101
:1009A0000895CF92DF92EF92FF920F931F93CF9310
:1009B000DF937C01CB018A0120917202222389F00E
:1009C000EB016B01C40ED51ECC15DD0569F06991F4
:1009D000D701ED91FC910190F081E02DC7010995BF
:1009E000F3CF642F0E947B02C801DF91CF911F914A
:1009F0000F91FF90EF90DF90CF900895CF93DF930A
:100A00001F92CDB7DEB76983209172022223F9F0DD
:100A100020919502203258F021E030E0FC01338330
:100A2000228390E080E00F90DF91CF910895809134
:100A30007302E82FF0E0EC58FD4F998190838F5FAF
:100A4000809373028093950281E090E0ECCF61E0A7
:100A5000CE0101960E947B02F7CF682F83E393E0DB
:100A60000C94FE04CF93DF93EB019091930321E06C
:100A70002093720290939402109273021092950246
:100A8000682F83E393E00E94FE046D2F83E393E0DD
:100A90000E94FE046C2F83E393E00E94FE04DF912A
:100AA000CF910C94F802CF93C62F9091930321E03D
:100AB0002093720290939402109273021092950206
:100AC000682F83E393E00E94FE046C2F83E393E09E
:100AD0000E94FE04CF910C94F802CF93C62F909100
:100AE000E20321E020937202909394021092730229
:100AF00010929502682F83E393E00E94FE046C2F0E
:100B000083E393E00E94FE04CF910C94F8020F93CC
:100B10001F93CF93DF93042FD52F122FC32FFC01E8
:100B2000808191E0909372028093940210927302FC
:100B300010929502F4E06F9FB00111246A5F7F4F1D
:100B400083E393E00E94FE04802F9D2F0E942D05D9
:100B50008D2F90E00E942D05812F9C2F0E942D0546
:100B60008C2F90E00E942D05DF91CF911F910F9166
:100B70000C94F8029A01895B9F4F211540E13407DC
:100B800030F030E020E040E050E10C94870550E088
:100B900040E0FBCF1F93CF93DF93EC01162F70E063
:100BA00090E080E00E94C61220E030E044EB52E486
:100BB0000E94231220E030E040E05FE30E94B71182
:100BC00020E030E04AE754E40E94521320E030E491
:100BD0004CE950E40E9423120E949512AB016881F7
:100BE0008B819C810E94BA051E83DF91CF911F915A
:100BF000089590E080E008951F93CF93DF93EC0178
:100C000088810E94CB01182F89810E94CB01EA8143
:100C1000E3701111E4608111E8608E2F90E09595EA
:100C20008795959587958A83E150EE30F0F4F0E052
:100C3000E45EF94F0C94BF132A06390641063906C3
:100C4000350649062A062A064906350639064106AA
:100C500039062A068B819C81AD81BE810196A11D3A
:100C6000B11D8B839C83AD83BE83DF91CF911F9198
:100C700008958B819C81AD81BE810197A109B10945
:100C8000F0CF8B819C81AD81BE810296A11DB11DEB
:100C9000E8CF8B819C81AD81BE810297A109B1090A
:100CA000E0CF8091B2019091B3010C94FC0580914A
:100CB000B0019091B1010C94FC058091AE0190912E
:100CC000AF010C94FC058091AC019091AD010C94A6
:100CD000FC05FC0101900020E9F73197AF01481BAA
:100CE000590BBC0186E992E00C9495008F929F927B
:100CF000AF92BF920F931F93CF93DF93CDB7DEB721
:100D0000A1970FB6F894DEBF0FBECDBF19A2423037
:100D100008F44AE08E010F5D1F4F842E912CB12CF8
:100D2000A12CA50194010E949411E62FB901CA01DA
:100D3000EA30F4F4E05DD801EE938D01232B242BEF
:100D4000252B79F790E080E0109719F0CD010E94F3
:100D50006906A1960FB6F894DEBF0FBECDBFDF9136
:100D6000CF911F910F91BF90AF909F908F9008955A
:100D7000E95CE1CFCF93DF93D0E0C0E0009719F0BA
:100D80000E946906EC018AE591E00E9469068C0FD9
:100D90009D1FDF91CF910895CF939091930321E010
:100DA0002093720290939402109273021092950213
:100DB000682F83E393E00E94FE040E94F80262E041
:100DC000809193030E94DF03282F109225028093C5
:100DD000240280ED97E0223020F4009791F00197F3
:100DE000FACF009771F083E393E00E94BE04C82F0E
:100DF00083E393E00E94BE0420E03C2FA901482B2E
:100E0000CA01CF9108951F93CF93DF93182F8EE0DF
:100E10000E94CC06C1E0D0E002C0CC0FDD1F1A95C5
:100E2000E2F78C239D23892B41F080E10E94CC06C0
:100E3000C823D92381E0CD2B09F480E0DF91CF9145
:100E40001F910895EF92FF920F931F93CF93DF931B
:100E5000D82FF62E8EE00E94CC0661E070E09B0158
:100E600002C0220F331FDA95E2F7E90180959095D1
:100E700082239D23892BB1F080E10E94CC06BE0124
:100E8000682B792BF11005C0C095D095BE01682361
:100E9000792380E1DF91CF911F910F91FF90EF9027
:100EA0000C94320586E00E94CC068C0188E00E94FA
:100EB000CC06BE0160957095FF2061F07C01E622B2
:100EC000F722BE01602B712B86E00E943205B7012C
:100ED00088E0E0CFC82BD92B6023712386E00E94E5
:100EE0003205BE01F5CF9091930321E02093720269
:100EF000909394021092730210929502682F83E3EC
:100F000093E00E94FE040E94F80261E08091930346
:100F10000E94DF03109225028093240228EE33E022
:100F2000811106C02115310541F021503109FACF58
:100F300083E393E00E94BE04089580E008950F9338
:100F40001F93CF93DF9380E00E940307082F81E077
:100F5000011101C080E08093B70181E00E94030786
:100F6000182F81E0111101C080E08093B60182E06A
:100F70000E940307D82F81E0D11101C080E0809347
:100F8000B50183E00E940307C82F81E0C11101C0B1
:100F900080E08093B40184E00E94030761E070E088
:100FA000002311F070E060E021E030E0112311F047
:100FB00030E020E0620F731F21E030E0DD2311F00C
:100FC00030E020E0620F731F21E030E0CC2311F00D
:100FD00030E020E0620F731F21E030E0882311F041
:100FE00030E020E0620F731F70931D0260931C02BB
:100FF000002309F441C0112359F1D11136C0CC238B
:1010000009F453C0882309F450C010921F021092B3
:101010001E02072E000C880B990B4AE00E947606F0
:101020008AE591E00E946906E0911E02F0911F029C
:10103000EE0FFF1FE85DFE4F808191810E94BA068E
:101040008DE591E0DF91CF911F910F910C94BA063D
:10105000DD2359F1CC2349F1882339F182E090E076
:1010600090931F0280931E02D4CFC11110C0882319
:10107000E1F081E090E0F4CF112371F0DD23A9F0DD
:10108000CC2399F0882389F084E090E0E9CF8111A6
:101090000CC083E090E0E4CFD11107C0C11105C0BE
:1010A000811103C085E090E0DBCF86E090E0D8CFEF
:1010B000CF93DF93EC016B836230D1F128F4613080
:1010C00001F1DF91CF910895633009F443C064309A
:1010D000C1F78C819D8130E020E050E040E06981E3
:1010E000895B9F4F0E9487058C819D8130E020E0C5
:1010F00050E040E06A81895B9F4FDF91CF910C9473
:1011000087058C819D8130E020E050E040E06A81DD
:10111000895B9F4F0E948705488180E1489FA0011D
:10112000112469818C819D81DF91CF910C94BA0546
:101130008C819D8130E020E050E040E06981895B56
:101140009F4F0E948705488180E1489FA00111249C
:101150006A81E8CF8C819D8130E020E040E050E161
:101160006981895B9F4F0E9487058C819D8130E05A
:1011700020E040E050E1BECFFC01608363810C942D
:101180005808CF93DF93C0918D03D0918E0360E018
:10119000CE010E94BC0863E0CE010E945808C091B5
:1011A0009103D091920360E0CE010E94BC0863E0FD
:1011B000CE010E945808C0918B03D0918C0360E04F
:1011C000CE010E94BC0863E0CE010E945808C09185
:1011D0008F03D091900360E0CE010E94BC0863E0D1
:1011E000CE01DF91CF910C94580885ED8093BC001F
:1011F00080916E0290916F02A0917002B091710285
:101200000796A11DB11D23E0B695A79597958795E3
:101210002A95D1F72091BC0024FD03C010926C02E6
:10122000089540916E0250916F026091700270912A
:101230007102452B462B472B69F30097A105B10599
:1012400041F025E32A95F1F700000197A109B109C2
:10125000E1CF80916D020C94D7021F920F920FB6CE
:101260000F9211242F933F934F935F936F937F932C
:101270008F939F93AF93BF93EF93FF9386E992E091
:101280000E941301FF91EF91BF91AF919F918F91B8
:101290007F916F915F914F913F912F910F900FBE72
:1012A0000F901F9018951F920F920FB60F92112456
:1012B0002F938F939F93EF93FF93E091A602F0916A
:1012C000A7028081E091AC02F091AD0282FD1BC0CB
:1012D00090818091AF028F5F8F732091B00282174F
:1012E00041F0E091AF02F0E0EA56FD4F958F809318
:1012F000AF02FF91EF919F918F912F910F900FBEB1
:101300000F901F9018958081F4CF1F920F920FB607
:101310000F9211242F933F938F939F93AF93BF937B
:101320008091060290910702A0910802B0910902F3
:101330003091050223E0230F2D3758F50196A11DAA
:10134000B11D209305028093060290930702A0939B
:101350000802B093090280910A0290910B02A091B9
:101360000C02B0910D020196A11DB11D80930A02DD
:1013700090930B02A0930C02B0930D02BF91AF911A
:101380009F918F913F912F910F900FBE0F901F90C3
:10139000189526E8230F0296A11DB11DD2CF1F92EA
:1013A0000F920FB60F9211242F933F934F935F9399
:1013B0006F937F938F939F93AF93BF93CF93EF934D
:1013C000FF9399B180910402C0910102C923282F93
:1013D0002095C2232091FE018223292F209582236C
:1013E000C82B90930402C4FF05C0E0911801F0914E
:1013F00019010995C5FF05C0E0911A01F0911B0183
:101400000995C6FF05C0E0911C01F0911D010995E9
:10141000C7FF05C0E0911E01F0911F010995C0FFB3
:1014200005C0E0912001F09121010995C1FF05C09F
:10143000E0912201F09123010995C2FF05C0E091DE
:101440002401F09125010995C3FF05C0E091260113
:10145000F09127010995FF91EF91CF91BF91AF9145
:101460009F918F917F916F915F914F913F912F91BC
:101470000F900FBE0F901F9018951F920F920FB6EE
:101480000F9211242F933F934F935F936F937F930A
:101490008F939F93AF93BF93CF93EF93FF9396B1A7
:1014A00080910302C0910002C923282F2095C223F6
:1014B0002091FD018223292F20958223C82B909310
:1014C0000302C0FF05C0E0910C01F0910D010995E8
:1014D000C1FF05C0E0910E01F0910F010995C2FF17
:1014E00005C0E0911001F09111010995C3FF05C0FD
:1014F000E0911201F09113010995C4FF05C0E0913C
:101500001401F09115010995C5FF05C0E091160180
:10151000F09117010995FF91EF91CF91BF91AF9194
:101520009F918F917F916F915F914F913F912F91FB
:101530000F900FBE0F901F9018951F920F920FB62D
:101540000F9211242F933F934F935F936F937F9349
:101550008F939F93AF93BF93CF93EF93FF9393B1E9
:1015600080910202C091FF01C923282F2095C22338
:101570002091FC018223292F20958223C82B909350
:101580000202C0FF05C0E0910001F0910101099540
:10159000C1FF05C0E0910201F09103010995C2FF6E
:1015A00005C0E0910401F09105010995C3FF05C054
:1015B000E0910601F09107010995C4FF05C0E09193
:1015C0000801F09109010995C5FF05C0E0910A01E4
:1015D000F0910B010995FF91EF91CF91BF91AF91E0
:1015E0009F918F917F916F915F914F913F912F913B
:1015F0000F900FBE0F901F9018951F920F920FB66D
:101600000F9211242F933F934F935F936F937F9388
:101610008F939F93AF93BF93EF93FF938091B90004
:10162000887F803609F44AC0F0F5883209F4A7C0F3
:1016300018F5803109F49BC0B8F4882309F4F9C087
:10164000883009F494C0FF91EF91BF91AF919F91C1
:101650008F917F916F915F914F913F912F910F905B
:101660000FBE0F901F901895883109F488C0803202
:1016700051F780936A0214C0803409F49DC040F48D
:101680008033B9F38833F9F680936A0285ECB0C0F1
:10169000803509F485C0883509F496C0883499F6F8
:1016A0000E94F508D0CF883909F48CC038F5883706
:1016B00029F050F4883611F0803729F683E08093C2
:1016C0006C021092FB0157C0883809F47BC0803946
:1016D00019F0803809F0B7CF8091FB01803208F013
:1016E00071C0E091FB0181E08E0F8093FB0180913E
:1016F000BB00F0E0E552FE4F80833DC0803B39F0F7
:10170000E0F4803A09F479C0883A09F09CCF84E08B
:1017100080936C021092DA011092D901E0912202BA
:10172000F091230209958091D90181110FC081E0C8
:101730008093D9011092B90109C0803C09F4A6CF69
:10174000883C09F4A3CF883B09F07DCFE091DA0112
:1017500081E08E0F8093DA01F0E0E754FE4F808144
:101760008093BB009091DA018091D90129C08091CA
:1017700047028093BB0085EC8093BC0064CF9091BE
:10178000690280916802981758F5E091690281E03A
:101790008E0F80936902F0E0E85BFD4F8081E9CF16
:1017A000E091690281E08E0F809369028091BB0015
:1017B000F0E0E85BFD4F80839091690280916802C0
:1017C0009817C8F285E8D8CFE091690281E08E0FC2
:1017D000809369028091BB00F0E0E85BFD4F80835D
:1017E00080916B0281115CCF81E08093460284EA94
:1017F0008093BC0010926C0226CF85EC8093BC00D5
:1018000010926C028091FB01803230F4E091FB0178
:10181000F0E0E552FE4F10826091FB0170E0E09134
:101820002002F09121028BED91E009951092FB01CD
:101830000ACF10926A0234CFCF93DF9390E0FC017D
:10184000E255FF4F249186569F4FFC0184918823D7
:10185000C1F090E0880F991FFC01E057FF4FC59140
:10186000D491FC01EA57FF4FA591B4919FB7F8942A
:101870003881822F809583238883EC91E22BEC932F
:101880009FBFDF91CF9108958130F1F0B0F08230A9
:10189000E9F0E82FF0E0E559FF4F9081692B608374
:1018A0009091680021E030E001C0220F8A95EAF7AC
:1018B000892F822B80936800089593B1E42FF0E084
:1018C000EE5FFD4F9083E5CF96B1F8CF99B1F6CF9B
:1018D000883088F590E1980F209101023091FE0147
:1018E000863008F064C0843008F047C07093AD01C2
:1018F0006093AC01805F23E636E0823109F064C07A
:101900003093250120932401877061E070E001C0CD
:10191000660F8A95EAF780910102862B8093010277
:101920008091FE01862B8093FE0142E082E00E94BE
:10193000440C81E008958A30C8F67093B301609337
:10194000B201885021E536E009F04DC03093010125
:101950002093000161E070E001C0660F8A95EAF70C
:101960008091FF01862B8093FF018091FC01862BE3
:101970008093FC0140E080E0DACF7093AF01609388
:10198000AE014DE556E0943121F550931901409395
:101990001801977061E070E001C0660F9A95EAF750
:1019A000262B20930102362B3093FE01BECF70937D
:1019B000B1016093B00147E556E0963179F4509358
:1019C0001D0140931C01E5CF309327012093260190
:1019D0009BCF50931B0140931A01DBCF50931F0103
:1019E00040931E01D6CF3093030120930201B2CF62
:1019F0000F931F93CF93DF93EC01615019E008E040
:101A000051F017E006E0613031F014E005E062309B
:101A100011F412E003E0802F0E941C0C812F0E9421
:101A20001C0C80EE90E1998388830A871B871D86B2
:101A30001E861F86188A8BE39FE10197F1F71C86AB
:101A40002A96BE01802F0E94680CBE01812FDF9173
:101A5000CF911F910F910C94680C109299021092E3
:101A6000980288EE93E0A0E0B0E080939A02909311
:101A70009B02A0939C02B0939D022AE331E0309335
:101A800097022093960225EC30E03093A302209336
:101A9000A20224EC30E03093A5022093A40220ECB3
:101AA00030E03093A7022093A60221EC30E030937F
:101AB000A9022093A80222EC30E03093AB022093DD
:101AC000AA0226EC30E03093AD022093AC021092D3
:101AD000AF021092B0021092B1021092B2021092B4
:101AE0003603109235038093370390933803A09305
:101AF0003903B0933A038CE491E0909334038093DC
:101B00003303EEE9F3E08AEB93E015821482168248
:101B100012821182108237968E179F07B1F71092AA
:101B2000C6031092C9031092C5031092C403109209
:101B3000DA031092DD031092D9031092D803E3EE7A
:101B4000F3E08BE194E014821382158210821682F6
:101B500037968E179F07B9F780E680939B03809393
:101B6000E203109297031092980310929903109237
:101B70009A038091AB0381110FC081E08093AB0386
:101B80008BE993E09093AA038093A9038AE0809362
:101B9000A6038BE08093A70385EA93E090939203DA
:101BA000809391038091B90381110FC083E08093EA
:101BB000B9038BE993E09093B8038093B7038DE06A
:101BC0008093B4038CE08093B50383EB93E0909310
:101BD000900380938F038091A40381110CC08BE943
:101BE00093E09093A3038093A20388E080939F03E4
:101BF00089E08093A0038EE993E090938E03809315
:101C00008D038091B20381110FC082E08093B203F3
:101C10008BE993E09093B1038093B0038FE08093BE
:101C2000AD038EE08093AE038CEA93E090938C0337
:101C300080938B038091EF03811113C081E0809327
:101C4000EF032BE933E03093EE032093ED03809311
:101C5000EA0380919C0390919D039093EC03809301
:101C6000EB038AEE93E090938A038093890380913B
:101C7000F603811113C082E08093F6032BE933E071
:101C80003093F5032093F4038093F10380919C0338
:101C900090919D039093F3038093F20381EF93E07F
:101CA00090938803809387038091FD03811113C073
:101CB00083E08093FD032BE933E03093FC03209312
:101CC000FB038093F80380919C0390919D03909374
:101CD000FA038093F90388EF93E09093860380934F
:101CE000850380910404811113C084E0809304046F
:101CF0002BE933E030930304209302048093FF0325
:101D000080919C0390919D03909301048093000423
:101D10008FEF93E0909384038093830361E082E7E5
:101D200093E00E94F80C62E081E693E00E94F80CD8
:101D300063E080E593E00E94F80C64E08FE393E0B9
:101D40000C94F80C789484B5826084BD84B581606D
:101D500084BD85B5826085BD85B5816085BD809176
:101D60006E00816080936E001092810080918100EE
:101D700082608093810080918100816080938100E6
:101D8000809180008160809380008091B1008460A8
:101D90008093B1008091B00081608093B000809109
:101DA0007A00846080937A0080917A0082608093C8
:101DB0007A0080917A00816080937A0080917A0025
:101DC000806880937A001092C1000E94C0020E9435
:101DD000C00260E080E00E946D0582E390E0909395
:101DE0009D0380939C038091E20391E090937202A3
:101DF00080939402109273021092950260E083E344
:101E000093E00E94FE040E94F80261E08091E203E8
:101E10000E94DF03109225028093240283E393E063
:101E20000E94BE04C82F682F6F76606180E00E9418
:101E30006D0567E88EEF0E946D056C2F80E00E94B3
:101E40006D0565E070E080E090E00E9447026C2F35
:101E5000616A80E00E946D05C0E030E020E050E063
:101E600040E06C2F82EE93E00E948705CF5FC03187
:101E7000A1F7E091A602F091A70282E08083E091B1
:101E8000A202F091A3021082E091A402F091A502B7
:101E90008FEC80831092AE02E091AA02F091AB0227
:101EA00086E08083E091A802F091A90280818061A0
:101EB0008083E091A802F091A902808188608083EC
:101EC000E091A802F091A902808180688083E0916E
:101ED000A802F091A90280818F7D80838FE3809397
:101EE00093038FEF809396030E94C0028091960324
:101EF0008F3FC1F18FE10E94730782FF05C0682FF9
:101F00006B7F8FE10E945305C09196038EE00E9483
:101F1000CC0661E070E002C0660F771FCA95E2F759
:101F200060957095682379238EE00E94320560E009
:101F3000809196030E94220761E070E080E090E0CB
:101F40000E94470261E0809196030E94220783E18C
:101F50000E94CC0681159F4F71F081E691E00E94AE
:101F6000BA06FFCF62E18DE70E94530564E38DE777
:101F70000E945305ECCF60E48EE10E94530580E897
:101F800094E8AEE1B0E08093970390939803A09318
:101F90009903B0939A038FE10E9473078F78682F9B
:101FA00060618FE10E9453058EE00E94CC06BC0167
:101FB00061608EE00E9432058EE00E94CC06BC017A
:101FC00062608EE00E9432058EE00E94CC06BC0169
:101FD00064608EE00E9432058EE00E94CC06BC0157
:101FE00068608EE00E9432058EE00E94CC06BC0143
:101FF00060618EE00E9432056DE2809189039091CC
:102000008A030E94CA056DE280918703909188033C
:102010000E94CA056AE580918503909186030E941B
:10202000CA0560E080918303909184030E94CA05F1
:1020300068EE73E080E090E00E9447021092180280
:102040001092190210921A0210921B02109214029E
:102050001092150210921602109217028CE090E076
:1020600090931302809312028AE590E090931102FC
:1020700080931002809112029091130240911002FD
:1020800050911102880F991F880F991F849F90010A
:10209000859F300D949F300D112430930F022093B3
:1020A0000E0230E0C32E30E0D32E88E791E00E948C
:1020B000BA06C0918D03D0918E0364E1CE010E94D7
:1020C000BC0861E0CE010E945808C0919103D091F4
:1020D000920364E1CE010E94BC0861E0CE010E943F
:1020E0005808C0918B03D0918C0364E1CE010E940B
:1020F000BC0861E0CE010E945808C0918F03D091C6
:10210000900364E1CE010E94BC0861E0CE010E9410
:102110005808812C912C5401839486E088169104F0
:10212000A104B10409F10E949F0780911C029091C3
:102130001D02039794F38EE791E00E9469064AE03E
:10214000C501B4010E9476068AE591E00E94690605
:1021500064EF71E080E090E00E9447022FEF821A66
:10216000920AA20AB20AD9CF0E94C10868EE73E0AF
:1021700080E090E00E9447020E949F07A0908D039C
:10218000B0908E0368E2C5010E94BC0862E0C50100
:102190000E945808E0909103F090920368E2C70112
:1021A0000E94BC0861E0C7010E94580800918B039F
:1021B00010918C0368E2C8010E94BC0862E0C8016B
:1021C0000E945808C0918F03D091900368E2CE011D
:1021D0000E94BC0861E0CE010E94580880911E0256
:1021E00090911F02892B41F60E94C10860ED77E0B3
:1021F00080E090E00E94470268ECC5010E94BC08A4
:1022000062E0C5010E94580868ECC7010E94BC0842
:1022100062E0C7010E94580868ECC8010E94BC082F
:1022200062E0C8010E94580868ECCE010E94BC0818
:1022300062E0CE010E94580864E670E080E090E021
:102240000E9447020E94C10868EE73E080E090E0BF
:102250000E944702C0918903D0918A036AE5CE01AA
:102260000E94CA05E0908703F09088036AE5C701E1
:102270000E94CA0568EE73E080E090E00E94470289
:1022800066E9CE010E94CA0500918503109186037C
:1022900066E9C8010E94CA0568EE73E080E090E03C
:1022A0000E944702A0908303B09084036CE3C501B1
:1022B0000E94CA0568EE73E080E090E00E94470249
:1022C0006DE2CE010E94CA056DE2C7010E94CA05F7
:1022D0006AE5C8010E94CA0568EE73E080E090E0FC
:1022E0000E94470266E9CE010E94CA056AE5C7015D
:1022F0000E94CA0566E9C8010E94CA0568EE73E03B
:1023000080E090E00E94470260E0C5010E94CA059B
:10231000C114D10409F4C9CE0E94FF00882309F436
:10232000C4CE0E940000C1CEA1E21A2EAA1BBB1B84
:10233000FD010DC0AA1FBB1FEE1FFF1FA217B30791
:10234000E407F50720F0A21BB30BE40BF50B661FA7
:10235000771F881F991F1A9469F76095709580956B
:1023600090959B01AC01BD01CF0108955058BB274A
:10237000AA270E94CE110C9418130E940A1338F059
:102380000E94111320F039F49F3F19F426F40C94A5
:1023900007130EF4E095E7FB0C940113E92F0E945C
:1023A000291358F3BA17620773078407950720F0BB
:1023B00079F4A6F50C944B130EF4E0950B2EBA2F7E
:1023C000A02D0B01B90190010C01CA01A00111243B
:1023D000FF27591B99F0593F50F4503E68F11A16E7
:1023E000F040A22F232F342F4427585FF3CF469578
:1023F00037952795A795F0405395C9F77EF41F169A
:10240000BA0B620B730B840BBAF09150A1F0FF0F63
:10241000BB1F661F771F881FC2F70EC0BA0F621F4F
:10242000731F841F48F4879577956795B795F7953F
:102430009E3F08F0B0CF9395880F08F09927EE0FD4
:102440009795879508950E9437120C9418130E944F
:10245000111358F00E940A1340F029F45F3F29F04D
:102460000C94011351110C944C130C9407130E94FB
:10247000291368F39923B1F3552391F3951B550B59
:10248000BB27AA2762177307840738F09F5F5F4F47
:10249000220F331F441FAA1FA9F335D00E2E3AF086
:1024A000E0E832D091505040E695001CCAF72BD09E
:1024B000FE2F29D0660F771F881FBB1F26173707EF
:1024C0004807AB07B0E809F0BB0B802DBF01FF2721
:1024D00093585F4F3AF09E3F510578F00C940113EA
:1024E0000C944C135F3FE4F3983ED4F386957795B4
:1024F0006795B795F7959F5FC9F7880F911D9695DA
:10250000879597F90895E1E0660F771F881FBB1F35
:10251000621773078407BA0720F0621B730B840BE2
:10252000BA0BEE1F88F7E09508950E94311388F0EA
:102530009F5798F0B92F9927B751B0F0E1F0660F87
:10254000771F881F991F1AF0BA95C9F714C0B130C8
:1025500091F00E944B13B1E008950C944B13672F38
:10256000782F8827B85F39F0B93FCCF386957795F7
:102570006795B395D9F73EF49095809570956195E0
:102580007F4F8F4F9F4F0895E89409C097FB3EF40B
:1025900090958095709561957F4F8F4F9F4F9923B0
:1025A000A9F0F92F96E9BB279395F695879577952E
:1025B0006795B795F111F8CFFAF4BB0F11F460FFEE
:1025C0001BC06F5F7F4F8F4F9F4F16C0882311F046
:1025D00096E911C0772321F09EE8872F762F05C05A
:1025E000662371F096E8862F70E060E02AF09A95F5
:1025F000660F771F881FDAF7880F9695879597F9EA
:10260000089597F99F6780E870E060E008959FEF74
:1026100080EC089500240A94161617061806090679
:10262000089500240A941216130614060506089548
:10263000092E0394000C11F4882352F0BB0F40F4D0
:10264000BF2B11F460FF04C06F5F7F4F8F4F9F4F10
:10265000089557FD9058440F551F59F05F3F71F092
:102660004795880F97FB991F61F09F3F79F08795F9
:102670000895121613061406551FF2CF4695F1DF82
:1026800008C0161617061806991FF1CF8695710512
:10269000610508940895E894BB2766277727CB0146
:1026A00097F908950E9465130C9418130E940A1359
:1026B00038F00E94111320F0952311F00C940113AF
:1026C0000C94071311240C944C130E94291370F3DB
:1026D000959FC1F3950F50E0551F629FF001729FC7
:1026E000BB27F00DB11D639FAA27F00DB11DAA1FD6
:1026F000649F6627B00DA11D661F829F2227B00D23
:10270000A11D621F739FB00DA11D621F839FA00DAD
:10271000611D221F749F3327A00D611D231F849FFD
:10272000600D211D822F762F6A2F11249F57504054
:102730009AF0F1F088234AF0EE0FFF1FBB1F661FCF
:10274000771F881F91505040A9F79E3F510580F098
:102750000C9401130C944C135F3FE4F3983ED4F3B4
:10276000869577956795B795F795E7959F5FC1F73C
:10277000FE2B880F911D9695879597F90895EE0F7A
:10278000FF1F0590F491E02D0994F894FFCF7A0291
:102790007A027A027A027A027A027A027A027A0259
:1027A0007A027A027A027A027A027A027A027A0249
:1027B0007A027A027A025D01830189019001960111
:1027C0009D01A1010000000035019500C2008201B9
:1027D000F300D100E50000000000FE04D104F9057B
:1027E000AE048C00BE04AF040D0A004D49440046FF
:1027F00061696C656420746F20636F6D6D756E69BF
:10280000636174652E00546573742100636E743DBA
:10281000004C4546543100524947485431004C451C
:102820004654320052494748543200414C4C0055FE
:0A2830004E4445544543544544000E
:107E0000112484B714BE81FFF0D085E080938100F7
:107E100082E08093C00088E18093C10086E0809377
:107E2000C20080E18093C4008EE0C9D0259A86E02C
:107E300020E33CEF91E0309385002093840096BBD3
:107E4000B09BFECF1D9AA8958150A9F7CC24DD24C4
:107E500088248394B5E0AB2EA1E19A2EF3E0BF2EE7
:107E6000A2D0813461F49FD0082FAFD0023811F036
:107E7000013811F484E001C083E08DD089C08234E0
:107E800011F484E103C0853419F485E0A6D080C0E4
:107E9000853579F488D0E82EFF2485D0082F10E0AE
:107EA000102F00270E291F29000F111F8ED06801E7
:107EB0006FC0863521F484E090D080E0DECF843638
:107EC00009F040C070D06FD0082F6DD080E0C81688
:107ED00080E7D80618F4F601B7BEE895C0E0D1E017
:107EE00062D089930C17E1F7F0E0CF16F0E7DF06D8
:107EF00018F0F601B7BEE89568D007B600FCFDCFD4
:107F0000A601A0E0B1E02C9130E011968C91119780
:107F100090E0982F8827822B932B1296FA010C0160
:107F200087BEE89511244E5F5F4FF1E0A038BF0790
:107F300051F7F601A7BEE89507B600FCFDCF97BE46
:107F4000E89526C08437B1F42ED02DD0F82E2BD052
:107F50003CD0F601EF2C8F010F5F1F4F84911BD097
:107F6000EA94F801C1F70894C11CD11CFA94CF0C13
:107F7000D11C0EC0853739F428D08EE10CD085E9AC
:107F80000AD08FE07ACF813511F488E018D01DD067
:107F900080E101D065CF982F8091C00085FFFCCF94
:107FA0009093C60008958091C00087FFFCCF809118
:107FB000C00084FD01C0A8958091C6000895E0E648
:107FC000F0E098E1908380830895EDDF803219F02E
:107FD00088E0F5DFFFCF84E1DECF1F93182FE3DFCA
:107FE0001150E9F7F2DF1F91089580E0E8DFEE27F6
:047FF000FF270994CA
:027FFE00040479
:00000001FF
